:4000000000800020110000001D0700001D07000080B500AF024A034B1B68136000F0B0FBBC760040FA46004010B5054C237833B9044B13B10448AFF300800123237010BD24
:400040005881FF1F00000000A82D0000084B10B51BB108490848AFF300800848036803B910BD074B002BFBD0BDE81040184700BF000000005C81FF1FA82D0000C880FF1F38
:40008000000000000000000098B500AF00F084FD002000F087FD002000F09AFD0346184601F0D6FE1AA3D3E9002302F061F803460C46184621464FF00002194B01F02EFF22
:4000C00003460C461846214613A3D3E9002301F071FD03460C46134AC2E90034124B1B68184601F0A5FE0F4B18CB1A46234601F063FD03460C461846214602F0D1F9034647
:400100009BB2184601F0CCFB00BF98BDAFF300800000000000C05F400000000000F8914000B08D407881FF1FCC80FF1F00000000B0B500AF00F030FD002000F033FD01206E
:4001400000F046FD0346184601F082FE38A3D3E9002302F00DF803460C461846214636A3D3E9002301F0DAFE03460C461846214631A3D3E9002301F01DFD03460C46304A6F
:40018000C2E900342E4B18CB1846214602F060F903460133002BB8BF5B42642292FBF3F39BB20121184601F015FA254B18CB1846214602F04DF90346002B02D101F0B2F93F
:4001C00001E001F095F91E4BD3E900014FF000024FF0000302F032F90346002B03D0012000F066FD02E0002000F062FD144B18CB1846214602F02CF90546114B18CB1846C7
:40020000214602F025F90346002BB8BF5B42642292FBF3F301332A460A490B4802F0A0F9094800F0BFFB00BFB0BD00BFAFF300800000000000C05F400000000000C0524038
:400240007881FF1FAC2D0000A081FF1F98B500AF62B601F05DFB01F089FA00F085FC00F025FB0C4800F09EFB0B4800F0D3FC0B4801F022FC0A4B18CB1846214602F0E8F8DD
:4002800003461A460749084802F06AF9012001F0F9F8EFE7CC2D000089000000310100007881FF1FD82D0000A081FF1F80B582B000AF786039603A680021786802F047F95C
:4002C00000BF0837BD4680BD80B584B000AFF860B9607A607A68B968F86802F02DF900BF1037BD4680BD00BF80B584B000AFF860B9607A607A68B968F86802F01DF900BF50
:400300001037BD4680BD00BF80B483B000AF0346FB71FEE780B487B000AF7860396000233B6100237B6127E07B699B007A6813441B68BB60BB68FB73BB6823F0FF03BB603D
:4003400014E03B695B003A6813441B781A46BB68134419463B695B003A6813445B780B703B6901333B61FB7B013BFB73FB7B002BE7D17B6901337B617B69242BD4D900BFFF
:400380001C37BD4680BC704780B582B000AF3D4B00221A803C4B58221A703C4B19221A803B4B1C221A703B4B17221A803A4B19221A703A4B19221A80394B19221A70394B9B
:4003C00040F604521A80384B1B221A70374B06221A70374B52221A70364B374A1278D2B21A70364B4FF4E2621A80354B41F251221A800023FB7019237B6014E0FB785B0076
:40040000DAB2304B1B78DBB203F00103DBB21343DBB203F00303FB704FF4F07001F09CFB7B68013B7B607B68002B02D0FB78032BE4D17B68002B02D10320FFF765FF224BA4
:400440004FF480721A80204B07221A701F4B00221A701F4B48221A701B4B00221A701D4B00221A701C4B02221A701C4A1B4B1B78DBB243F01F03DBB2137000BF0837BD468E
:4004800080BD00BF80400040824000408440004086400040884000408A4000408C4000408E40004090400040924000400043004000420040A14600400F01004922420040BD
:4004C00020420040254200400440004006400040084000400940004001400040A243004080B582B000AF1F4B1B78FB711E4B1B78BB711E4B1B787B711D4AFB7903F007038B
:40050000DBB213701B4AFB791B09DBB21370164ABB7943F00303DBB21370144A7B7943F00303DBB21370144B03221A70134B40221A70134B40221A70124B30221A70124BEE
:4005400020221A700A2000F0BFFF084A7B791370054ABB7913700D4B44221A7000BF0837BD4680BDCF010049F8460040F94600406E5800406F5800403D51004009590040EF
:400580000B590040285B00402B5B00407658004080B582B000AF72B6454A454B1B78DBB243F00403DBB213700023FB7113E0FA7913465B0013445B003E4A13443B603B68C1
:4005C0001A683B689B889BB219461046FFF76EFEFB790133FB71FB79052BE8D936493748FFF798FE04213648FFF760FE042235493548FFF779FE354A344B1B78DBB243F076
:400600000203DBB21370324A314B1B78DBB243F00203DBB213702F4A2E4B1B78DBB243F04003DBB213702C4A2B4B1B78DBB243F01003DBB21370082228492948FFF754FEF7
:400640000A2228492848FFF74FFE082227492848FFF74AFE082227492748FFF745FE082226492748FFF740FE082226492648FFF73BFE264A254B1B78DBB243F00803DBB263
:400680001370234B60221A70FFF77EFE204BC0221A70204B01221A70FFF722FF0E220D491D48FFF711FE00BF0837BD4680BD00BFE8460040E42D00009C2E0000082E000059
:4006C00000760040D4370000087600400350014013500140A0430040C2430040D837000002510040E0370000C0510040EC370000F2510040F437000012510040FC3700002A
:40070000225100400438000032510040224300400048004004000840B043004080B500AF01F0DEFE03461B680C2B00D1FEE7FEE780B584B000AF78600F4B1A687B68134406
:400740001A460E4BD31A802B09DC0B4B1B68FB60094B1A687B681344074A136007E001F0BFFE02460C2313604FF0FF33FB60FB6818461037BD4680BDD080FF1F1882FF1F82
:4007800080B586B000AF224B7B61224B3B61204B7B6135E03B691B68FB603B695B68BB603B699B683B6000237B600CE0FB681A68BB681A60BB680433BB60FB680433FB6055
:4007C0007B6804337B607A683B689A42EED13B69DB683B6000237B6008E0BB6800221A60BB680433BB607B6804337B607A683B689A42F2D13B6910333B617B69013B7B61B0
:400800007B69002BC6D101F071FEFFF71FFDFEE7010000006838000080B582B000AF194B194A1A60194A194B1B6843F40073136000237B600FE07B68032B04D8144A7B6841
:4008400052F8233000E0134B13497A6841F822307B6801337B607B682F2BECD90F4B1B78DAB20F4B1A700F4B0B4A1A60FFF790FE00F0E0FB0C4B00221A6000BF0837BD4617
:4008800080BD00BF0CED00E00004FA0514ED00E0000000001D0700000080FF1FBC760040C480FF1F08ED00E0C080FF1F80B500AF064B1B78002B04D100F00AF8034B01228B
:4008C0001A7000F025F800BF80BD00BF8081FF1F80B400AF094B72221A70094B20221A70084B06221A70084B47221A70074B00221A7000BFBD4680BC704700BF8B64004026
:40090000836400402B6500403B6500408864004080B582B000AF01F03EF90346FB71114A104B1B78DBB243F02003DBB213700E4A0D4B1B78DBB243F01003DBB213700B4A0A
:400940000A4B1B78DBB243F01003DBB2137000F0CBF9FB79184601F022F900BF0837BD4680BD00BF9B640040936400409864004080B483B000AF0346FB7100BF074B1B78FC
:40098000DBB203F00403002BF8D1054AFB79137000BF0C37BD4680BC704700BF686400404864004080B584B000AF78600023FB810C4B1B78002B10D009E0FB897A6813449D
:4009C0001B781846FFF7D4FFFB890133FB81FB897A6813441B78002BEFD100BF1037BD4680BD00BF8081FF1F80B500AF41F6FF734FF480420121022000F094FA03461A46AD
:400A00000A4B1A7041F6FF7341F6FF720121042000F0BAFA03461A46054B1A70054800F0E5FA022000F0F4FA00BF80BD8881FF1F8981FF1F090C000080B582B000AF414BFB
:400A40001B78184600F06AFB3F4B1B78184600F065FB3E4B1B78FF2B05D100F06BFC03461A463A4B1A70394B1878384B1A780623042100F08DFC354B1B78354A92B245F639
:400A8000A231184600F0C4FC2E4B1A782F4B1B781946104600F0E0FB2E4B1B78FF2B05D100F048FC03461A462A4B1A70294B1878284B1A780723042100F06AFC254B1B7824
:400AC000234A91B2244A92B2184600F0A1FC1E4B1A78204B1B781946104600F0BDFB194B1B780121184600F0D3FA174B1B780121184600F0CDFA01F04EF80346FB71174AA6
:400B0000164B1B78DBB243F02003DBB21370FB79184601F044F8124A114B1B78DBB243F00103DBB213700E4A0D4B1B78DBB243F00203DBB213700B4B04221A6000BF0837A4
:400B4000BD4680BD8881FF1F8981FF1FD480FF1F8C81FF1FD580FF1F0482FF1F976400407765004080E200E080B500AF084B1B68002B04D1FFF738FF054B01221A6000F0D5
:400B8000CDF8FFF759FF034B1B7800BF80BD00BF8481FF1F6865004080B500AF00F072F900BF80BD80B485B000AF0346FB71074B1B78FB73FB7B002B02D1FB79002BF6D022
:400BC000FB7B18461437BD4680BC70476865004080B483B000AF0346FB80FB88C3F10103074A32F913309AB2064B1B881BB29BB2D31A9BB21BB218460C37BD4680BC704707
:400C00000482FF1F0A82FF1F80B400AF00BFBD4680BC704780B582B000AF786000F03CF8786800F009F8072000F018F800F028F800BF0837BD4680BD80B485B000AF786086
:400C4000054B1B68FB60FB6840337A681A6000BF1437BD4680BC704708ED00E080B483B000AF0346FB71054AFB795B01DBB2137000BF0C37BD4680BC704700BF00E400E0CA
:400C800080B400AF034B01221A6000BFBD4680BC704700BF00E100E080B400AF034B01221A6000BFBD4680BC704700BF80E100E080B485B000AF0346FB710A4B1B78DBB26C
:400CC00023F00103FB730749FB7903F00103DAB2FB7B1343DBB20B7000BF1437BD4680BC704700BF2051004080B400AF094A094B1B78DBB243F00803DBB21370064A064B4B
:400D00001B78DBB243F00803DBB2137000BFBD4680BC7047A2430040B243004080B500AF064B1B78002B04D100F00AF8034B01221A7000F01BF800BF80BD00BF9081FF1F94
:400D400080B500AF074A074B1B78DBB243F00603DBB21370082000F06BF8034B00221A8000BF80BD095900401082FF1F80B582B000AF00F010FF0346FB71254A244B1B7872
:400D8000DBB243F00203DBB21370224A214B1B78DBB243F00203DBB213701F4B1B78BB71BB7943F00203BB71BB7943F00103BB71194ABB791370194B04221A70184A184BD3
:400DC0001B78DBB243F04003DBB21370144A144B1B78DBB223F00303DBB21370114BC8221A70114B02221A70104A104B1B78DBB243F00803DBB213700A2000F065FBFB795C
:400E0000184600F0CCFE00BF0837BD4680BD00BFAB430040BB4300400B5900400E5900400D59004008590040164600402F5B004080B584B000AF0346FB71FB790A2B07D0EC
:400E40000C2B02D0082B06D008E0C423FB730BE08423FB7308E04423FB7305E0C423FB73002000F003FB00BF054AFB7B1370FB79184600F017F800BF1037BD4680BD00BF41
:400E80000A59004080B400AF054A054B1B78DBB243F00103DBB2137000BFBD4680BC70470859004080B584B000AF0346FB71FB790A2B08D00C2B02D0082B08D00BE04FF4C0
:400EC0008053FB600DE04FF48063FB6009E04FF48073FB6005E00023FB60002000F0C6FA00BF0C4B00221A80FB6842F2107202FB03F303F6BE23084A82FB0312D212DB1737
:400F0000D31A064A1360064B00221A8000BF1037BD4680BD0882FF1F2939535F0C82FF1F0A82FF1F90B585B002AF0446084611461A462346FB710346BB710B46BB801346F3
:400F40007B80104B01221A700E4B1878BA79F9790023019300230093012300F09BF9094B1B787A88B988184600F03AF9054B1B780221184600F002F9024B1B7818460C3750
:400F8000BD4690BDD680FF1F90B585B002AF0446084611461A462346FB710346BB710B46BB8013467B80104B00221A700E4B1878BA79F9790023019300230093002300F0B4
:400FC00069F9094B1B787A88B988184600F008F9054B1B780221184600F0D0F8024B1B7818460C37BD4690BDD780FF1F80B485B000AF7860054B1B68FB60FB6848337A68D6
:401000001A6000BF1437BD4680BC704708ED00E080B483B000AF0346FB71054AFB795B01DBB2137000BF0C37BD4680BC704700BF02E400E080B483B000AF134B7F221A704B
:40104000124B80221A707F23FB710CE0FB79DB0003F1804303F5F043FA79013AD2B21A70FB79013BFB71FB79002BEFD1FB79DB0003F1804303F5F04300221A7000BF0C37A6
:40108000BD4680BC704700BFD980FF1FD880FF1F80B485B000AF03460A46FB711346BB710123FB60FB79172B2FD8BB79002B0ED0FB791A01184B1344FA791101164A0A44F7
:4010C0001278D2B242F02002D2B21A700DE0FB791A01114B1344FA7911010F4A0A441278D2B222F02002D2B21A70FB791A010A4B1344FA791101084A0A441278D2B242F035
:401100000102D2B21A700023FB60FB6818461437BD4680BC704700BF1070004080B485B000AF0346FB710123FB60FB79172B1DD8FB791A01104B1344FA7911010E4A0A443C
:401140001279D2B242F00402D2B21A71FB791A01094B1344FA791101074A0A441278D2B242F00102D2B21A700023FB60FB6818461437BD4680BC70471070004080B485B0C1
:4011800000AF03460A46FB711346BB710123FB60FB79172B1BD8FB791A01104B13441B78DBB223F00E03FB72FB791A010B4B1344BA795200D2B252B202F00E0251B297F9FE
:4011C0000B200A4352B2D2B21A700023FB60FB6818461437BD4680BC704700BF1070004080B485B000AF0346FB710B46BB8013467B800123FB60BB8841F6FF72934202D1A7
:401200004FF40053BB807B8841F6FF72934202D14FF400537B80FB79172B17D8FB79DB0003F1804303F5EC430433BB60BB68BA881A80FB79DB0003F1804303F5EC43063370
:40124000BB60BB687A881A800023FB60FB6818461437BD4680BC704780B485B000AF03460A46FB711346BB710123FB60FB79172B07D8FB791A01064B1344BA795A72002305
:40128000FB60FB6818461437BD4680BC704700BF1070004090B484B000AF0446084611461A462346FB710346BB710B467B7113463B710123FB60FB79172B34D8FB79DB00C0
:4012C00003F1804303F5EC43BA7902F07F02D1B27A79D201D2B20A43D2B21A70FB79DB0003F1804303F5EC433A7E1201D1B23A7902F00F02D2B20A43D2B25A70FB79DB00A3
:4013000003F1804303F5EC433A7F02F00F02D2B29A70FB79DB0003F1804303F5EC430022DA700023FB60FB6818461037BD4690BC704700BF80B582B000AFFF23FB7100F00D
:401340002AFC0346BB71104B1B78182B12D90F4B1B78FB710C4B1B78013BDAB20A4B1A70FB79DB0003F1804303F5F0431B78DAB2064B1A70BB79184600F011FCFB79184640
:401380000837BD4680BD00BFD880FF1FD980FF1F90B484B000AF0446084611461A462346FB710346BB800B46BB711346FB700123FB6097F90730002B23DBBB8823F47F6347
:4013C00023F00F039BB2002B1BD1FB79DB0003F1804303F5F043BB60BB68BA881A80FB79DB0003F1804303F5F043BA799A70FB79DB0003F1804303F5F043FA78DA7000239B
:40140000FB60FB6818461037BD4690BC704700BF80B485B000AF0346FB710B46BB8013467B800123FB6097F90730002B17DBFB79DB0003F1804303F5F0430433BB60BB68CE
:40144000BA881A80FB79DB0003F1804303F5F0430633BB60BB687A881A800023FB60FB6818461437BD4680BC704700BF80B483B000AF0346FB7101BE00BF0C37BD4680BC42
:40148000704700BF80B582B000AF786008E00C4B1B68184600F060FB7B68A3F500437B607B68B3F5004FF2D8064B1B687A6802FB03F3184600F050FB00BF0837BD4680BDA0
:4014C000EC80FF1FE480FF1F80B582B000AF0346FB80FB88054A127802FB03F3184600F03BFB00BF0837BD4680BD00BFE880FF1F80B400AF094A094B1B78DBB243F00103CF
:40150000DBB21370064A064B1B78DBB243F00103DBB2137000BFBD4680BC7047A2430040B243004080B483B000AF224B1B78DBB203F00103002B37D01F4B00221A701F4B38
:4015400001221A701E4B00221A701E4A1D4B1B78DBB203F07F03DBB213701B4B1B88FB801A4AFB881380144B07221A7000BF124B1B78DBB203F00103002BF8D10D4A0D4B4E
:401580001B78DBB223F00103DBB21370104A104B1B78DBB223F00103DBB21370064B00221A70094AFB88138000BF0C37BD4680BC704700BFA2430040014000401040004095
:4015C00014400040084000408040004002400040B243004080B584B000AF03460A46FB8013467B7100F0B4F80346FB7300F0A4F80346BB81FA88BB899A4200F08880464B18
:401600001B78DBB203F00103FB72FB7B002B20D1BB89002B02D0FB88002B1AD1BB89002B0BD13E4AFB8813803D4A3D4B1B78DBB223F04003DBB2137069E0394A384B1B785A
:40164000DBB243F04003DBB21370344AFB8813805DE0FB7A002B33D0324B00221A70324B01221A70314B00221A70314A304B1B78DBB203F07F03DBB21370294B1B78DBB239
:4016800003F00803002B02D0FB88002B18D1294ABB891380234B07221A7000BF214B1B78DBB203F00103002BF8D11B4A1A4B1B78DBB223F00103DBB213701A4B00221A70D5
:4016C000154B1B78DBB203F00103002B13D0194AFB881380134A7B79002B01D0032300E00123137000BF0F4B1B78DBB203F00103002BF8D10BE0094AFB8813800649064BDA
:401700001B78DAB2FB7A1343DBB20B70FFE700BF1037BD4680BD00BFA24300408040004082400040014000401040004014400040084000400240004080B400AF034B1B8822
:401740009BB21846BD4680BC704700BF8040004080B400AF044B1B78DBB203F00703DBB21846BD4680BC70478240004080B500AF064B1B78002B04D100F00AF8034B0122AC
:401780001A7000F04FF800BF80BD00BF9181FF1F80B582B000AF204B1B78DBB223F03F03FB711D4AFB7943F00B03DBB213701B4A1A4B1B78DBB243F00103DBB21370184A5C
:4017C000174B1B78DBB243F00103DBB2137044F6206000F037F844F6206000F051F844F2506000F05DF8002000F06AF800F0D3F90346BB710A4A0A4B1B78DBB243F0100377
:40180000DBB21370BB79184600F0C9F900F02AF800BF0837BD4680BD75650040946500409565004080B400AF054A054B1B78DBB263F07F03DBB2137000BFBD4680BC70473B
:401840007565004080B483B000AF0346FB80044AFB88138000BF0C37BD4680BC704700BF086A004080B500AF01E000F045F800F037F8034603F01003002BF6D100BF80BD59
:4018800080B483B000AF0346FB80044AFB88138000BF0C37BD4680BC704700BF886A004080B483B000AF0346FB80044AFB88138000BF0C37BD4680BC704700BF486A00401A
:4018C00080B483B000AF0346FB71044AFB79137000BF0C37BD4680BC704700BF8565004080B400AF034B1B78DBB21846BD4680BC704700BF6565004080B400AF034B1B88B5
:401900009BB21846BD4680BC704700BFA86A004080B500AF064B1B78002B04D100F00AF8034B01221A7000F051F800BF80BD00BF9281FF1F80B582B000AF204B1B78DBB27A
:4019400023F03F03FB711D4AFB7943F00903DBB213701B4A1A4B1B78DBB243F00103DBB21370184A174B1B78DBB243F00103DBB2137042F6E06000F039F842F6E06000F01F
:4019800053F84FF47A6000F05FF8002000F06CF800F001F90346BB710B4A0B4B1B78DBB243F01003DBB21370BB79184600F0F7F800F02CF800BF0837BD4680BD7A650040A2
:4019C00098650040996500409A65004080B400AF054A054B1B78DBB263F07F03DBB2137000BFBD4680BC70477A65004080B483B000AF0346FB80044AFB88138000BF0C3792
:401A0000BD4680BC704700BF106A004080B500AF01E000F045F800F037F8034603F01003002BF6D100BF80BD80B483B000AF0346FB80044AFB88138000BF0C37BD4680BC6A
:401A4000704700BF906A004080B483B000AF0346FB80044AFB88138000BF0C37BD4680BC704700BF506A004080B483B000AF0346FB71044AFB79137000BF0C37BD4680BC76
:401A8000704700BF8A65004080B400AF034B1B78DBB21846BD4680BC704700BF6A65004080B400AF034B1B889BB21846BD4680BC704700BFB06A004080B582B000AF786092
:401AC00000F03CF8786800F009F8072000F018F800F028F800BF0837BD4680BD80B485B000AF7860054B1B68FB60FB6844337A681A6000BF1437BD4680BC704708ED00E053
:401B000080B483B000AF0346FB71054AFB795B01DBB2137000BF0C37BD4680BC704700BF01E400E080B400AF034B02221A6000BFBD4680BC704700BF00E100E080B400AF48
:401B4000034B02221A6000BFBD4680BC704700BF80E100E000000000142816D902B4012114381049097811F0C001890904B40E4A515C04BC00BF00BF00BF8841FDD500BF33
:401B800000BF02BC704700BF00BF70F10400FCD570470B050709EFF3108072B6704780F31088704700480040921B000081F0004102E000BF83F0004330B54FEA41044FEA79
:401BC000430594EA050F08BF90EA020F1FBF54EA000C55EA020C7FEA645C7FEA655C00F0E2804FEA5454D4EB5555B8BF6D420CDD2C4480EA020281EA030382EA000083EA1E
:401C0000010180EA020281EA0303362D88BF30BD11F0004F4FEA01314FF4801C4CEA113102D0404261EB410113F0004F4FEA03334CEA133302D0524263EB430394EA050F6F
:401C400000F0A780A4F10104D5F1200E0DDB02FA0EFC22FA05F2801841F1000103FA0EF2801843FA05F359410EE0A5F120050EF1200E012A03FA0EFC28BF4CF0020C43FA19
:401C800005F3C01851EBE37101F0004507D54FF0000EDCF1000C7EEB00006EEB0101B1F5801F1BD3B1F5001F0CD349085FEA30004FEA3C0C04F101044FEA445212F5800F47
:401CC00080F09A80BCF1004F08BF5FEA500C50F1000041EB045141EA050130BD5FEA4C0C404141EB010111F4801FA4F10104E9D191F0000F04BF01460020B1FA81F308BF2A
:401D00002033A3F10B03B3F120020CDA0C3208DD02F1140CC2F10C0201FA0CF021FA02F10CE002F11402D8BFC2F1200C01FA02F120FA0CFCDCBF41EA0C019040E41AA2BF89
:401D400001EB0451294330BD6FEA04041F3C1CDA0C340EDC04F11404C4F1200220FA04F001FA02F340EA030021FA04F345EA030130BDC4F10C04C4F1200220FA02F001FA09
:401D800004F340EA0300294630BD21FA04F0294630BD94F0000F83F4801306BF81F480110134013D4EE77FEA645C18BF7FEA655C29D094EA050F08BF90EA020F05D054EA0E
:401DC000000C04BF1946104630BD91EA030F1EBF0021002030BD5FEA545C05D14000494128BF41F0004130BD14F580043CBF01F5801130BD01F0004545F0FE4141F47001AF
:401E00004FF0000030BD7FEA645C1ABF194610467FEA655C1CBF0B46024650EA013406BF52EA033591EA030F41F4002130BD00BF90F0000F04BF0021704730B54FF48064B4
:401E400004F132044FF000054FF0000150E700BF90F0000F04BF0021704730B54FF4806404F1320410F0004548BF40424FF000013EE700BF42004FEAE2014FEA31014FEA68
:401E800002701FBF12F07F4393F07F4F81F06051704792F0000F14BF93F07F4F704730B54FF4607401F0004521F0004120E700BF50EA010208BF704730B54FF000050AE060
:401EC00050EA010208BF704730B511F0004502D5404261EB41014FF4806404F132045FEA915C3FF4DCAE4FF003025FEADC0C18BF03325FEADC0C18BF033202EBDC02C2F194
:401F0000200300FA03FC20FA02F001FA03FE40EA0E0021FA02F11444C1E600BF70B54FF0FF0C4CF4E06C1CEA11541DBF1CEA135594EA0C0F95EA0C0F00F0DEF82C4481EAF5
:401F4000030621EA4C5123EA4C5350EA013518BF52EA033541F4801143F4801338D0A0FB02CE4FF00005E1FB02E506F00042E0FB03E54FF00006E1FB03569CF0000F18BF58
:401F80004EF0010EA4F1FF04B6F5007F64F5407404D25FEA4E0E6D4146EB060642EAC62141EA55514FEAC52040EA5E504FEACE2EB4F1FD0C88BFBCF5E06F1ED8BEF1004FA7
:401FC00008BF5FEA500E50F1000041EB045170BD06F0004646EA010140EA020081EA0301B4EB5C04C2BFD4EB0C0541EA045170BD41F480114FF0000E013C00F3AB8014F10B
:40200000360FDEBF002001F0004170BDC4F10004203C35DA0C341BDC04F11404C4F1200500FA05F320FA04F001FA05F240EA020001F0004221F0004110EBD37021FA04F607
:4020400042EB06015EEA430E08BF20EAD37070BDC4F10C04C4F1200500FA04F320FA05F001FA04F240EA020001F0004110EBD37041F100015EEA430E08BF20EAD37070BD19
:40208000C4F1200500FA05F24EEA020E20FA04F301FA05F243EA020321FA04F001F0004121FA04F220EA020000EBD3705EEA430E08BF20EAD37070BD94F0000F0FD101F00E
:4020C0000046400041EB010111F4801F08BF013CF7D041EA060195F0000F18BF704703F00046520043EB030313F4801F08BF013DF7D043EA0603704794EA0C0F0CEA135554
:4021000018BF95EA0C0F0CD050EA410618BF52EA4306D1D181EA030101F000414FF0000070BD50EA410606BF1046194652EA430619D094EA0C0F02D150EA013613D195EA1D
:402140000C0F05D152EA03361CBF104619460AD181EA030101F0004141F0FE4141F470014FF0000070BD41F0FE4141F4780170BD70B54FF0FF0C4CF4E06C1CEA11541DBFDE
:402180001CEA135594EA0C0F95EA0C0F00F0A7F8A4EB050481EA030E52EA03354FEA013100F088804FEA03334FF0805545EA131343EA12634FEA022245EA111545EA106534
:4021C0004FEA00260EF000419D4208BF964244F1FD0404F5407402D25B084FEA3202B61A65EB03055B084FEA32024FF480104FF4002CB6EB020E75EB030E22BFB61A754674
:4022000040EA0C005B084FEA3202B6EB020E75EB030E22BFB61A754640EA5C005B084FEA3202B6EB020E75EB030E22BFB61A754640EA9C005B084FEA3202B6EB020E75EB7F
:40224000030E22BFB61A754640EADC0055EA060E18D04FEA051545EA16754FEA06164FEAC30343EA52734FEAC2025FEA1C1CC0D111F4801F0BD141EA00014FF000004FF014
:40228000004CB6E711F4801F04BF01430020B4F1FD0C88BFBCF5E06F3FF6AFAEB5EB030C04BFB6EB020C5FEA500C50F1000041EB045170BD0EF0004E4EEA113114EB5C0409
:4022C000C2BFD4EB0C0541EA045170BD41F480114FF0000E013C90E645EA060E8DE60CEA135594EA0C0F08BF95EA0C0F3FF43BAF94EA0C0F0AD150EA01347FF434AF95EA37
:402300000C0F7FF425AF104619462CE795EA0C0F06D152EA03353FF4FDAE1046194622E750EA410618BF52EA43067FF4C5AE50EA41047FF40DAF52EA43057FF4EBAE12E7F8
:402340004FF0FF3C06E000BF4FF0010C02E000BF4FF0010C4DF804CD4FEA410C7FEA6C5C4FEA430C18BF7FEA6C5C1BD001B050EA410C0CBF52EA430C91EA030F02BF90EA67
:40238000020F0020704710F1000F91EA030F58BF994208BF90422CBFD8176FEAE37040F0010070474FEA410C7FEA6C5C02D150EA013C07D14FEA430C7FEA6C5CD6D152EA2A
:4023C000033CD3D05DF8040B704700BF8446104662468C461946634600E000BF01B5FFF7B7FF002848BF10F1000F01BD4DF808EDFFF7F4FF0CBF012000205DF808FB00BF3B
:402400004DF808EDFFF7EAFF34BF012000205DF808FB00BF4DF808EDFFF7E0FF94BF012000205DF808FB00BF4DF808EDFFF7CEFF94BF012000205DF808FB00BF4DF808ED9C
:40244000FFF7C4FF34BF012000205DF808FB00BF4FEA410212F5001215D211D56FF47873B3EB625212D94FEAC12343F0004343EA505311F0004F23FA02F018BF4042704799
:402480004FF00000704750EA013005D111F0004008BF6FF0004070474FF00000704700BF4A0011D212F5001211D20DD56FF47873B3EB62520ED44FEAC12343F0004343EA85
:4024C000505323FA02F070474FF00000704750EA013002D14FF0FF3070474FF000007047014B1868704700BF5081FF1F0E4B70B51E460E4C0025E41AA410A54204D056F8D7
:40250000253098470135F8E701F09CF9084B094C1E46E41AA4100025A54204D056F8253098470135F8E770BD5038000050380000503800005838000010B5431E0A449142FB
:4025400004D011F8014B03F8014FF8E710BD03460244934202D003F8011BFAE7704700000EB400B54FF402719CB0ADF814106FF00041049107914FF6FF711DAB02900690A2
:40258000084853F8042BADF81610006802A9019300F064F8029B00221A701CB05DF804EB03B070475081FF1F2DE9F0478E6882469E420C46914698463ED88A8912F4906FC1
:4025C0003AD02568096902236F1A656905EB450595FBF3F57B1C43449D4238BF1D4653050FD5294600F040FB064698B13A462169FFF7A2FFA38923F4906343F08003A38131
:4026000013E02A4600F08EFB064670B92169504600F0DEFA0C23CAF80030A3894FF0FF3043F04003A381BDE8F08726613E44266046466561ED1BA560464528BF4646494675
:402640003246206800F0A8FAA36800209B1BA36023681E442660BDE8F08700002DE9F04F9DB003938B8980461C060D4616460DD50B695BB9402100F0F7FA2860286118B9E4
:402680000C23C8F80030CDE040236B610023099320238DF82930DFF89CB130238DF82A3037463C4614F8013B1BB9B7EB060910D003E0252BF9D02746F3E74B463246294682
:4026C0004046FFF771FF013000F0A780099B4B4409933B78002B00F0A08000234FF0FF3204930793059206938DF853301A930126052221784E4800F041FA671C049B38B18D
:402700004B4A3C46801A06FA00F018430490EFE7D90644BF20228DF853201A0744BF2B228DF8532022782A2A03D0079A00210A200BE0039A111D12680391002A10DA524295
:4027400043F00200079204900BE027463B780134303B092B03D800FB02320121F5E701B107923B782E2B1ED17B782A2B0AD1039B02371A1D1B680392002BB8BF4FF0FF336E
:40278000059310E0002319460593781C0A2407463A780130303A092A03D804FB01210123F5E703B1059103223978224800F0E6F940B14023CBEB000003FA00F0049B0137C5
:4027C00018430490397806221B487E1C8DF8281000F0D4F988B1194B33B9039B073323F007030833039314E003AB00932A46144B04A94046AFF3008007E003AB00932A465A
:402800000F4B04A9404600F093F8B0F1FF3F824603D0099B5344099342E7AB895B0601D4099801E04FF0FF301DB0BDE8F08F00BF0E3800001438000018380000000000002A
:40284000A92500002DE9F04791461F460A698B6806469342B8BF1346C9F8003091F843200C46DDF8208012B10133C9F800302368990642BFD9F800300233C9F8003025683F
:4028800015F0060510D104F1190A07E00123524639463046C04701301AD00135E368D9F800209B1A9D42F1DB94F843302268003318BF012392060FD5E118302081F843004B
:4028C0005A1C94F845102244023382F8431003E04FF0FF30BDE8F08704F1430239463046C0470130F4D02268D9F80050E36802F00602042A08BF5D1B2269A3680CBF25EAB4
:40290000E57500259342C4BF9B1AED184FF000091A344D4509D00123224639463046C0470130D5D009F10109F3E70020BDE8F0872DE9F04317460A7E85B06E2A9846064668
:402940000C460C9B01F1430E00F0AE8011D8632A22D009D8002A00F0BB80582A40F0CA8081F84520834955E0642A1ED0692A1CD0C0E0732A00F0B08009D86F2A2ED0702A1A
:4029800040F0B8800A6842F020020A603EE0752A24D0782A3AD0ADE01A6801F14205111D1960136884F84230A8E021681A6811F0800F02D0111D196008E011F0400F02F103
:4029C0000401196002D0B2F9003000E01368002B3CDA2D225B4284F8432037E021681A6811F0800F02D0111D196007E011F0400F02F10401196001D0138800E01368227E0B
:402A00005C496F2A14BF0A2208221BE078225A4984F845202268186812F0800F00F104051D6003D1550601D5038800E00368D00744BF42F0200222601BB9226822F02002E7
:402A400022601022002084F8430001E049490A226568002DA56008DB206820F0040020602BB9002D7DD175460CE0002B79D07546B3FBF2F002FB1033CB5C05F8013D034676
:402A80000028F5D1082A0BD12368DA0708D5236962689A42DEBF302305F8013C05F1FF35C5EB0E0323612EE008681A6810F0800F496903D0101D1860136808E010F0400F9B
:402AC00002F104001860136801D0198000E0196000232361754616E01A68111D1960156800216268284600F049F808B1401B6060636804E004F1420584F84220012323615C
:402B0000002384F84330CDF800803B4603AA21463046FFF797FE013002D14FF0FF3026E023692A4639463046C0470130F5D023689B0710D5002504F1190907E001234A4659
:402B400039463046C0470130E7D00135E368039A9B1A9D42F2DBE068039B9842B8BF184605E00B7804F1420584F842308AE705B0BDE8F0831F3800003038000010B5C9B28E
:402B800002449042034605D01C7801308C42F8D1184610BD002010BD884210B501EB020301D8421E0BE09842FBD28118D21AD34204D013F8014D01F8014DF8E710BD99428B
:402BC00004D011F8014B02F8014FF8E710BD000038B50546002944D051F8043C0C1F002BB8BFE41800F0D4F81E4A1368114613B96360146030E0A3420DD92268A018834214
:402C000001BF18685B681218226063600C6023E0A24203D813465A68002AF9D118681918A1420BD12168014458188242196013D110685268014419605A600DE002D90C2375
:402C40002B6009E021686018824201BF106852680918216062605C602846BDE8384000F098B838BD9881FF1F70B5CD1C25F0030508350C2D38BF0C25002D064601DBA94209
:402C800002D90C23336046E000F082F8234B1C681A462146A1B10B685B1B0ED40B2B03D90B60CC18CD501EE08C420BBF63684B681360636018BF0C4615E00C464968E9E758
:402CC000174C23681BB9304600F052F820602946304600F04DF8431C18D0C41C24F00304A0420DD12560304600F053F804F10B00231D20F00700C31A0ED05A42E25070BD83
:402D0000211A304600F034F80130EBD10C233360304600F03EF8002070BD00BF9881FF1F9481FF1FF8B5074615460E4621B91146BDE8F840FFF798BF1AB9FFF749FF284682
:402D4000F8BD00F027F885420ED929463846FFF78BFF044650B131462A46FFF7EDFB31463846FFF735FF01E03046F8BD2046F8BD38B5064C0023054608462360FDF7D8FCD8
:402D8000431C02D1236803B12B6038BD1482FF1F7047704751F8040C0028BEBF091851F8043CC0180438704700000000537465707065722074656D703A2569096469766957
:402DC0006465723A2025750A0000000055415254204F70656E0A000074656D703A25690A0000000040510040300000000140001000140140000800400140000A004C014053
:402E0000000200500140200005520040015B0040046400400265004010000140210101400B0201402C030140440401403E050140290601404D0701403D08014045090140C4
:402E4000390A0140380B01404514014036150140191601402F1701405518014048190140391A0140401B01400B400140064101400642014006430140044501400246014073
:402E8000024701400F4801400E490140094C01400C4D01400B50014002510140110218026080618078012F8483388701880F8B72850D8A0D580459045C115F018A018C0140
:402EC0009001940198019C01AA01B001D804D904DC11DF01001001800310041005800A400C540E4A1014112217101D02285029802C042D802F2030043330341038103B020B
:402F00003C103D023E408902C0C7C2F8C44ECA7BCC26CEB5E620580459045C115F01D418D804D904DB04DC11DD30DF010010018003100410058008100B020C100E4A10041C
:402F4000112216201710281029802D802E20300433103410360838103B823C103D023E405B01618063089410964097029D809F10A511A605C0C7C2D3C46ACA3ACC66CEBDEB
:402F8000D601D80C0010010602200420052006100740080809020E020F801201132015271608171018011B801C021D042080213F2240253926042706284029262A802B0957
:402FC0002C042F193140333E358036FF37073A283B083E403F10580459045C335F01820486888A418C019002930198089E109F02A404AE22B020B21FB301B480B502B64086
:40300000B808BE04D804D904DC11DF0100A90540060807A009210BA10E491208138A1622170818201A051C901D401E4A1F5121442225251026182718282229202B403020C6
:403040003285378239813A043B1080018240840285018680874089448C308D208E048F409410964097829D809E209F11A511A62DA704AD80AE20C0FFC2DFC4AFCA0FCC9F86
:40308000CE0FE005E208E60A59045C105F018601A202A602B202B601BE04C035C102C201C404C5E0C6C0C80AC9FFCAFFCBFFCC62CDA0CEF0CF41D00CD602D73DD804D904C6
:4030C000DA04DB0CDC11DD13DF01E640E702E910EA30EB10ED10EE10EF120018018009100BA211081288180119801A021B0429802A202D802E202F403004314033103404B9
:403100003604371038103B023C103E4040A0414042044A804B4050205A20610268146BA27120720A730179408A0190109180924493E29401970198A099409A209B109D806C
:403140009E0A9FA2A110A21DA434A520A704A880AF09B310B410B60CC007C20FC40ECABCCC6ECE35D00FD208D604D801DE08E808EA02EE0100100101030E040306040703FD
:403180000A050B0C0C030E0C11011306171019101C031D0C1E041F032310251026082C0A2E042F08310F34103510360F39203A803B023E104012410446CE47B0482C49FF7A
:4031C0004AFF4BFF4EF04F44500C5401580459045A045B045C335D335F0166C06A406B02D608D804D904DB04DC11DD90DF01000801410542066808080E01110A120117482D
:403200001C021DC01E0A2520274028082B502E802F5030883609375039403A013D203E09401042204440458046085420566057025A805C105D025E48600188048B029141AE
:4032400093A0940198089A019B10A088A105A208A350AB40AC80AD09B308B545B750C0FDC284C4ADCAD7CCFACEE9D0B0D6F8D808E020E850EC40EE800002020108010A0200
:40328000240328033403580459045C135F018020819083068410853C8802893C8E318FC09120943095C49719983999C09A069C3E9E01A00EA231A3C0A406A5C0A83FA94885
:4032C000AB06AC04AFC0B103B208B3C0B436B51CB607B720BAA0BE04BF01D602D711D804D904DB04DC33DD30DF01000101200409070A0C040E0A1020112016621710180816
:4033000019201E2A1F502548274628082B502D202F5230883404371539403A013C013DA03E045E206C206D206E046F0176227708800882018622870288088A488B028C01B6
:403340008E058F10C0FAC2E0C4F6CAF7CCEACEF9D620E080E250E4C0E6104030410249FF4AFF4BFF4DA04F045018580459045A045C115D025F01604062C06440654066C0FB
:4033800068C06AC06CC06EC08101850188068B0296029C06A501AB02AE01B002B201B404B502B701BF10C030C106C5D0C620C710C83AC9FFCAFFCBFFCDAFCE0FCF04D0182D
:4033C000D280D405D804D904DA04DB04DC22DD22DF01E040E2C0E440E540E6C0E8C0EAC0ECC0EEC000150608081809100A800BA00D080F02120817401D081E041F0A2640F4
:40340000270828182E042F08324838153E083F22412845084F215520560857115E805F0977408220901593A09A20A110A208A702B404B520B640C04EC2AEC482CA66CC0A63
:40344000CEE7D046D220D6D0E004E810EC20EE0401010B0115011901210129012D013101580459045C115F0195019D01B101B902BF01D203D302D804D904DB04DC11DD1022
:40348000DF010015041509100BA00E2A1110120C16042102274029042A202D102E402F40308831203504361438113A043B803C11680B69406A208342848088018C0290114C
:4034C000924093A0954096209A20A110A21DA502B504C07EC2EEC442CAB6CC6ECEAFE209012C0201031105400A010D101130130C150917101A011B031C011D1C1F22200155
:403500002D143001331F356039203E014060410249FF4AFF4BFF4DA04F0450185401580459045A045B0F5C315D105F01604062C06440654066C068C06AC06CC06EC08A019C
:40354000920299019C01A703B203B502B701C060C103C5D0C601C702C816C9FFCAFFCBFFCDAFCE0FCF04D018D608D804D90DDA04DB04DC19DD90DF01E040E2C0E440E540B2
:40358000E6C0E8C0EAC0ECC0EEC000100618074208020B010C200E020F6011081210144815401620181019081E40212023012510271829082F023120360137583E8941045A
:4035C000460449214D205080510452045A805D806002658067017A087E8083018A808E089140964198089B429C409E889F08A021A104A201A312A510AA40B520C0F2C2F9B8
:40360000C4F0CA12CCF4CED0D022D224D618D808DE84E080E208E440EE4107020A0212011F01210122062B02300432023302340137013F0452805405580459045B045F0138
:403640008006810382018E0399049D029E05A103A202A606A701AA01B303B607B704B908BA80BF44C002C604C9FFCA07CBFFCC40CD20CEF0CF05D008D804D904DA04DC1302
:40368000DD03DF01E040E1A8E240E32001200540074009020E0210801688170819221A201D401E011F8022442580272029222C402D402E282F803080340837523A043C026B
:4036C0003D083E403F604720568859015A887102824085808E10914096019740980899019A249B5A9C409D209E88A081A104A201A310B660C092C288C478CAF5CCF8CEF2D7
:40370000D020D60BE402E810EC60EE04130216803102338035403B023E808A10C430CC70CE6097029A109B029D40A502A78097029A109B029D40A502A78097029A109B02AD
:403740009D40A502A78022085301C802D4019702A2089702A2082080562080048102822097029A109B029D40A502A780C840D440E2A0E6801D401F805004561090089A10B5
:403780009D40A780AB01B040B702C680D460EE201F80340186089702A208A620AA20C601CC011220740484048F019702A620AB80B001C408DE04E002EC04000A0101080AC4
:4037C0000A0A0C0A0D01100F11011A061C0B1D01003F100A0001000000000000000004008000408080008000000000000001010001000000000B0B0000000000000303003E
:403800000200000000000000000303004300232D302B2000686C4C00656667454647003031323334353637383941424344454600303132333435363738396162636465664A
:4038400000000000F8B500BFF8BC08BC9E4670474D00000019080000F8B500BFF8BC08BC9E4670472900000078380000C880FF1F90000000C00000000000000044480000C1
:403880001882FF1FFFFFFFFF807F000003000000006CDC0280BB0000300000000000C05D000000000000000000000000000000000000000000000000000000000000000080
:4038C0000C38000000000000000000000000000000000000000000000000000000000000000000000000000000000000000000000000000000000000000000000000000084
:40390000F080FF1F000000000000000000000000000000000000000000000000000000000000000000000000000000000000000000000000000000000000000000000000F9
:403940000000000000000000000000000000000000000000000000000000000000000000000000000000000000000000000000000000000000000000000000000000000047
:403980000000000000000000000000000000000000000000000000000000000000000000000000000000000000000000000000000000000000000000000000000000000007
:4039C00000000000000000000000000000000000000000000000000000000000000000000000000000000000000000000000000000000000000000000000000000000000C7
:403A00000000000000000000000000000000000000000000000000000000000000000000000000000000000000000000000000000000000000000000000000000000000086
:0200000480007A
:0200000490006A
:0400000000004005B7
:0200000490105A
:04000000BC90ACAF55
:0200000490303A
:020000003A2B99
:0200000490402A
:4000000000000000000000000000000000000000000000000000000000000000000000000000000000000000000000000000000000000000000000000000000000000000C0
:400040000000000000000000000000000000000000000000000000000000000000000000000000000000000000000000000000000000000000000000000000000000000080
:400080000000000000000000000000000000000000000000000000000000000000000000000000000000000000000000000000000000000000000000000000000000000040
:4000C0000000000000000000000000000000000000000000000000000000000000000000000000000000000000000000000000000000000000000000000000000000000000
:0200000490501A
:0C00000000012E16106900012E2B4A94FE
:00000001FF