:400000000080002011000000810600008106000080B500AF024A034B1B68136000F062FBBC760040FA46004010B5054C237833B9044B13B10448AFF300800123237010BDAC
:400040005081FF1F00000000EC4E0000084B10B51BB108490848AFF300800848036803B910BD074B002BFBD0BDE81040184700BF000000005481FF1FEC4E0000C880FF1F7E
:400080000000000090B5A3B002AF62B60221002000F0BEFB00BF00F065FD0346002BFAD003226B49012000F069FD03F0D5F902F077FE02F09DFA674802F016FB00BF012011
:4000C00000F0E0FD0346002BF9D003226049012000F054FD394600230A22202003F04CF800BF03F0D1F80346012BFAD1FB79C3F10103DBB25CB202F06BFA0346002B0CBF69
:4001000001230023DBB25BB223435AB2504B1A70FB781B023A791343A3F5F343403B184604F0B6F803464C49184604F0B9F90346184604F051FA03465AB2454B5A707B79FA
:400140001B02BA791343A3F50043184604F0A0F803464149184604F0A3F90346184604F03BFA03465AB23A4B9A70394B93F900301A46374B93F901301946354B93F9023023
:4001800007F10C0000930B46344904F08BFA00BF012000F077FD0346002BF9D003222C49012000F0EBFC0023FB6745E003F06CF9002003F06FF9FB6F9BB2184603F080F950
:4001C0000346184603F0EAFC4FF00002244B03F075FE03460C46184621464FF00002214B03F042FD03460C46184621464FF000021C4B03F085FB03460C46C7E91C34FB6FAA
:400200005C1CD7E91C0103F041FF03465AB2104B1A55D7E91C0103F061FF034607F10C00FA6F114904F03EFA07F10C03184602F05BFAFB6F0133FB67FB6F012BB6DD07F1DE
:400240000C03184602F050FA012002F0C1FC35E76C81FF1FF04E000000803B45F84E000000006040000024400C4F000080B582B000AF786039603A680021786804F009FADA
:4002800000BF0837BD4680BD80B584B000AFF860B9607A607A68B968F86804F0EFF900BF1037BD4680BD00BF80B584B000AFF860B9607A607A68B968F86804F0DFF900BF08
:4002C0001037BD4680BD00BF80B483B000AF0346FB71FEE780B487B000AF7860396000233B6100237B6127E07B699B007A6813441B68BB60BB68FB73BB6823F0FF03BB607E
:4003000014E03B695B003A6813441B781A46BB68134419463B695B003A6813445B780B703B6901333B61FB7B013BFB73FB7B002BE7D17B6901337B617B69242BD4D900BF3F
:400340001C37BD4680BC704780B582B000AF334B19221A80324B1C221A70324B19221A80314B19221A70314B06221A70304B52221A70304B304A1278D2B21A702F4B4FF402
:40038000E2621A802E4B41F251221A800023FB7019237B6014E0FB785B00DAB2294B1B78DBB203F00103DBB21343DBB203F00303FB704FF4F07003F033FA7B68013B7B6097
:4003C0007B68002B02D0FB78032BE4D17B68002B02D10320FFF778FF1B4B4FF480721A80194B07221A70194B00221A70184B48221A70154B00221A70164B00221A70164B29
:4004000002221A70154A154B1B78DBB243F00303DBB2137000BF0837BD4680BD804000408240004084400040864000400043004000420040A14600400F0100492242004073
:4004400020420040254200400440004006400040084000400940004001400040A243004080B582B000AF1F4B1B78FB711E4B1B78BB711E4B1B787B711D4AFB7903F007030B
:40048000DBB213701B4AFB791B09DBB21370164ABB7943F00303DBB21370144A7B7943F00303DBB21370144B03221A70134B40221A70134B40221A70124B30221A70124B6F
:4004C00020221A700A2002F0A5FB084A7B791370054ABB7913700D4B44221A7000BF0837BD4680BDCF010049F8460040F94600406E5800406F5800403D510040095900408C
:400500000B590040285B00402B5B00407658004080B582B000AF72B6414A414B1B78DBB243F00403DBB213700023FB7113E0FA7913465B0013445B003A4A13443B603B684D
:400540001A683B689B889BB219461046FFF78EFEFB790133FB71FB79072BE8D932493348FFF7B8FE04213248FFF780FE042231493148FFF799FE314A304B1B78DBB243F090
:400580000203DBB213702E4A2D4B1B78DBB243F00203DBB213702B4A2A4B1B78DBB243F04003DBB21370284A274B1B78DBB243F01003DBB21370082224492548FFF774FE78
:4005C0000A2224492448FFF76FFE0A2223492448FFF76AFE082223492348FFF765FE0A2222492348FFF760FE224A224B1B78DBB243F00803DBB213701F4B60221A70FFF7CE
:40060000A3FE1D4BC0221A70FFF72AFF0E220D491A48FFF739FE00BF0837BD4680BD00BFE8460040244F0000E84F0000544F000000760040185700000876004003500140E2
:4006400013500140A0430040C24300401C5700000251004024570000C051004030570000F05100403C5700001251004044570000305100402243004000480040B0430040A2
:4006800080B500AF03F0CEFF03461B680C2B00D1FEE7FEE780B584B000AF78600F4B1A687B6813441A460E4BD31A802B09DC0B4B1B68FB60094B1A687B681344074A1360B4
:4006C00007E003F0AFFF02460C2313604FF0FF33FB60FB6818461037BD4680BDCC80FF1F6082FF1F80B586B000AF224B7B61224B3B61204B7B6135E03B691B68FB603B691C
:400700005B68BB603B699B683B6000237B600CE0FB681A68BB681A60BB680433BB60FB680433FB607B6804337B607A683B689A42EED13B69DB683B6000237B6008E0BB6823
:4007400000221A60BB680433BB607B6804337B607A683B689A42F2D13B6910333B617B69013B7B617B69002BC6D103F061FFFFF789FCFEE701000000F058000080B582B0C7
:4007800000AF194B194A1A60194A194B1B6843F40073136000237B600FE07B68032B04D8144A7B6852F8233000E0134B13497A6841F822307B6801337B607B682F2BECD92F
:4007C0000F4B1B78DAB20F4B1A700F4B0B4A1A60FFF79EFE01F0D4FF0C4B00221A6000BF0837BD4680BD00BF0CED00E00004FA0514ED00E000000000810600000080FF1F4B
:40080000BC760040C480FF1F08ED00E0C080FF1F80B582B000AF03460A46FB711346BB71094B1B78002B04D100F010F8064B01221A70BA79FB791146184600F0C5F800BF6C
:400840000837BD4680BD00BF6F81FF1F80B582B000AF03F004F80346FB714C4A4B4B1B78DBB243F00103DBB21370494A484B1B78DBB243F00103DBB21370464B01221A7014
:40088000454B02221A70454A444B1B78DBB203F07F03DBB21370002002F0BCF9404A404B1B78DBB223F00603DBB213703D4A3D4B1B78DBB223F02003DBB21370384A384B95
:4008C0001B78DBB243F00103DBB21370012002F0A1F9282002F09EF9334A334B1B78DBB203F07F03DBB213702F4A2F4B1B78DBB223F04003DBB21370294A294B1B78DBB2F3
:4009000043F00203DBB21370022002F083F9244A234B1B78DBB243F00403DBB21370234B00221A70224B00221A70FB79184602F09AFF0721172002F0A9F91E49172002F086
:400940007DF90721182002F0A1F91B49182002F075F90721152002F099F91849152002F06DF90721012002F091F91549012002F065F907210C2002F089F912490C2002F075
:400980005DF900BF0837BD4680BD00BFA5430040B54300409D60004009600040106000409443004012600040F851004084600040856000403D130000C50C000031130000EE
:4009C000E91200000517000080B584B000AF03460A46FB711346BB710023FB7306E0FB7B304A0121D154FB7B0133FB73FB7B002BF5D02D4AFB7913702C4B00221A702C4B0A
:400A000000221A702B4B00221A702B4B00221A702A4B00221A702A4B00221A70294B00221A70294B4FF400021A60274B4FF080721A60254B4FF400121A60234B02221A60C9
:400A4000BB79002B02D0012B09D011E01F4A1F4B1B78DBB223F00103DBB2137011E01B4A1A4B1B78DBB243F00103DBB2137008E0164A164B1B78DBB243F00103DBB2137003
:400A800000BF134B03221A70124B80221A70012002F0C6FE104B04221A7000BF1037BD4680BD00BF3082FF1F9C81FF1FB381FF1FB281FF1FAC81FF1FB181FF1F9D81FF1F75
:400AC0002582FF1F9081FF1F00E100E00960004028600040086000401260004080B483B000AF0023FB7106E0FB79144A0121D154FB790133FB71FB79002BF5D0104B0022DD
:400B00001A70104B00221A700F4B00221A700F4B00221A700E4B00221A700E4B00221A700D4B00221A700D4B03221A700C4B80221A7000BF0C37BD4680BC70473082FF1FB8
:400B4000B381FF1FB281FF1FAC81FF1FB181FF1F9D81FF1F2582FF1F9081FF1F286000400860004080B400AF034B1B78DBB21846BD4680BC704700BFAC81FF1FB0B485B04F
:400B800000AF03463960FB711346BB80FB79002B6DD0FB79082B6AD8B988FA79364813465B0013449B00034406331B889BB2C3F5007399420CD9FA792F4913465B001344B6
:400BC0009B000B4406331B889BB2C3F50073BB802A4CF979BB881B0A9BB2D8B2FA79264D13465B0013449B002B4403331B78DBB20343DAB20B0123441A70204AFB79B98816
:400C0000C9B21B01134401330A461A703B68002B13D00023FB810CE01948FB79FA8939680A4412781B01034408331A70FB890133FB81FA89BB889A42EED3FA790E491346C9
:400C40005B0013449B000B44013300221A700B48F979FA79084C13465B0013449B00234405331B78DAB20B01034402331A7000BF1437BD46B0BC7047B481FF1FFC5F0040D8
:400C80007060004080B485B000AF0346FB710023FB73FB79002B0CD0FB79082B09D8084AFB791B01134402331B78DBB203F01003FB73FB7B18461437BD4680BC704700BFED
:400CC000FC5F004080B582B000AF374B1B78BB71BB7903F01003002B62D00123FB7197F90630002B12DABB7903F00F03012B02D00023FB711CE000F061F82C4B1B78DBB25C
:400D00005BB2002B14DA0023FB7111E0BB7903F04003002B02D000F095F809E0BB7903F02003002B02D000F0B3F801E00023FB71FB79002B34D01C4B1B78BB7197F906305F
:400D4000002B2DDB1A4B1B78DAB21A4B1B78DBB21343BB71184ABB791370174B1B78DBB2BA799A421CD1114B1B78FB710E4B1B78DBB223F07F03BB71BB79002B0AD10A4BFA
:400D80000A4A1278D2B21A70074B1B78DBB203F00F03FB71054B1B78DBB2FA799A42E2D100BF0837BD4680BD286000409F81FF1F2082FF1F9E81FF1F2960004080B582B081
:400DC00000AF1D4B1B78FB711B4AFB7913701A4B1B78FB7197F90730002B03DA174AFB79137025E0022000F045FA154B1B78DBB203F06003202B08D0402B0BD0002B0ED157
:400E000000F086FC0346FB710CE002F033FD0346FB7107E001F0C2FB0346FB7102E00023FB7100BFFB79002B02D1044B03221A7000BF0837BD4680BD286000409F81FF1F9A
:400E40000060004080B500AF104B1B78DBB2062B19D801A252F823F0870E0000870E0000750E0000870E00007B0E0000870E0000810E000000F0F8F806E000F0A7F903E029
:400E800000F0D2F900E000BF00BF80BDB381FF1F80B500AF124B1B78DBB2062B1DD801A252F823F0DB0E0000DB0E0000C10E0000DB0E0000C70E0000DB0E0000CD0E0000E0
:400EC00000F0D8F80AE000F027F907E0032000F0D1F9044B03221A7000E000BF00BF80BDB381FF1F9F81FF1F80B483B000AF0023FB71294B1B78DBB29AB2284B1B889BB263
:400F000013449AB2254B1A8015E02549FB79254A52681278D2B2CA54224B5B680133214A5360FB790133FB711E4B1B889BB2013B9AB21C4B1A801B4B1B889BB2002B02D00D
:400F4000FB79072BE1D9144B1B78DBB2082B02D0FB79002B0FD0144B1B78DBB283F07F03DB43DAB2104B1A70104B0F221A70104B02221A7005E00D4B02221A700C4B022287
:400F80001A700C4AFB791370034AFB79137000BF0C37BD4680BC70479081FF1F9281FF1F00600040A081FF1F2082FF1F9F81FF1FB381FF1F9E81FF1F80B582B000AF164BDB
:400FC0001B889BB2002B02D100F02EF81EE0134B02221A70124B00221A7000F06BF9114BDB79DBB29BB21B029AB20E4B9B79DBB29BB21343FB80084B1B889BB2FA889A42DA
:4010000002D2054AFB881380FFF76EFF012318460837BD4680BD00BFA081FF1FB381FF1F2082FF1F0060004080B400AF094B02221A70094B80221A70084B0F221A70084B9D
:4010400000221A70074B00221A7001231846BD4680BC7047B381FF1F2082FF1F9F81FF1F9081FF1F9E81FF1F80B500AFFFF73CFF00BF80BD80B500AF0A4B1B78DBB29AB2DC
:40108000094B1B889BB213449AB2074B1A80074B00221A70012000F0EDF8054B03221A7000BF80BD9081FF1F9281FF1FB381FF1F9F81FF1F80B582B000AF124B04221A705B
:4010C000114B80221A7000F0F5F8104BDB79DBB29BB21B029AB20D4B9B79DBB29BB21343FB800B4B1B889BB2FA889A4202D2084AFB881380074B0B221A70012318460837D8
:40110000BD4680BDB381FF1F2082FF1F00600040A081FF1F9F81FF1F80B483B000AF0023BB71234B1B78DBB203F00F03DBB2023BFB71FB799AB21F4B1B889BB213449AB255
:401140001C4B1A8018E01C4B5B681C49BA798A5CD2B21A70184B5B680133174A5360BB790133BB71FB79013BFB71134B1B889BB2013B9AB2104B1A800F4B1B889BB2002B62
:4011800002D0FB79002BDED10D4AFB7913700D4B1B78DBB283F07F03DB43DAB2094B1A70094B0B221A7000BF0C37BD4680BC7047296000409281FF1FA081FF1F00600040F0
:4011C0009E81FF1F2082FF1F9F81FF1F80B500AF054B00221A70012000F04CF8034B03221A7000BF80BD00BFB381FF1F9F81FF1F80B400AF084B06221A70084B06221A704A
:40120000074B80221A70074B00221A7001231846BD4680BC704700BFB381FF1F9F81FF1F2082FF1F9E81FF1F80B500AF0D4B1B78DBB2002B0AD00C4A0A4B1B78DBB263F0EF
:401240007F03DBB21370074B00221A70074B00221A70012000F00EF8054B03221A7000BF80BD00BF9D81FF1F08600040B381FF1F9F81FF1F80B483B000AF0346FB710B4B7A
:401280009B68002B0CD0094B9B68FA791A70074B9B68074A128892B25A80044B00229A6000BF0C37BD4680BC704700BFA081FF1F9281FF1F80B400AF094B00221A80094B99
:4012C0009B68002B07D0074B9B6800221A70054B9B6800225A8000BFBD4680BC704700BF9281FF1FA081FF1F80B400AF0D4B01221A700D4B9B7C0D4B1B7BDBB203F00303EA
:40130000012B08D0094BDB7BDBB283F07F03DB43DAB2064BDA73054B01225A7300BFBD4680BC70470B600040FC5F0040B481FF1F80B400AF00BFBD4680BC704780B500AF2B
:40134000FFF7CCFB00BF80BD80B582B000AF0023FB71714B1B79BB716F4B1B78DBB25BB2002B6CDA6C4B5B78DBB2013B052B00F2BE8001A252F823F0DB130000F513000092
:401380001F140000EF140000EF14000091130000614BDB78DBB2212B0CD100F0C7F85F4B1B889BB2002B00F0A480FFF705FE0346FB719EE0584BDB78DBB2222B40F09980CE
:4013C00000F0F2F8554B1B889BB2002B00F09180FFF7F2FD0346FB718BE000F02DF94F4B1B889BB2002B00F08680FFF7E5FD0346FB7180E0BB79002B7FD1474B9B78DBB2C3
:40140000002B7AD1454B01221A80BB79444A1344424A5360FFF7D0FD0346FB716DE0BB79002B6CD13D4B01221A80BB793D4A13443A4A5360FFF7C0FD0346FB715FE0364B7A
:401440005B78DBB20A2B10D00B2B3DD0092B00D05CE000F0F1F8314B1B889BB2002B50D0FFF728FE0346FB714BE0BB79002B4AD1294B9B78DBB2002B45D1BB79264AD2782B
:40148000D1B2274AD154BB79254AD35CDAB2BB792549CB5CDBB29A4204D2BB79224A0021D1540CE0BB79204AD35CDBB2012B06D9BB79BA791A498A5CD1B21B4AD154FFF7C3
:4014C00097FE0346FB711EE0BB79002B1DD1124B9B78DBB2012B18D8BB790F4A9278D1B2104AD154FFF784FE0346FB710DE000BF0CE000BF0AE000BF08E000BF06E000BF2C
:4015000004E000BF02E000BF00E000BFFB7918460837BD4680BD00BF00600040A081FF1F2C82FF1F3082FF1F2882FF1F80B584B000AF194B1B78DBB2013BDBB2184600F0C2
:4015400075FEF860154B1B79FB72FB7A0233DB00FA681344FB60FB685B68FB60FB7A104AD35CDBB2DB00FA681344FB60FB685B68FB60FB682033FB60FB685B687B607B6835
:401580001B78DBB29AB2074B1A80064A7B68536000BF1037BD4680BDAC81FF1F006000409481FF1FA081FF1F80B584B000AF1E4B1B78DBB2013BDBB2184600F037FEF86005
:4015C0001A4B1B79FB72FB7A0233DB00FA681344FB60FB685B68FB60FB7A154AD35CDBB2DB00FA681344FB60FB685B68FB60FB681833FB60FB685B687B607B6801331B78B7
:40160000DBB29BB21B029AB27B681B78DBB29BB213439AB2074B1A807B680233054A536000BF1037BD4680BDAC81FF1F006000409481FF1FA081FF1F80B584B000AF2D4B3C
:4016400000221A802C4B1B78DBB2013BDBB2184600F0ECFDF860294BDB78FB72274B1B79BB72BB7A0233DB00FA681344FB60FB685B68FB60BB7A002B38D1BB7A204AD35C47
:40168000DBB2DB00FA681344FB60FB685B68FB60FB7A002B2AD0FB7A032B27D8FB7A03F10053013BDB00FA681344FB60134B9B78FB72FB681B78FA7A9A4217D8FB685B68D1
:4016C0007B60FA7A13465B0013449B001A467B6813447B607B685B68064A53607B681A88044B1A807B689B68024A936000BF1037BD4680BDA081FF1FAC81FF1F00600040D4
:401700009481FF1F80B500AF01F010F800BF80BD80B586B000AF0023FB75A74B1B78FB7100233B61A54B00221A8097F90730002B80F2EC80A04B5B78DBB20A2B00F20082D0
:4017400001A252F823F000BF63180000411B0000411B0000411B0000411B0000411B000075170000411B0000D7180000411B0000ED180000904BDB78DBB2012B0ED100F075
:401780007DFDB860BB685B688C4A53608B4B12221A80FFF711FC0346FB75D3E1864BDB78DBB2022B25D1844B9B78DBB2184600F03DFDB860BB68002B00F0C481BB685B68C8
:4017C0007E4A53607D4B5B6803331B78DBB29BB21B029AB2794B5B6802331B78DBB29BB213439AB2754B1A80FFF7E6FB0346FB75A8E1714BDB78DBB2032B2DD10023FB7340
:401800006F4B3B6109E03B691B78BB71BB793A6913443B61FB7B0133FB73674B9B78DBB2FA7B9A4204D23B691B78DBB2002BEAD13B691B78DBB2002B00F084813B691B78E6
:40184000DBB29AB25D4B1A805C4A3B695360FFF7B3FB0346FB7575E102F00CF80346FB7570E1FB7903F00303002B20D0022B00D030E0524B02221A804F4B1B79DBB203F0FF
:401880007F02504913465B0013449B000B4402331B78DAB24C4B1A704B4B00225A70474B494A5A60FFF788FB0346FB7512E0434B02221A80454B1B78DAB2434B1A70424B7F
:4018C00000225A703D4B404A5A60FFF775FB0346FB7500BF3DE1394B01221A80374B3C4A5A60FFF769FB0346FB7532E1334B01221A80314B1B79DBB21A46364B13442F4A82
:401900005360FFF759FB0346FB7522E12A4B5B78DBB2013B0A2B00F2178101A252F823F0251A0000491B0000B31A0000491B00004D190000491B0000491B0000491B0000B8
:4019400061190000491B0000E11900001A4B9B78DAB2214B1A70FFF74BFC0346FB75F8E0154B9B787B717B79002B06D07B79013BDBB2184600F05AFCB8607B79002B02D009
:40198000BB68002B03D17B79002B40F0DF80104B1B78DBB27A799A4208D00D4A7B7913700E4B01221A70012000F082F9FFF720FC0346FB75CAE000BF00600040A081FF1FC2
:4019C00088570000B481FF1F7081FF1F2582FF1FAC81FF1F9481FF1F9D81FF1FB281FF1F00F0A4FD0346002B00F0B2805B4B1B793B715A4B1B79DAB2594B1A703B79594A7F
:401A0000D35CDAB23B795849CB5CDBB29A4204D0564B01221A7000F0DBFAFFF7E9FB0346FB7595E0FB7903F00303012B20D0012B0CD3022B00D03BE0484B9B78DBB2002B0D
:401A400031D100F0C7FC0346FB752CE0434B9B78DBB2012B29D1464B1B78DBB223F00203DAB2434B1A70FFF7C3FB0346FB751CE03A4B1B79DBB2002B19D1384B9B78DBB2E4
:401A8000DB43DBB2354A1279D2B211461046394A125CD2B21340DAB2364B5A54FFF7A8FB0346FB7503E000BF53E000BF51E000BF4FE0FB7903F00303012B20D0012B0CD324
:401AC000022B00D03BE0254B9B78DBB2002B31D100F00CFC0346FB752CE0204B9B78DBB2012B29D1224B1B78DBB243F00203DAB21F4B1A70FFF77CFB0346FB751CE0174BDA
:401B00001B79DBB2002B19D1144B9B78DBB2DB43DBB2124A1279D2B211461046154A125CD2B21340DAB2134B5A54FFF761FB0346FB7503E000BF0CE000BF0AE000BF08E088
:401B400000BF06E000BF04E000BF02E000BF00E000BFFB7D18461837BD4680BD00600040B181FF1FB081FF1F9481FF1FB281FF1F2582FF1F2482FF1F90B482B000AF012324
:401B8000FB7180E0464AFB791B0113440C221A70FA79444913465B0013449B000B4405331B78DBB2002B1CD0FA793E4913465B0013449B000B4404331B78DBB25BB2002B48
:401BC00007DA394AFB791B01134402330C221A700EE0354AFB791B011344023308221A7006E0314AFB791B011344023380221A702B48F979FA792B4C13465B0013449B0052
:401C0000234406331B889BB2DAB20B01034406331A702348F979FA79224C13465B0013449B00234406331B889BB21B0A9BB2DAB20B01034407331A701948F979FA79194CBE
:401C400013465B0013449B00234406331B889BB2DAB20B01034404331A701148F979FA79104C13465B0013449B00234406331B889BB21B0A9BB2DAB20B01034405331A70AB
:401C8000FB790133FB71FB79082B7FF67BAF074BFF221A7000BF0837BD4690BC704700BF70600040B481FF1FFC5F00400A60004080B588B000AF0346FB7100237B8300234D
:401CC000FB7747E0FA7FA94913465B0013449B000B4400221A70FA7FA44913465B0013449B000B44023300221A70FA7F9F4913465B0013449B000B44033300221A70FA7F52
:401D00009A4913465B0013449B000B44083300221A80FA7F954913465B0013449B000B440A3300221A70FA7F904913465B0013449B000B44013300221A70FA7F8B491346D2
:401D40005B0013449B000B44053300221A70FB7F0133FB77FB7F082BB4D9FB79002B10D000237B770AE07B7F814A0021D1547B7F804A0021D1547B7F01337B777B7F002BB1
:401D8000F1D07D4B1B78DBB2002B00F01A817A4B1B78DBB2013BDBB2184600F047FA38613B695B68FB60FB6807331B7803F04003002B08D0714B1B78DBB243F00103DAB224
:401DC0006E4B1A7007E06D4B1B78DBB223F00103DAB26A4B1A703B6908333B613B691B78FB7701237B7794E03B695B687B610023BB7786E07A7F7B699B7803F07F039A4212
:401E000079D17A7F594913465B0013449B000B4408331B889AB27B699B889A420BD27A7F7B699888514913465B0013449B000B44083302461A807B691B781A464C4B9B5CD0
:401E4000DAB27B695B789A4255D17A7F7B699878464913465B0013449B000B44043302461A707A7F7B69D878404913465B0013449B000B4402461A707B69DB7803F00303F6
:401E8000FB727B699B785BB2002B1ADA7A7FFB7A012B01D1072000E00D20344913465B0013449B000B44053302461A707A7F2F4913465B0013449B000B44013301221A702F
:401EC00019E07A7FFB7A012B01D1052000E00920264913465B0013449B000B44053302461A707A7F214913465B0013449B000B44013300221A707B6908337B61BB7F013340
:401F0000BB77BA7FFB7F9A42FFF474AF7B7F01337B777B7F082B7FF667AF3B695B687B6100237B7714E07B699B7803F07F027B6918780E4913465B0013449B000B440A333E
:401F400002461A707B6908337B617B7F01337B777A7FFB7F9A42E6D300F0A2F90246084B1A6000237B830123FB7725E0B481FF1F9481FF1FB081FF1FAC81FF1F2582FF1F2B
:401F80009881FF1FFA7F114913465B0013449B000B4406337A8B1A80FA7F0C4913465B0013449B000B4408331B889AB27B8B13447B83FB7F0133FB77FB7F082BE2D9FFF784
:401FC000DBFD00BF2037BD4680BD00BFB481FF1F90B585B000AF8F4B1B78DBB2002B00F015818C4B1B78DBB2013BDBB2184600F01DF978607B6808337B607B681B78FB70F7
:402000007B685B68BB60844B1B78BB700023FB73F7E0BB681B78BA789A4240F0EC80BB787E4AD35CDAB2BB685B789A4240F0E380BB689B7803F07F037B70BB68DB7803F070
:4020400003033B707A78764913465B0013449B000B44033300221A707A78BB689878704913465B0013449B000B44043302461A707A78BB68D8786A4913465B0013449B008D
:402080000B4402461A707A78BB689888644913465B0013449B000B44083302461A80BB689B785BB2002B1ADA7A783B78012B01D1072000E00D205A4913465B0013449B0089
:4020C0000B44053302461A707A78554913465B0013449B000B44013301221A7019E07A783B78012B01D1052000E009204C4913465B0013449B000B44053302461A707A78D1
:40210000474913465B0013449B000B44013300221A70444A7B781B011344023301221A70404879787A783E4C13465B0013449B00234408331B889BB21B0A9BB2DAB20B012D
:4021400003441A70374879787A78354C13465B0013449B00234408331B889BB2DAB20B01034401331A70304879787A782C4C13465B0013449B00234406331B889BB2DAB241
:402180000B01034406331A70274879787A78244C13465B0013449B00234406331B889BB21B0A9BB2DAB20B01034407331A701E4879787A781A4C13465B0013449B00234440
:4021C00006331B889BB2DAB20B01034404331A70154879787A78124C13465B0013449B00234406331B889BB21B0A9BB2DAB20B01034405331A70BB680833BB60FB7B01330C
:40220000FB73FA7BFB789A42FFF403AF00BF1437BD4690BDAC81FF1FB181FF1F9481FF1FB481FF1FFC5F00407060004080B485B000AF0346FB710F4B1B78DBB20E4ADB0027
:4022400013445B68FB60FB681033FB60FB681B78FA799A4202D30023FB6005E0FB79DB00FA6813445B68FB60FB6818461437BD4680BC70479C81FF1F8C58000080B400AF41
:40228000054B1B78DBB2054ADB0013445B681846BD4680BC704700BF9C81FF1F8C58000080B584B000AF104B1B78DBB2013BDBB21846FFF7BBFFB860BB68002B0DD0BB6868
:4022C0005B681B79FB71FB790233DB00BA681344BB60BB685B68FB6001E00023FB60FB6818461037BD4680BDAC81FF1F80B582B000AF0023FB71344B1B79DBB203F07F0316
:40230000BB71BB79002B5AD0BB79082B57D8BA79B9792E480B465B000B449B00034402331B78DBB243F00103D8B2284913465B0013449B000B44023302461A70BA79234978
:4023400013465B0013449B000B44033300221A70BA79B9791D480B465B000B449B00034401331B78DBB243F00203D8B2174913465B0013449B000B44013302461A70BA793B
:40238000124913465B0013449B000B4404331B78DBB25BB2002B07DA0D4ABB791B01134402338D221A7006E0094ABB791B011344023389221A70FEF71BFF0346FB71FB796F
:4023C00018460837BD4680BD00600040B481FF1FFC5F004080B582B000AF0023FB71504B1B79DBB203F07F03BB71BB79002B00F09280BB79082B00F28E80BA79B9794948B2
:402400000B465B000B449B00034402331B78DBB223F00103D8B2434913465B0013449B000B44023302461A70BA793E4913465B0013449B000B44033300221A703A49BB79F9
:402440003948BA79120102441278D2B202F07F02D2B21B010B441A70BA79B97931480B465B000B449B00034401331B78DBB223F00203D8B22B4913465B0013449B000B443B
:40248000013302461A70BA79264913465B0013449B000B4404331B78DBB25BB2002B1BDABA79204913465B0013449B000B4401331B78DBB2012B07D11B4ABB791B01134406
:4024C00002330C221A7022E0174ABB791B01134402330D221A701AE0BA79124913465B0013449B000B4401331B78DBB2012B07D10D4ABB791B011344023308221A7006E055
:40250000094ABB791B011344023309221A70FEF76FFE0346FB71FB7918460837BD4680BD00600040B481FF1FFC5F004080B584B000AF0023FB73154B1B79BB73144B1B7804
:40254000DBB2013BDBB21846FFF770FEB860BB685B681B79FB71BA7BFB799A4202D9BB7B012B0ED8BB7BBA7B0A498A5CD1B20A4AD154BB7B054A9278D1B2064AD154012352
:40258000FB73FB7B18461037BD4680BD00600040AC81FF1F9481FF1FB081FF1F80B483B000AF0023FB71094B1B78DBB25BB2002B06DA064B5B78DBB2012B00D000E000BF68
:4025C000FB7918460C37BD4680BC70470060004080B400AF054B1B78DBB203F004039B08DBB21846BD4680BC704700BF3151004080B500AF064B1B78002B04D100F00AF824
:40260000034B01221A7000F025F800BF80BD00BF7281FF1F80B400AF094B72221A70094B20221A70084B06221A70084B47221A70074B00221A7000BFBD4680BC704700BF94
:40264000826400408665004022640040326400408164004080B582B000AF01F000F90346FB71114A104B1B78DBB243F02003DBB213700E4A0D4B1B78DBB243F01003DBB2B4
:4026800013700B4A0A4B1B78DBB243F01003DBB2137000F05BF8FB79184601F0E4F800BF0837BD4680BD00BF92640040966500409164004080B483B000AF0346FB7100BF68
:4026C000074B1B78DBB203F00403002BF8D1054AFB79137000BF0C37BD4680BC704700BF616400404164004080B584B000AF78600023FB810C4B1B78002B10D009E0FB89A2
:402700007A6813441B781846FFF7D4FFFB890133FB81FB897A6813441B78002BEFD100BF1037BD4680BD00BF7281FF1F80B400AF054B1B78DBB203F040039B09DBB2184609
:40274000BD4680BC704700BF8F45004080B400AF094A094B1B78DBB243F00203DBB21370064A064B1B78DBB243F00203DBB2137000BFBD4680BC7047A2430040B243004086
:4027800080B483B000AF134B7F221A70124B80221A707F23FB710CE0FB79DB0003F1804303F5F043FA79013AD2B21A70FB79013BFB71FB79002BEFD1FB79DB0003F1804389
:4027C00003F5F04300221A7000BF0C37BD4680BC704700BFD180FF1FD080FF1F80B485B000AF03460A46FB711346BB710123FB60FB79172B2FD8BB79002B0ED0FB791A01C4
:40280000184B1344FA791101164A0A441278D2B242F02002D2B21A700DE0FB791A01114B1344FA7911010F4A0A441278D2B222F02002D2B21A70FB791A010A4B1344FA79E2
:402840001101084A0A441278D2B242F00102D2B21A700023FB60FB6818461437BD4680BC704700BF1070004080B485B000AF0346FB710123FB60FB79172B1DD8FB791A01D0
:40288000104B1344FA7911010E4A0A441279D2B242F00402D2B21A71FB791A01094B1344FA791101074A0A441278D2B242F00102D2B21A700023FB60FB6818461437BD46A9
:4028C00080BC70471070004080B485B000AF03460A46FB711346BB710123FB60FB79172B1BD8FB791A01104B13441B78DBB223F00E03FB72FB791A010B4B1344BA795200A8
:40290000D2B252B202F00E0251B297F90B200A4352B2D2B21A700023FB60FB6818461437BD4680BC704700BF1070004080B485B000AF0346FB710B46BB8013467B80012320
:40294000FB60BB8841F6FF72934202D14FF40053BB807B8841F6FF72934202D14FF400537B80FB79172B17D8FB79DB0003F1804303F5EC430433BB60BB68BA881A80FB791D
:40298000DB0003F1804303F5EC430633BB60BB687A881A800023FB60FB6818461437BD4680BC704780B485B000AF03460A46FB711346BB710123FB60FB79172B07D8FB79A1
:4029C0001A01064B1344BA795A720023FB60FB6818461437BD4680BC704700BF1070004090B484B000AF0446084611461A462346FB710346BB710B467B7113463B710123F0
:402A0000FB60FB79172B34D8FB79DB0003F1804303F5EC43BA7902F07F02D1B27A79D201D2B20A43D2B21A70FB79DB0003F1804303F5EC433A7E1201D1B23A7902F00F024D
:402A4000D2B20A43D2B25A70FB79DB0003F1804303F5EC433A7F02F00F02D2B29A70FB79DB0003F1804303F5EC430022DA700023FB60FB6818461037BD4690BC704700BFDC
:402A800080B582B000AFFF23FB7100F0E8FE0346BB71104B1B78182B12D90F4B1B78FB710C4B1B78013BDAB20A4B1A70FB79DB0003F1804303F5F0431B78DAB2064B1A70F6
:402AC000BB79184600F0CFFEFB7918460837BD4680BD00BFD080FF1FD180FF1F90B484B000AF0446084611461A462346FB710346BB800B46BB711346FB700123FB6097F97B
:402B00000730002B23DBBB8823F47F6323F00F039BB2002B1BD1FB79DB0003F1804303F5F043BB60BB68BA881A80FB79DB0003F1804303F5F043BA799A70FB79DB0003F174
:402B4000804303F5F043FA78DA700023FB60FB6818461037BD4690BC704700BF80B485B000AF0346FB710B46BB8013467B800123FB6097F90730002B17DBFB79DB0003F10D
:402B8000804303F5F0430433BB60BB68BA881A80FB79DB0003F1804303F5F0430633BB60BB687A881A800023FB60FB6818461437BD4680BC704700BF80B483B000AF0346F4
:402BC000FB7101BE00BF0C37BD4680BC704700BF80B582B000AF786008E00C4B1B68184600F01EFE7B68A3F500437B607B68B3F5004FF2D8064B1B687A6802FB03F3184695
:402C000000F00EFE00BF0837BD4680BDE480FF1FDC80FF1F80B582B000AF0346FB80FB88054A127802FB03F3184600F0F9FD00BF0837BD4680BD00BFE080FF1F80B584B00D
:402C400000AF03463960FB710F4B1B68FB60FB791F2B02D90020FFF7AFFFFB7903F01F0310339B00FA6813441B68BB60FB7903F01F0310339B00FA6813443A681A60BB68A5
:402C800018461037BD4680BD08ED00E080B582B000AF03460A46FB711346BB71BB79072B02D90020FFF788FFFB791F2B02D90020FFF782FFFB7903F01F0303F1604303F594
:402CC0006443BA795201D2B21A7000BF0837BD4680BD00BF80B500AF144B02221A70144B81221A70134B08221A70134B1E221A70124B00221A70124B4FF400421A60072158
:402D00000F20FFF7C3FF0F490F20FFF797FF0E4B10221A700D4B00221A700D4B00221A700C4B00221A7000BF80BD00BFD6490040C8490040CA490040DB490040DC490040F2
:402D400080E100E0D12D00003182FF1F3682FF1F3E82FF1F3482FF1F80B582B000AF00F07EFD0346FB710C4A0B4B1B78DBB243F00403DBB21370094A084B1B78DBB243F076
:402D80000403DBB21370FB79184600F06CFD00BF0837BD4680BD00BFA5430040B543004080B500AF084B1B78002B04D1FFF792FF054B01221A70FFF7CFFF044B4FF400428E
:402DC0001A6000BF80BD00BF7481FF1F00E100E080B582B000AFA74B1B78FB71A64B1B78DBB203F04003DBB2002B00F0A981FB7903F00103002B00F080819F4B1B78DBB219
:402E0000453B052B00F2758101A252F823F000BF292E00004F2F0000F3300000F3300000292E00003B300000FB7923F02003FB71FB7903F00A03DBB2082B46D18E4B1B7891
:402E4000DBB2452B3AD18D4B1B78DBB2002B0FD08B4A8C4B1B681B78DBB21370854B04221A70894B01221A70834B46221A7044E1864B1B78DBB203F00203002B0FD0844BCE
:402E80001B78DBB243F00A03DAB2814B1A707A4B60221A707F4B4FF400421A602DE17E4A7D4B1B78DBB243F01003DBB213707B4B10221A706F4B04221A701EE16D4B00225D
:402EC0001A706D4B4A221A7017E1FB7903F00A03DBB20A2B37D16E4B1B78DBB263F05F03DAB26B4B1A70694B1B78DBB203F00203002B19D0604B1B78DBB203F00803002B36
:402F000001D0092300E00A23DAB2614B1B78DBB21343DAB25E4B1A70574B60221A705D4B4FF400421A60E8E05B4A5B4B1B78DBB243F01003DBB21370584B10221A704D4B45
:402F400004221A70D9E00020FFF736FED5E0FB7903F00203002B42D14B4B1B78DAB2474B1B78DBB29A4214D2454A464B1B6846490978C9B20B441B78DBB213703D4B042248
:402F80001A70414B1B78DBB20133DAB23E4B1A70B3E03E4B1B78DBB203F00203002B0FD03B4B1B78DBB243F00A03DAB2384B1A70314B60221A70374B4FF400421A609CE0C6
:402FC000354A354B1B78DBB243F01003DBB21370324B10221A70274B04221A708DE02B4B1B78DBB203F00203002B0FD0284B1B78DBB263F06503DAB2254B1A701E4B60223D
:403000001A70244B4FF400421A6076E0224A224B1B78DBB243F01003DBB213701F4B10221A70144B04221A70194B1B78DBB263F06F03DAB2164B1A705FE0194B1B68194A75
:403040001278D2B213440E4A1278D2B21A70154B1B78DBB20133DAB2124B1A70114B1B78DAB2114B1B78DBB29A421FD2014B10221A7042E0D74900403182FF1F3582FF1FE0
:40308000D84900404082FF1F3482FF1F3C82FF1F3682FF1F80E100E0D6490040D94900403882FF1F3E82FF1F3D82FF1F2C4B1B78DBB203F00203002B0FD02A4B1B78DBB286
:4030C00043F00903DAB2274B1A70274B60221A70264B4FF400421A600FE0254A244B1B78DBB243F01003DBB21370224B00221A7003E00020FFF760FD00BFFB7903F0200320
:40310000002B28D0184B1B78DBB203F00803002B01D0012300E00223DAB2124B1B78DBB21343DAB20F4B1A70114A114B1B78DBB223F01003DBB213700B4B10221A700AE0EE
:40314000094B1B78DBB203F01003DBB2002B02D1054B10221A7000BF0837BD4680BD00BF3C82FF1F3682FF1F3182FF1F80E100E0D6490040D749004080B485B000AF39600D
:4031800011461A460346FB710B46BB7113467B710223FB733B68002B59D0304B1B78DBB2102B0CD12E4B1B78DBB203F00803002B02D10023FB7315E00123FB7312E0274B93
:4031C0001B78DBB2602B0DD10023FB73254B4FF400421A60244B1B78DBB223F00803DAB2214B1A70FB7B002B31D11C4B49221A701E4B00221A701E4ABB7913701D4A3B68DA
:4032000013601D4A7B791370174B1B78DBB223F00103DAB2144B1A70184AFB795B00DBB243F00103DBB213707B7903F00103002B06D00B4B12221A70114B04221A7002E03C
:40324000074B01221A700F4B4FF400421A60FB7B18461437BD4680BC704700BF3182FF1FD949004080E200E03682FF1F3E82FF1F3D82FF1F3882FF1F3C82FF1FD849004007
:40328000D749004000E100E080B483B000AF0E4B4FF400421A600D4B1B78FB710C4B1B78DBB203F04003DBB2002B03D0FB7943F00403FB71074B4FF400421A60FB791846B3
:4032C0000C37BD4680BC704780E100E03682FF1F3182FF1F00E100E080B500AF41F6FF734FF480420121022000F010FA03461A460A4B1A7041F6FF7341F6FF7201210420FD
:4033000000F036FA03461A46054B1A70054800F061FA002000F070FA00BF80BD7C81FF1F7D81FF1FF934000080B582B000AF414B1B781846FFF798FA3F4B1B781846FFF7EC
:4033400093FA3E4B1B78FF2B05D1FFF799FB03461A463A4B1A70394B1878384B1A7806230421FFF7BBFB354B1B78354A92B245F6A2311846FFF7F2FB2E4B1A782F4B1B7802
:4033800019461046FFF70EFB2E4B1B78FF2B05D1FFF776FB03461A462A4B1A70294B1878284B1A7807230421FFF798FB254B1B78234A91B2244A92B21846FFF7CFFB1E4B71
:4033C0001A78204B1B7819461046FFF7EBFA194B1B7801211846FFF701FA174B1B7801211846FFF7FBF900F03AFA0346FB71174A164B1B78DBB243F02003DBB21370FB7951
:40340000184600F030FA124A114B1B78DBB243F00103DBB213700E4A0D4B1B78DBB243F00203DBB213700B4B01221A6000BF0837BD4680BD7C81FF1F7D81FF1FE880FF1FEF
:403440008081FF1FE980FF1F4482FF1F976400407765004080E200E080B500AF084B1B68002B04D1FFF738FF054B01221A6000F049F8FFF759FF034B1B7800BF80BD00BF3A
:403480007881FF1F6864004080B500AF00F0EEF800BF80BD80B485B000AF0346FB71074B1B78FB73FB7B002B02D1FB79002BF6D0FB7B18461437BD4680BC70476864004019
:4034C00080B483B000AF0346FB80FB88C3F10103074A32F913309AB2064B1B881BB29BB2D31A9BB21BB218460C37BD4680BC70474482FF1F4A82FF1F80B400AF00BFBD468D
:4035000080BC704780B500AF064B1B78002B04D100F00AF8034B01221A7000F01BF800BF80BD00BF8481FF1F80B500AF074A074B1B78DBB243F00603DBB21370082000F0F7
:403540006BF8034B00221A8000BF80BD095900405082FF1F80B582B000AF00F080F90346FB71254A244B1B78DBB243F00203DBB21370224A214B1B78DBB243F00203DBB219
:4035800013701F4B1B78BB71BB7943F00203BB71BB7943F00103BB71194ABB791370194B04221A70184A184B1B78DBB243F04003DBB21370144A144B1B78DBB223F00303A1
:4035C000DBB21370114BC8221A70114B02221A70104A104B1B78DBB243F00803DBB213700A20FFF717FBFB79184600F03CF900BF0837BD4680BD00BFAB430040BB4300402C
:403600000B5900400E5900400D59004008590040164600402F5B004080B584B000AF0346FB71FB790A2B07D00C2B02D0082B06D008E0C423FB730BE08423FB7308E04423A7
:40364000FB7305E0C423FB730020FFF7B5FA00BF054AFB7B1370FB79184600F017F800BF1037BD4680BD00BF0A59004080B400AF054A054B1B78DBB243F00103DBB2137074
:4036800000BFBD4680BC70470859004080B584B000AF0346FB71FB790A2B08D00C2B02D0082B08D00BE04FF48053FB600DE04FF48063FB6009E04FF48073FB6005E0002306
:4036C000FB600020FFF778FA00BF0C4B00221A80FB6842F2107202FB03F303F6BE23084A82FB0312D212DB17D31A064A1360064B00221A8000BF1037BD4680BD4882FF1F8A
:403700002939535F4C82FF1F4A82FF1F90B585B002AF0446084611461A462346FB710346BB710B46BB8013467B80104B01221A700E4B1878BA79F9790023019300230093F8
:403740000123FFF74DF9094B1B787A88B9881846FFF7ECF8054B1B7802211846FFF7B4F8024B1B7818460C37BD4690BDEA80FF1F90B585B002AF0446084611461A46234645
:40378000FB710346BB710B46BB8013467B80104B00221A700E4B1878BA79F97900230193002300930023FFF71BF9094B1B787A88B9881846FFF7BAF8054B1B780221184685
:4037C000FFF782F8024B1B7818460C37BD4690BDEB80FF1F80B485B000AF7860054B1B68FB60FB6840337A681A6000BF1437BD4680BC704708ED00E080B483B000AF03467B
:40380000FB71054AFB795B01DBB2137000BF0C37BD4680BC704700BF00E400E000000000142816D902B4012114381049097811F0C001890904B40E4A515C04BC00BF00BFFA
:4038400000BF8841FDD500BF00BF02BC704700BF00BF70F10400FCD570470B050709EFF3108072B6704780F310887047004800405A38000080B582B000AF0023BB711B4B78
:403880001B78DBB203F00303012B02D0022B04D012E0164B1B79FB7111E0144B1B79DBB203F07F02124913465B0013449B000B440A331B78FB7102E00023FB7100BFFB7988
:4038C000012B0ED80B4B1A68FB7913441B78032B04D1FDF739FD0346BB7102E00023BB7100BFBB7918460837BD4680BD00600040B481FF1F9881FF1F81F0004102E000BF60
:4039000083F0004330B54FEA41044FEA430594EA050F08BF90EA020F1FBF54EA000C55EA020C7FEA645C7FEA655C00F0E2804FEA5454D4EB5555B8BF6D420CDD2C4480EABC
:40394000020281EA030382EA000083EA010180EA020281EA0303362D88BF30BD11F0004F4FEA01314FF4801C4CEA113102D0404261EB410113F0004F4FEA03334CEA133350
:4039800002D0524263EB430394EA050F00F0A780A4F10104D5F1200E0DDB02FA0EFC22FA05F2801841F1000103FA0EF2801843FA05F359410EE0A5F120050EF1200E012AA5
:4039C00003FA0EFC28BF4CF0020C43FA05F3C01851EBE37101F0004507D54FF0000EDCF1000C7EEB00006EEB0101B1F5801F1BD3B1F5001F0CD349085FEA30004FEA3C0CD4
:403A000004F101044FEA445212F5800F80F09A80BCF1004F08BF5FEA500C50F1000041EB045141EA050130BD5FEA4C0C404141EB010111F4801FA4F10104E9D191F0000F7D
:403A400004BF01460020B1FA81F308BF2033A3F10B03B3F120020CDA0C3208DD02F1140CC2F10C0201FA0CF021FA02F10CE002F11402D8BFC2F1200C01FA02F120FA0CFC1E
:403A8000DCBF41EA0C019040E41AA2BF01EB0451294330BD6FEA04041F3C1CDA0C340EDC04F11404C4F1200220FA04F001FA02F340EA030021FA04F345EA030130BDC4F198
:403AC0000C04C4F1200220FA02F001FA04F340EA0300294630BD21FA04F0294630BD94F0000F83F4801306BF81F480110134013D4EE77FEA645C18BF7FEA655C29D094EA3C
:403B0000050F08BF90EA020F05D054EA000C04BF1946104630BD91EA030F1EBF0021002030BD5FEA545C05D14000494128BF41F0004130BD14F580043CBF01F5801130BD28
:403B400001F0004545F0FE4141F470014FF0000030BD7FEA645C1ABF194610467FEA655C1CBF0B46024650EA013406BF52EA033591EA030F41F4002130BD00BF90F0000FAE
:403B800004BF0021704730B54FF4806404F132044FF000054FF0000150E700BF90F0000F04BF0021704730B54FF4806404F1320410F0004548BF40424FF000013EE700BF66
:403BC00042004FEAE2014FEA31014FEA02701FBF12F07F4393F07F4F81F06051704792F0000F14BF93F07F4F704730B54FF4607401F0004521F0004120E700BF50EA010292
:403C000008BF704730B54FF000050AE050EA010208BF704730B511F0004502D5404261EB41014FF4806404F132045FEA915C3FF4DCAE4FF003025FEADC0C18BF03325FEA17
:403C4000DC0C18BF033202EBDC02C2F1200300FA03FC20FA02F001FA03FE40EA0E0021FA02F11444C1E600BF70B54FF0FF0C4CF4E06C1CEA11541DBF1CEA135594EA0C0F61
:403C800095EA0C0F00F0DEF82C4481EA030621EA4C5123EA4C5350EA013518BF52EA033541F4801143F4801338D0A0FB02CE4FF00005E1FB02E506F00042E0FB03E54FF06D
:403CC0000006E1FB03569CF0000F18BF4EF0010EA4F1FF04B6F5007F64F5407404D25FEA4E0E6D4146EB060642EAC62141EA55514FEAC52040EA5E504FEACE2EB4F1FD0CD8
:403D000088BFBCF5E06F1ED8BEF1004F08BF5FEA500E50F1000041EB045170BD06F0004646EA010140EA020081EA0301B4EB5C04C2BFD4EB0C0541EA045170BD41F480111F
:403D40004FF0000E013C00F3AB8014F1360FDEBF002001F0004170BDC4F10004203C35DA0C341BDC04F11404C4F1200500FA05F320FA04F001FA05F240EA020001F00042A2
:403D800021F0004110EBD37021FA04F642EB06015EEA430E08BF20EAD37070BDC4F10C04C4F1200500FA04F320FA05F001FA04F240EA020001F0004110EBD37041F10001F1
:403DC0005EEA430E08BF20EAD37070BDC4F1200500FA05F24EEA020E20FA04F301FA05F243EA020321FA04F001F0004121FA04F220EA020000EBD3705EEA430E08BF20EAAB
:403E0000D37070BD94F0000F0FD101F00046400041EB010111F4801F08BF013CF7D041EA060195F0000F18BF704703F00046520043EB030313F4801F08BF013DF7D043EAD9
:403E40000603704794EA0C0F0CEA135518BF95EA0C0F0CD050EA410618BF52EA4306D1D181EA030101F000414FF0000070BD50EA410606BF1046194652EA430619D094EACB
:403E80000C0F02D150EA013613D195EA0C0F05D152EA03361CBF104619460AD181EA030101F0004141F0FE4141F470014FF0000070BD41F0FE4141F4780170BD70B54FF09D
:403EC000FF0C4CF4E06C1CEA11541DBF1CEA135594EA0C0F95EA0C0F00F0A7F8A4EB050481EA030E52EA03354FEA013100F088804FEA03334FF0805545EA131343EA12634F
:403F00004FEA022245EA111545EA10654FEA00260EF000419D4208BF964244F1FD0404F5407402D25B084FEA3202B61A65EB03055B084FEA32024FF480104FF4002CB6EBAD
:403F4000020E75EB030E22BFB61A754640EA0C005B084FEA3202B6EB020E75EB030E22BFB61A754640EA5C005B084FEA3202B6EB020E75EB030E22BFB61A754640EA9C0016
:403F80005B084FEA3202B6EB020E75EB030E22BFB61A754640EADC0055EA060E18D04FEA051545EA16754FEA06164FEAC30343EA52734FEAC2025FEA1C1CC0D111F4801F5C
:403FC0000BD141EA00014FF000004FF0004CB6E711F4801F04BF01430020B4F1FD0C88BFBCF5E06F3FF6AFAEB5EB030C04BFB6EB020C5FEA500C50F1000041EB045170BD4B
:404000000EF0004E4EEA113114EB5C04C2BFD4EB0C0541EA045170BD41F480114FF0000E013C90E645EA060E8DE60CEA135594EA0C0F08BF95EA0C0F3FF43BAF94EA0C0FD3
:404040000AD150EA01347FF434AF95EA0C0F7FF425AF104619462CE795EA0C0F06D152EA03353FF4FDAE1046194622E750EA410618BF52EA43067FF4C5AE50EA41047FF4C1
:404080000DAF52EA43057FF4EBAE12E74FEA410212F5001215D211D56FF47873B3EB625212D94FEAC12343F0004343EA505311F0004F23FA02F018BF404270474FF00000BD
:4040C000704750EA013005D111F0004008BF6FF0004070474FF00000704700BF4A0011D212F5001211D20DD56FF47873B3EB62520ED44FEAC12343F0004343EA505323FAA8
:4041000002F070474FF00000704750EA013002D14FF0FF3070474FF00000704780F0004002E000BF81F0004142001FBF5FEA410392EA030F7FEA226C7FEA236C6AD04FEAE7
:404140001262D2EB1363C1BFD218414048404140B8BF5B42192B88BF704710F0004F40F4000020F07F4018BF404211F0004F41F4000121F07F4118BF494292EA030F3FD04D
:40418000A2F1010241FA03FC10EB0C00C3F1200301FA03F100F0004302D5494260EB4000B0F5000F13D3B0F1807F06D340084FEA310102F10102FE2A51D2B1F1004F40EB1F
:4041C000C25008BF20F0010040EA03007047490040EB000010F4000FA2F10102EDD1B0FA80FCACF1080CB2EB0C0200FA0CF0AABF00EBC25052421843BCBFD04018437047AC
:4042000092F0000F81F4000106BF80F400000132013BB5E74FEA41037FEA226C18BF7FEA236C21D092EA030F04D092F0000F08BF0846704790EA010F1CBF0020704712F002
:404240007F4F04D1400028BF40F00040704712F100723CBF00F50000704700F0004343F0FE4040F4000070477FEA226216BF08467FEA23630146420206BF5FEA412390EA2C
:40428000010F40F4800070474FF0000304E000BF10F0004348BF40425FEA000C08BF704743F0964301464FF000001CE050EA010208BF70474FF000030AE000BF50EA01028E
:4042C00008BF704711F0004302D5404261EB41015FEA010C02BF84460146002043F0B64308BFA3F18053A3F50003BCFA8CF2083AA3EBC25310DB01FA02FC634400FA02FC3C
:40430000C2F12002BCF1004F20FA02F243EB020008BF20F00100704702F1200201FA02FCC2F1200250EA4C0021FA02F243EB020008BF20EADC7070474FF0FF0C1CEAD052F1
:404340001EBF1CEAD15392EA0C0F93EA0C0F6FD01A4480EA010C400218BF5FEA41211ED04FF0006343EA501043EA5111A0FB01310CF00040B1F5000F3EBF490041EAD37110
:404380005B0040EA010062F17F02FD2A1DD8B3F1004F40EBC25008BF20F00100704790F0000F0CF0004C08BF49024CEA502040EA51207F3AC2BFD2F1FF0340EAC2507047AC
:4043C00040F400004FF00003013A5DDC12F1190FDCBF00F000407047C2F10002410021FA02F1C2F1200200FA02FC5FEA310040F1000053EA4C0308BF20EADC70704792F0C8
:40440000000F00F0004C02BF400010F4000F013AF9D040EA0C0093F0000F01F0004C02BF490011F4000F013BF9D041EA0C018FE70CEAD15392EA0C0F18BF93EA0C0F0AD049
:4044400030F0004C18BF31F0004CD8D180EA010000F00040704790F0000F17BF90F0004F084691F0000F91F0004F14D092EA0C0F01D142020FD193EA0C0F03D14B0218BFAE
:40448000084608D180EA010000F0004040F0FE4040F40000704740F0FE4040F4400070474FF0FF0C1CEAD0521EBF1CEAD15392EA0C0F93EA0C0F69D0A2EB030280EA010C5E
:4044C00049024FEA402037D04FF0805343EA111143EA10130CF000408B4238BF5B0042F17D024FF4000C8B4224BF5B1A40EA0C00B3EB510F24BFA3EB510340EA5C00B3EB82
:40450000910F24BFA3EB910340EA9C00B3EBD10F24BFA3EBD10340EADC001B0118BF5FEA1C1CE0D1FD2A3FF650AF8B4240EBC25008BF20F0010070470CF0004C4CEA502040
:404540007F32C2BFD2F1FF0340EAC250704740F400004FF00003013A37E792F0000F00F0004C02BF400010F4000F013AF9D040EA0C0093F0000F01F0004C02BF490011F489
:40458000000F013BF9D041EA0C0195E70CEAD15392EA0C0F08D142027FF47DAF93EA0C0F7FF470AF084676E793EA0C0F04D14B023FF44CAF08466EE730F0004C18BF31F002
:4045C000004CCAD130F000427FF45CAF31F000437FF43CAF5FE700BF4FEA4002B2F1FE4F0FD34FF09E03B3EB12620DD94FEA002343F0004310F0004F23FA02F018BF40427F
:4046000070474FF00000704712F1610F01D1420205D110F0004008BF6FF0004070474FF000007047014B1868704700BF4C81FF1F0E4B70B51E460E4C0025E41AA410A542F4
:4046400004D056F8253098470135F8E701F03EF9084B094C1E46E41AA4100025A54204D056F8253098470135F8E770BDD8580000D8580000D8580000E058000010B5431E57
:404680000A44914204D011F8014B03F8014FF8E710BD03460244934202D003F8011BFAE7704700000EB400B54FF402719CB0ADF814106FF00041049107914FF6FF711DAB48
:4046C00002900690084853F8042BADF81610006802A9019300F064F8029B00221A701CB05DF804EB03B070474C81FF1F2DE9F0478E6882469E420C46914698463ED88A8941
:4047000012F4906F3AD02568096902236F1A656905EB450595FBF3F57B1C43449D4238BF1D4653050FD5294600F040FB064698B13A462169FFF7A2FFA38923F4906343F071
:404740008003A38113E02A4600F08EFB064670B92169504600F0DEFA0C23CAF80030A3894FF0FF3043F04003A381BDE8F08726613E44266046466561ED1BA560464528BF88
:40478000464649463246206800F0A8FAA36800209B1BA36023681E442660BDE8F08700002DE9F04F9DB003938B8980461C060D4616460DD50B695BB9402100F0F7FA2860C2
:4047C000286118B90C23C8F80030CDE040236B610023099320238DF82930DFF89CB130238DF82A3037463C4614F8013B1BB9B7EB060910D003E0252BF9D02746F3E74B46AE
:40480000324629464046FFF771FF013000F0A780099B4B4409933B78002B00F0A08000234FF0FF3204930793059206938DF853301A930126052221784E4800F041FA671CCC
:40484000049B38B14B4A3C46801A06FA00F018430490EFE7D90644BF20228DF853201A0744BF2B228DF8532022782A2A03D0079A00210A200BE0039A111D12680391002A2A
:4048800010DA524243F00200079204900BE027463B780134303B092B03D800FB02320121F5E701B107923B782E2B1ED17B782A2B0AD1039B02371A1D1B680392002BB8BF00
:4048C0004FF0FF33059310E0002319460593781C0A2407463A780130303A092A03D804FB01210123F5E703B1059103223978224800F0E6F940B14023CBEB000003FA00F0CA
:40490000049B013718430490397806221B487E1C8DF8281000F0D4F988B1194B33B9039B073323F007030833039314E003AB00932A46144B04A94046AFF3008007E003AB24
:4049400000932A460F4B04A9404600F093F8B0F1FF3F824603D0099B5344099342E7AB895B0601D4099801E04FF0FF301DB0BDE8F08F00BF965800009C580000A0580000CE
:4049800000000000ED4600002DE9F04791461F460A698B6806469342B8BF1346C9F8003091F843200C46DDF8208012B10133C9F800302368990642BFD9F800300233C9F836
:4049C0000030256815F0060510D104F1190A07E00123524639463046C04701301AD00135E368D9F800209B1A9D42F1DB94F843302268003318BF012392060FD5E1183020E9
:404A000081F843005A1C94F845102244023382F8431003E04FF0FF30BDE8F08704F1430239463046C0470130F4D02268D9F80050E36802F00602042A08BF5D1B2269A36870
:404A40000CBF25EAE57500259342C4BF9B1AED184FF000091A344D4509D00123224639463046C0470130D5D009F10109F3E70020BDE8F0872DE9F04317460A7E85B06E2A57
:404A8000984606460C460C9B01F1430E00F0AE8011D8632A22D009D8002A00F0BB80582A40F0CA8081F84520834955E0642A1ED0692A1CD0C0E0732A00F0B08009D86F2A27
:404AC0002ED0702A40F0B8800A6842F020020A603EE0752A24D0782A3AD0ADE01A6801F14205111D1960136884F84230A8E021681A6811F0800F02D0111D196008E011F04C
:404B0000400F02F10401196002D0B2F9003000E01368002B3CDA2D225B4284F8432037E021681A6811F0800F02D0111D196007E011F0400F02F10401196001D0138800E082
:404B40001368227E5C496F2A14BF0A2208221BE078225A4984F845202268186812F0800F00F104051D6003D1550601D5038800E00368D00744BF42F0200222601BB922689F
:404B800022F0200222601022002084F8430001E049490A226568002DA56008DB206820F0040020602BB9002D7DD175460CE0002B79D07546B3FBF2F002FB1033CB5C05F868
:404BC000013D03460028F5D1082A0BD12368DA0708D5236962689A42DEBF302305F8013C05F1FF35C5EB0E0323612EE008681A6810F0800F496903D0101D1860136808E002
:404C000010F0400F02F104001860136801D0198000E0196000232361754616E01A68111D1960156800216268284600F049F808B1401B6060636804E004F1420584F8422053
:404C400001232361002384F84330CDF800803B4603AA21463046FFF797FE013002D14FF0FF3026E023692A4639463046C0470130F5D023689B0710D5002504F1190907E004
:404C800001234A4639463046C0470130E7D00135E368039A9B1A9D42F2DBE068039B9842B8BF184605E00B7804F1420584F842308AE705B0BDE8F083A7580000B858000069
:404CC00010B5C9B202449042034605D01C7801308C42F8D1184610BD002010BD884210B501EB020301D8421E0BE09842FBD28118D21AD34204D013F8014D01F8014DF8E792
:404D000010BD994204D011F8014B02F8014FF8E710BD000038B50546002944D051F8043C0C1F002BB8BFE41800F0D4F81E4A1368114613B96360146030E0A3420DD9226887
:404D4000A018834201BF18685B681218226063600C6023E0A24203D813465A68002AF9D118681918A1420BD12168014458188242196013D110685268014419605A600DE0A1
:404D800002D90C232B6009E021686018824201BF106852680918216062605C602846BDE8384000F098B838BD8C81FF1F70B5CD1C25F0030508350C2D38BF0C25002D064671
:404DC00001DBA94202D90C23336046E000F082F8234B1C681A462146A1B10B685B1B0ED40B2B03D90B60CC18CD501EE08C420BBF63684B681360636018BF0C4615E00C46B1
:404E00004968E9E7174C23681BB9304600F052F820602946304600F04DF8431C18D0C41C24F00304A0420DD12560304600F053F804F10B00231D20F00700C31A0ED05A42FF
:404E4000E25070BD211A304600F034F80130EBD10C233360304600F03EF8002070BD00BF8C81FF1F8881FF1FF8B5074615460E4621B91146BDE8F840FFF798BF1AB9FFF790
:404E800049FF2846F8BD00F027F885420ED929463846FFF78BFF044650B131462A46FFF7EDFB31463846FFF735FF01E03046F8BD2046F8BD38B5064C002305460846236089
:404EC000FBF7E8FB431C02D1236803B12B6038BD5C82FF1F7047704751F8040C0028BEBF091851F8043CC01804387047000000004F70656E0A000000303A25690920313AE7
:404F000025690920323A2569090A00006368616E6E656C3A256920092074656D703A257520090000C84900401900205100401000405100403000000001400010001401403E
:404F4000000800400140000A004C014000020050014020000145004005520040015B0040036400400165004052000140360101403C0201403D03014042040140410501403F
:404F80003B06014043070140080801402A090140010D014019140140331501400E1601403F1701401A190140061A01402E1B0140094001400441014006420140074301405A
:404FC000024401400545014001460140064701400948014018490140104C0140094D01400B500140035101407E02180119021C0460827C402F84810F827287018638001CE5
:4050000001010222030E041407030C090D0C0E100F03150117061A031C2C1E1120102308244028302A0C2F0C341F3660370F38803B80580459045C115F0180438104823444
:405040008443861C870188808B048D048E20910395039D029E28A003A244A704AA55AC2AAE54B040B104B20FB303B480B638B90ABA88BE11BF04C062C101C6BCC70EC81CD9
:40508000C9FFCAFFCBFFCEF0CF44D00CD401D804D904DA04DB04DC11DD11DF01E6C0EA40EB0201800290040105040604070209800A040E0110401102120813061580168882
:4050C000180419801A051C011D841E4A2140228024802710284029802F10310435043689380139803B043CA23E083F04458046084E0856945E485F218E048F01C0FDC28326
:40510000C4DECA49CCD2CEFBD030D220D6F00001040C053F0803093F0C420D120F2111081240150116B31706184C1AA31CFF1D241F1120F3220C2404284F2A902C08300F35
:405140003130328C3308347C35073A2A4002474049FF4A074BFF4C404D204EF04F05500856025711580459045A045B045C115D115F01604061A8624063208401B001BE01C2
:40518000D804D904DF0100140140054807480A240D880E481081122015121602170419021CA01D021E081F102440250826082748280129042B0230803210338035403709D9
:4051C000381839403A803C403D28410347104F0455015E206D286F0174047528760277048D02908497249B10A451A501AA80AB20C0F7C2F6C4FDCA0ACCDCCE7ED020D62005
:405200000201170132013501580459045F018104850689868B618DE18E028F0692029560970899029D209F10A1E7A201A587A760AB61AD40AF10B001B107B202B318B580D1
:40524000B760BA80BE04BF14C046C101C205C402C6CEC80CC9FFCAFFCBFFCC62CDA0CEF0CF41D00CD608D804D904DA04DB04DC11DD91DF01E640E702E910EA30EB10ED1042
:40528000EE10EF1200500101048008010A240F8010441228164018101C021D801E401F4422202613272228412B8A2C042F51300832203520374838583A803CA83D103E0220
:4052C000458247204E0A57505C806540664067029080932094189510966499209A029B489D449E80A054A102A208A401A580A630A782C08BC21EC41CCAFDCC76CEFED0B042
:40530000D230D610D8100A020C0110081604170319011A011E0424083208330234033604370138083E445804590C5C095F0181048204850888048B048C088D0290019180DD
:40534000934094029520971099109A109B209E829F08A140A380A621A702A901AA48AF01B020B280B41FB5FFB640B820BE10BF10D602D73AD804D904DB0CDF0100100191D4
:405380000604070109A00A500E8A0F2013241704180819A41A741B891D481E082120271129152A802B01300A3220338036043710389039055B046108680A69056B207040EF
:4053C0007190730479407D40830886408C108D01901093089408950196249B029E80A221A310A408A78AA880B504B620C0CBC2FFC426CA0FCC6FCE0FD602D802DE18E602A1
:40540000EE015401580459045B0D5F01D804D904DF010120074A082409810F201002130214841620288029642D012F0832403520370A382039013D023E205F807E048C9272
:405440008D018E2092809B02B640B702C0D2C22FC479CAAFCCE8CEA5D610DE20E010E440E602E810EE01E040580459045F01860189018A018C01900191019501980199011D
:40548000A101A401A801AB01AD01B401B501D608D804D904DB04DD90DF0101A205A0071008100A400C110E4011101230151016101E042520281129262D202E402F803220EF
:4054C00033803506362039103D105E805F28660486448D209110924099A69B389E04A220A380B501B710C0EBC25AC466CABFCCECCE24D670D840E401E640E810EA01EE069F
:405500005418580459045B045D105F01AE01B001D203D302D804D904DB04DF010182023005A206100A240E5010821110151019031B0229252B012E402F80322033803506B2
:40554000362039103D103E045F0265406708680169406B048080824088018F20911092749308954099E49B0A9D019E049F04A002A220A381A702A904AF01B180B301B404C6
:40558000C0FDC236C44BCA9FCCECCE64D680D830E004E410E680EC09EE22801083088A0491019280960899049B409F08A181A310A920AB10AC20AD40B004B101B380B58445
:4055C000B748E080E410E680E810ECA0EE02580459045F01D804D904DF0101010782080509800A800C040FA010821102130A1501174828012B102D013082310434013748FE
:40560000382039013D023FA05A805B8090209101928099049B48A002A181A350B402B740C098C23DC4BDCA8ACCDBCEB5E401E810EA01EC40EE0610801680302036403B0266
:405640003E80C430CC30CE609702A080A420A6403E109702A080A420A640CE20808096109702A080A420A640E0207C40DE0421018C409440C802E00291020B408501910240
:40568000A501A901C20824088B028F0496109702AE40B020C820EE4012201704520256207B027E01822086228E2092029F04A302AA10AB01AE01B404C430D4C0DC80DE20DB
:4056C000E240E4C0EA80EE60132815021F8034027B107D208B088D10A501AF40C40EC601CC01DE03E408E60111028310A501A710ABA0AD01B402C408E80800030101080380
:405700000A030B010C01100311011A031B011C01000B03C0100A00000001000000000000000004008300408083008300000000004000000000000000C0000000000B0B007C
:40574000000000000400000400000003030000001201000200000008B40411E0000001020001000009022200010100800A09040000010300000009211101000122320007EF
:4057800005810308000A0000040309042C0343007900700072006500730073002000530065006D00690063006F006E0064007500630074006F0072001A035300710075004D
:4057C00061007200650020004D006F007500730065000000320005010902A1010901A100050919012903150025019503750181029501750581030501093009311580258051
:40580000750895028106C0C000000000040000005882FF1F5482FF1F000000000C5800000000000000000000000000000000000001000000D45700000100000076570000FF
:4058400001000000185800000000810308000300030000000100000064570000010000004858000001000000405800000000000050580000010000005057000000000000DF
:4058800000000000010000005458000001000000745800004300232D302B2000686C4C006566674546470030313233343536373839414243444546003031323334353637FE
:4058C000383961626364656600000000F8B500BFF8BC08BC9E4670474D0000007D070000F8B500BFF8BC08BC9E4670472900000000590000C880FF1F880000001001000092
:40590000000000006082FF1F807F000003000000006CDC0280BB0000300000000000C05DFFFFFFFF0000000000000000000000000000000000000000000000000000000097
:40594000000000009458000000000000000000000000000000000000000000000000000000000000000000000000000000000000000000000000000000000000000000003B
:4059800000000000EC80FF1F00000000000000000000000000000000000000000000000000000000000000000000000000000000000000000000000000000000000000005D
:4059C00000000000000000000000000000000000000000000000000000000000000000000000000000000000000000000000000000000000000000000000000000000000A7
:405A00000000000000000000000000000000000000000000000000000000000000000000000000000000000000000000000000000000000000000000000000000000000066
:405A40000000000000000000000000000000000000000000000000000000000000000000000000000000000000000000000000000000000000000000000000000000000026
:405A800000000000000000000000000000000000000000000000000000000000000000000000000000000000000000000000000000000000000000000000000000000000E6
:0200000480007A
:0200000490006A
:0400000000004005B7
:0200000490105A
:04000000BC90ACAF55
:0200000490303A
:02000000964028
:0200000490402A
:4000000000000000000000000000000000000000000000000000000000000000000000000000000000000000000000000000000000000000000000000000000000000000C0
:400040000000000000000000000000000000000000000000000000000000000000000000000000000000000000000000000000000000000000000000000000000000000080
:400080000000000000000000000000000000000000000000000000000000000000000000000000000000000000000000000000000000000000000000000000000000000040
:4000C0000000000000000000000000000000000000000000000000000000000000000000000000000000000000000000000000000000000000000000000000000000000000
:0200000490501A
:0C00000000012E16106900012E37A6A981
:00000001FF