:400000000080002011000000BD050000BD05000080B500AF024A034B1B68136000F000FBBC760040FA46004010B5054C237833B9044B13B10448AFF300800123237010BD98
:400040005881FF1F00000000603D0000084B10B51BB108490848AFF300800848036803B910BD074B002BFBD0BDE81040184700BF000000005C81FF1F603D0000C880FF1FA8
:400080000000000090B59FB002AF62B60221002000F05CFB00BF00F003FD0346002BFAD003223D49012000F007FD02F0B9FD02F00DFE3A4802F086FE00BF012000F080FDC2
:4000C0000346002BF9D003223349012000F0F4FC0023FB6637E002F0BBFD002002F0BEFDFB6E9BB2184602F0CFFD0346184603F059F90346BB662A4B93F90030C3F14803B7
:40010000FA6E013224498A5693420ADDFB6E0133214AD3561A46224B93F9003048339A4205DCFB6E01331C4A0021D15408E0FB6E5C1CB86E03F08AF903465AB2164B1A5556
:40014000FB6E0133FB66FB6E012BC4DD02F098FC0346002B03D1104B01221A7002E00E4B00221A700C4B93F900301A460A4B93F901301946084B93F90230381D00930B4660
:40018000084903F0C9F93B1D184602F01BFE012002F0F4FB90E700BF7481FF1F643D0000CC80FF1F6C3D000080B582B000AF786039603A680021786803F0A5F900BF0837C0
:4001C000BD4680BD80B584B000AFF860B9607A607A68B968F86803F08BF900BF1037BD4680BD00BF80B584B000AFF860B9607A607A68B968F86803F07BF900BF1037BD4647
:4002000080BD00BF80B483B000AF0346FB71FEE780B487B000AF7860396000233B6100237B6127E07B699B007A6813441B68BB60BB68FB73BB6823F0FF03BB6014E03B69F0
:400240005B003A6813441B781A46BB68134419463B695B003A6813445B780B703B6901333B61FB7B013BFB73FB7B002BE7D17B6901337B617B69252BD4D900BF1C37BD4641
:4002800080BC704780B582B000AF334B19221A80324B1C221A70324B19221A80314B19221A70314B06221A70304B52221A70304B304A1278D2B21A702F4B4FF4E2621A803B
:4002C0002E4B41F251221A800023FB7019237B6014E0FB785B00DAB2294B1B78DBB203F00103DBB21343DBB203F00303FB704FF4F07002F031FF7B68013B7B607B68002B26
:4003000002D0FB78032BE4D17B68002B02D10320FFF778FF1B4B4FF480721A80194B07221A70194B00221A70184B48221A70154B00221A70164B00221A70164B02221A7049
:40034000154A154B1B78DBB243F00303DBB2137000BF0837BD4680BD804000408240004084400040864000400043004000420040A14600400F010049224200402042004040
:40038000254200400440004006400040084000400940004001400040A243004080B582B000AF1F4B1B78FB711E4B1B78BB711E4B1B787B711D4AFB7903F00703DBB213705E
:4003C0001B4AFB791B09DBB21370164ABB7943F00303DBB21370144A7B7943F00303DBB21370144B03221A70134B40221A70134B40221A70124B30221A70124B20221A7074
:400400000A2002F0DDFA084A7B791370054ABB7913700D4B44221A7000BF0837BD4680BDCF010049F8460040F94600406E5800406F5800403D510040095900400B5900403D
:40044000285B00402B5B00407658004080B582B000AF72B6414A414B1B78DBB243F00403DBB213700023FB7113E0FA7913465B0013445B003A4A13443B603B681A683B688D
:400480009B889BB219461046FFF78EFEFB790133FB71FB79062BE8D932493348FFF7B8FE04213248FFF780FE042231493148FFF799FE314A304B1B78DBB243F00203DBB2E5
:4004C00013702E4A2D4B1B78DBB243F00203DBB213702B4A2A4B1B78DBB243F04003DBB21370284A274B1B78DBB243F01003DBB21370082224492548FFF774FE0A22244932
:400500002448FFF76FFE0A2223492448FFF76AFE082223492348FFF765FE0A2222492348FFF760FE224A224B1B78DBB243F00803DBB213701F4B60221A70FFF7A3FE1D4B1E
:40054000C0221A70FFF72AFF0E220D491A48FFF739FE00BF0837BD4680BD00BFE84600408C3D0000503E0000B83D0000007600408C450000087600400350014013500140A7
:40058000A0430040C2430040904500000251004098450000C0510040A4450000F0510040B045000012510040B8450000305100402243004000480040B043004080B500AF39
:4005C00002F06AFF03461B680C2B00D1FEE7FEE780B584B000AF78600F4B1A687B6813441A460E4BD31A802B09DC0B4B1B68FB60094B1A687B681344074A136007E002F0E5
:400600004BFF02460C2313604FF0FF33FB60FB6818461037BD4680BDD080FF1F5882FF1F80B586B000AF224B7B61224B3B61204B7B6135E03B691B68FB603B695B68BB6040
:400640003B699B683B6000237B600CE0FB681A68BB681A60BB680433BB60FB680433FB607B6804337B607A683B689A42EED13B69DB683B6000237B6008E0BB6800221A6026
:40068000BB680433BB607B6804337B607A683B689A42F2D13B6910333B617B69013B7B617B69002BC6D102F0FDFEFFF7EBFCFEE7010000006447000080B582B000AF194BB2
:4006C000194A1A60194A194B1B6843F40073136000237B600FE07B68032B04D8144A7B6852F8233000E0134B13497A6841F822307B6801337B607B682F2BECD90F4B1B7816
:40070000DAB20F4B1A700F4B0B4A1A60FFF79EFE01F00CFF0C4B00221A6000BF0837BD4680BD00BF0CED00E00004FA0514ED00E000000000BD0500000080FF1FBC76004013
:40074000C480FF1F08ED00E0C080FF1F80B582B000AF03460A46FB711346BB71094B1B78002B04D100F010F8064B01221A70BA79FB791146184600F0C5F800BF0837BD465D
:4007800080BD00BF7781FF1F80B582B000AF02F002FD0346FB714C4A4B4B1B78DBB243F00103DBB21370494A484B1B78DBB243F00103DBB21370464B01221A70454B022259
:4007C0001A70454A444B1B78DBB203F07F03DBB21370002002F0F4F8404A404B1B78DBB223F00603DBB213703D4A3D4B1B78DBB223F02003DBB21370384A384B1B78DBB2B3
:4008000043F00103DBB21370012002F0D9F8282002F0D6F8334A334B1B78DBB203F07F03DBB213702F4A2F4B1B78DBB223F04003DBB21370294A294B1B78DBB243F002032D
:40084000DBB21370022002F0BBF8244A234B1B78DBB243F00403DBB21370234B00221A70224B00221A70FB79184602F098FC0721172002F0E1F81E49172002F0B5F8072141
:40088000182002F0D9F81B49182002F0ADF80721152002F0D1F81849152002F0A5F80721012002F0C9F81549012002F09DF807210C2002F0C1F812490C2002F095F800BF07
:4008C0000837BD4680BD00BFA5430040B54300409D60004009600040106000409443004012600040F8510040846000408560004079120000010C00006D12000025120000DB
:400900004116000080B584B000AF03460A46FB711346BB710023FB7306E0FB7B304A0121D154FB7B0133FB73FB7B002BF5D02D4AFB7913702C4B00221A702C4B00221A70DE
:400940002B4B00221A702B4B00221A702A4B00221A702A4B00221A70294B00221A70294B4FF400021A60274B4FF080721A60254B4FF400121A60234B02221A60BB79002BD7
:4009800002D0012B09D011E01F4A1F4B1B78DBB223F00103DBB2137011E01B4A1A4B1B78DBB243F00103DBB2137008E0164A164B1B78DBB243F00103DBB2137000BF134B06
:4009C00003221A70124B80221A70012002F0C4FB104B04221A7000BF1037BD4680BD00BF3482FF1FA081FF1FB781FF1FB681FF1FB081FF1FB581FF1FA181FF1F2982FF1F73
:400A00009481FF1F00E100E00960004028600040086000401260004080B483B000AF0023FB7106E0FB79144A0121D154FB790133FB71FB79002BF5D0104B00221A70104B79
:400A400000221A700F4B00221A700F4B00221A700E4B00221A700E4B00221A700D4B00221A700D4B03221A700C4B80221A7000BF0C37BD4680BC70473482FF1FB781FF1F04
:400A8000B681FF1FB081FF1FB581FF1FA181FF1F2982FF1F9481FF1F286000400860004080B400AF034B1B78DBB21846BD4680BC704700BFB081FF1FB0B485B000AF03464E
:400AC0003960FB711346BB80FB79002B6DD0FB79082B6AD8B988FA79364813465B0013449B00034406331B889BB2C3F5007399420CD9FA792F4913465B0013449B000B4485
:400B000006331B889BB2C3F50073BB802A4CF979BB881B0A9BB2D8B2FA79264D13465B0013449B002B4403331B78DBB20343DAB20B0123441A70204AFB79B988C9B21B0129
:400B4000134401330A461A703B68002B13D00023FB810CE01948FB79FA8939680A4412781B01034408331A70FB890133FB81FA89BB889A42EED3FA790E4913465B0013446F
:400B80009B000B44013300221A700B48F979FA79084C13465B0013449B00234405331B78DAB20B01034402331A7000BF1437BD46B0BC7047B881FF1FFC5F00407060004037
:400BC00080B485B000AF0346FB710023FB73FB79002B0CD0FB79082B09D8084AFB791B01134402331B78DBB203F01003FB73FB7B18461437BD4680BC704700BFFC5F004023
:400C000080B582B000AF374B1B78BB71BB7903F01003002B62D00123FB7197F90630002B12DABB7903F00F03012B02D00023FB711CE000F061F82C4B1B78DBB25BB2002B7F
:400C400014DA0023FB7111E0BB7903F04003002B02D000F095F809E0BB7903F02003002B02D000F0B3F801E00023FB71FB79002B34D01C4B1B78BB7197F90630002B2DDB25
:400C80001A4B1B78DAB21A4B1B78DBB21343BB71184ABB791370174B1B78DBB2BA799A421CD1114B1B78FB710E4B1B78DBB223F07F03BB71BB79002B0AD10A4B0A4A127810
:400CC000D2B21A70074B1B78DBB203F00F03FB71054B1B78DBB2FA799A42E2D100BF0837BD4680BD28600040A381FF1F2482FF1FA281FF1F2960004080B582B000AF1D4BFD
:400D00001B78FB711B4AFB7913701A4B1B78FB7197F90730002B03DA174AFB79137025E0022000F045FA154B1B78DBB203F06003202B08D0402B0BD0002B0ED100F086FCBC
:400D40000346FB710CE002F031FA0346FB7107E001F0C2FB0346FB7102E00023FB7100BFFB79002B02D1044B03221A7000BF0837BD4680BD28600040A381FF1F006000402E
:400D800080B500AF104B1B78DBB2062B19D801A252F823F0C30D0000C30D0000B10D0000C30D0000B70D0000C30D0000BD0D000000F0F8F806E000F0A7F903E000F0D2F932
:400DC00000E000BF00BF80BDB781FF1F80B500AF124B1B78DBB2062B1DD801A252F823F0170E0000170E0000FD0D0000170E0000030E0000170E0000090E000000F0D8F8F5
:400E00000AE000F027F907E0032000F0D1F9044B03221A7000E000BF00BF80BDB781FF1FA381FF1F80B483B000AF0023FB71294B1B78DBB29AB2284B1B889BB213449AB238
:400E4000254B1A8015E02549FB79254A52681278D2B2CA54224B5B680133214A5360FB790133FB711E4B1B889BB2013B9AB21C4B1A801B4B1B889BB2002B02D0FB79072BCB
:400E8000E1D9144B1B78DBB2082B02D0FB79002B0FD0144B1B78DBB283F07F03DB43DAB2104B1A70104B0F221A70104B02221A7005E00D4B02221A700C4B02221A700C4A0E
:400EC000FB791370034AFB79137000BF0C37BD4680BC70479481FF1F9681FF1F00600040A481FF1F2482FF1FA381FF1FB781FF1FA281FF1F80B582B000AF164B1B889BB270
:400F0000002B02D100F02EF81EE0134B02221A70124B00221A7000F06BF9114BDB79DBB29BB21B029AB20E4B9B79DBB29BB21343FB80084B1B889BB2FA889A4202D2054A67
:400F4000FB881380FFF76EFF012318460837BD4680BD00BFA481FF1FB781FF1F2482FF1F0060004080B400AF094B02221A70094B80221A70084B0F221A70084B00221A70C9
:400F8000074B00221A7001231846BD4680BC7047B781FF1F2482FF1FA381FF1F9481FF1FA281FF1F80B500AFFFF73CFF00BF80BD80B500AF0A4B1B78DBB29AB2094B1B883E
:400FC0009BB213449AB2074B1A80074B00221A70012000F0EDF8054B03221A7000BF80BD9481FF1F9681FF1FB781FF1FA381FF1F80B582B000AF124B04221A70114B802205
:401000001A7000F0F5F8104BDB79DBB29BB21B029AB20D4B9B79DBB29BB21343FB800B4B1B889BB2FA889A4202D2084AFB881380074B0B221A70012318460837BD4680BD56
:40104000B781FF1F2482FF1F00600040A481FF1FA381FF1F80B483B000AF0023BB71234B1B78DBB203F00F03DBB2023BFB71FB799AB21F4B1B889BB213449AB21C4B1A8045
:4010800018E01C4B5B681C49BA798A5CD2B21A70184B5B680133174A5360BB790133BB71FB79013BFB71134B1B889BB2013B9AB2104B1A800F4B1B889BB2002B02D0FB79DE
:4010C000002BDED10D4AFB7913700D4B1B78DBB283F07F03DB43DAB2094B1A70094B0B221A7000BF0C37BD4680BC7047296000409681FF1FA481FF1F00600040A281FF1FAE
:401100002482FF1FA381FF1F80B500AF054B00221A70012000F04CF8034B03221A7000BF80BD00BFB781FF1FA381FF1F80B400AF084B06221A70084B06221A70074B802243
:401140001A70074B00221A7001231846BD4680BC704700BFB781FF1FA381FF1F2482FF1FA281FF1F80B500AF0D4B1B78DBB2002B0AD00C4A0A4B1B78DBB263F07F03DBB285
:401180001370074B00221A70074B00221A70012000F00EF8054B03221A7000BF80BD00BFA181FF1F08600040B781FF1FA381FF1F80B483B000AF0346FB710B4B9B68002B10
:4011C0000CD0094B9B68FA791A70074B9B68074A128892B25A80044B00229A6000BF0C37BD4680BC704700BFA481FF1F9681FF1F80B400AF094B00221A80094B9B68002B52
:4012000007D0074B9B6800221A70054B9B6800225A8000BFBD4680BC704700BF9681FF1FA481FF1F80B400AF0D4B01221A700D4B9B7C0D4B1B7BDBB203F00303012B08D0CC
:40124000094BDB7BDBB283F07F03DB43DAB2064BDA73054B01225A7300BFBD4680BC70470B600040FC5F0040B881FF1F80B400AF00BFBD4680BC704780B500AFFFF7CCFB2F
:4012800000BF80BD80B582B000AF0023FB71714B1B79BB716F4B1B78DBB25BB2002B6CDA6C4B5B78DBB2013B052B00F2BE8001A252F823F017130000311300005B1300002A
:4012C0002B1400002B140000CD120000614BDB78DBB2212B0CD100F0C7F85F4B1B889BB2002B00F0A480FFF705FE0346FB719EE0584BDB78DBB2222B40F0998000F0F2F835
:40130000554B1B889BB2002B00F09180FFF7F2FD0346FB718BE000F02DF94F4B1B889BB2002B00F08680FFF7E5FD0346FB7180E0BB79002B7FD1474B9B78DBB2002B7AD1E7
:40134000454B01221A80BB79444A1344424A5360FFF7D0FD0346FB716DE0BB79002B6CD13D4B01221A80BB793D4A13443A4A5360FFF7C0FD0346FB715FE0364B5B78DBB251
:401380000A2B10D00B2B3DD0092B00D05CE000F0F1F8314B1B889BB2002B50D0FFF728FE0346FB714BE0BB79002B4AD1294B9B78DBB2002B45D1BB79264AD278D1B2274A58
:4013C000D154BB79254AD35CDAB2BB792549CB5CDBB29A4204D2BB79224A0021D1540CE0BB79204AD35CDBB2012B06D9BB79BA791A498A5CD1B21B4AD154FFF797FE03469A
:40140000FB711EE0BB79002B1DD1124B9B78DBB2012B18D8BB790F4A9278D1B2104AD154FFF784FE0346FB710DE000BF0CE000BF0AE000BF08E000BF06E000BF04E000BF27
:4014400002E000BF00E000BFFB7918460837BD4680BD00BF00600040A481FF1F3082FF1F3482FF1F2C82FF1F80B584B000AF194B1B78DBB2013BDBB2184600F075FEF8604B
:40148000154B1B79FB72FB7A0233DB00FA681344FB60FB685B68FB60FB7A104AD35CDBB2DB00FA681344FB60FB685B68FB60FB682033FB60FB685B687B607B681B78DBB2A1
:4014C0009AB2074B1A80064A7B68536000BF1037BD4680BDB081FF1F006000409881FF1FA481FF1F80B584B000AF1E4B1B78DBB2013BDBB2184600F037FEF8601A4B1B79E1
:40150000FB72FB7A0233DB00FA681344FB60FB685B68FB60FB7A154AD35CDBB2DB00FA681344FB60FB685B68FB60FB681833FB60FB685B687B607B6801331B78DBB29BB296
:401540001B029AB27B681B78DBB29BB213439AB2074B1A807B680233054A536000BF1037BD4680BDB081FF1F006000409881FF1FA481FF1F80B584B000AF2D4B00221A800F
:401580002C4B1B78DBB2013BDBB2184600F0ECFDF860294BDB78FB72274B1B79BB72BB7A0233DB00FA681344FB60FB685B68FB60BB7A002B38D1BB7A204AD35CDBB2DB005C
:4015C000FA681344FB60FB685B68FB60FB7A002B2AD0FB7A032B27D8FB7A03F10053013BDB00FA681344FB60134B9B78FB72FB681B78FA7A9A4217D8FB685B687B60FA7AAB
:4016000013465B0013449B001A467B6813447B607B685B68064A53607B681A88044B1A807B689B68024A936000BF1037BD4680BDA481FF1FB081FF1F006000409881FF1FA4
:4016400080B500AF00F062FF00BF80BD80B586B000AF0023FB75A74B1B78FB7100233B61A54B00221A8097F90730002B80F2EC80A04B5B78DBB20A2B00F2008201A252F87F
:4016800023F000BF9F1700007D1A00007D1A00007D1A00007D1A00007D1A0000B11600007D1A0000131800007D1A000029180000904BDB78DBB2012B0ED100F07DFDB86006
:4016C000BB685B688C4A53608B4B12221A80FFF711FC0346FB75D3E1864BDB78DBB2022B25D1844B9B78DBB2184600F03DFDB860BB68002B00F0C481BB685B687E4A5360A0
:401700007D4B5B6803331B78DBB29BB21B029AB2794B5B6802331B78DBB29BB213439AB2754B1A80FFF7E6FB0346FB75A8E1714BDB78DBB2032B2DD10023FB736F4B3B6125
:4017400009E03B691B78BB71BB793A6913443B61FB7B0133FB73674B9B78DBB2FA7B9A4204D23B691B78DBB2002BEAD13B691B78DBB2002B00F084813B691B78DBB29AB224
:401780005D4B1A805C4A3B695360FFF7B3FB0346FB7575E101F00AFD0346FB7570E1FB7903F00303002B20D0022B00D030E0524B02221A804F4B1B79DBB203F07F0250497D
:4017C00013465B0013449B000B4402331B78DAB24C4B1A704B4B00225A70474B494A5A60FFF788FB0346FB7512E0434B02221A80454B1B78DAB2434B1A70424B00225A706E
:401800003D4B404A5A60FFF775FB0346FB7500BF3DE1394B01221A80374B3C4A5A60FFF769FB0346FB7532E1334B01221A80314B1B79DBB21A46364B13442F4A5360FFF785
:4018400059FB0346FB7522E12A4B5B78DBB2013B0A2B00F2178101A252F823F061190000851A0000EF190000851A000089180000851A0000851A0000851A00009D18000095
:40188000851A00001D1900001A4B9B78DAB2214B1A70FFF74BFC0346FB75F8E0154B9B787B717B79002B06D07B79013BDBB2184600F05AFCB8607B79002B02D0BB68002B7F
:4018C00003D17B79002B40F0DF80104B1B78DBB27A799A4208D00D4A7B7913700E4B01221A70012000F082F9FFF720FC0346FB75CAE000BF00600040A481FF1FFC4500008C
:40190000B881FF1F7881FF1F2982FF1FB081FF1F9881FF1FA181FF1FB681FF1F00F0A4FD0346002B00F0B2805B4B1B793B715A4B1B79DAB2594B1A703B79594AD35CDAB243
:401940003B795849CB5CDBB29A4204D0564B01221A7000F0DBFAFFF7E9FB0346FB7595E0FB7903F00303012B20D0012B0CD3022B00D03BE0484B9B78DBB2002B31D100F097
:40198000C7FC0346FB752CE0434B9B78DBB2012B29D1464B1B78DBB223F00203DAB2434B1A70FFF7C3FB0346FB751CE03A4B1B79DBB2002B19D1384B9B78DBB2DB43DBB2EC
:4019C000354A1279D2B211461046394A125CD2B21340DAB2364B5A54FFF7A8FB0346FB7503E000BF53E000BF51E000BF4FE0FB7903F00303012B20D0012B0CD3022B00D093
:401A00003BE0254B9B78DBB2002B31D100F00CFC0346FB752CE0204B9B78DBB2012B29D1224B1B78DBB243F00203DAB21F4B1A70FFF77CFB0346FB751CE0174B1B79DBB276
:401A4000002B19D1144B9B78DBB2DB43DBB2124A1279D2B211461046154A125CD2B21340DAB2134B5A54FFF761FB0346FB7503E000BF0CE000BF0AE000BF08E000BF06E0C5
:401A800000BF04E000BF02E000BF00E000BFFB7D18461837BD4680BD00600040B581FF1FB481FF1F9881FF1FB681FF1F2982FF1F2882FF1F90B482B000AF0123FB7180E0A6
:401AC000464AFB791B0113440C221A70FA79444913465B0013449B000B4405331B78DBB2002B1CD0FA793E4913465B0013449B000B4404331B78DBB25BB2002B07DA394A71
:401B0000FB791B01134402330C221A700EE0354AFB791B011344023308221A7006E0314AFB791B011344023380221A702B48F979FA792B4C13465B0013449B0023440633D6
:401B40001B889BB2DAB20B01034406331A702348F979FA79224C13465B0013449B00234406331B889BB21B0A9BB2DAB20B01034407331A701948F979FA79194C13465B006B
:401B800013449B00234406331B889BB2DAB20B01034404331A701148F979FA79104C13465B0013449B00234406331B889BB21B0A9BB2DAB20B01034405331A70FB79013378
:401BC000FB71FB79082B7FF67BAF074BFF221A7000BF0837BD4690BC704700BF70600040B881FF1FFC5F00400A60004080B588B000AF0346FB7100237B830023FB7747E019
:401C0000FA7FA94913465B0013449B000B4400221A70FA7FA44913465B0013449B000B44023300221A70FA7F9F4913465B0013449B000B44033300221A70FA7F9A4913466F
:401C40005B0013449B000B44083300221A80FA7F954913465B0013449B000B440A3300221A70FA7F904913465B0013449B000B44013300221A70FA7F8B4913465B0013441D
:401C80009B000B44053300221A70FB7F0133FB77FB7F082BB4D9FB79002B10D000237B770AE07B7F814A0021D1547B7F804A0021D1547B7F01337B777B7F002BF1D07D4B9B
:401CC0001B78DBB2002B00F01A817A4B1B78DBB2013BDBB2184600F047FA38613B695B68FB60FB6807331B7803F04003002B08D0714B1B78DBB243F00103DAB26E4B1A702B
:401D000007E06D4B1B78DBB223F00103DAB26A4B1A703B6908333B613B691B78FB7701237B7794E03B695B687B610023BB7786E07A7F7B699B7803F07F039A4279D17A7FD2
:401D4000594913465B0013449B000B4408331B889AB27B699B889A420BD27A7F7B699888514913465B0013449B000B44083302461A807B691B781A464C4B9B5CDAB27B6964
:401D80005B789A4255D17A7F7B699878464913465B0013449B000B44043302461A707A7F7B69D878404913465B0013449B000B4402461A707B69DB7803F00303FB727B69D6
:401DC0009B785BB2002B1ADA7A7FFB7A012B01D1072000E00D20344913465B0013449B000B44053302461A707A7F2F4913465B0013449B000B44013301221A7019E07A7F4F
:401E0000FB7A012B01D1052000E00920264913465B0013449B000B44053302461A707A7F214913465B0013449B000B44013300221A707B6908337B61BB7F0133BB77BA7F87
:401E4000FB7F9A42FFF474AF7B7F01337B777B7F082B7FF667AF3B695B687B6100237B7714E07B699B7803F07F027B6918780E4913465B0013449B000B440A3302461A7098
:401E80007B6908337B617B7F01337B777A7FFB7F9A42E6D300F0A2F90246084B1A6000237B830123FB7725E0B881FF1F9881FF1FB481FF1FB081FF1F2982FF1F9C81FF1F6F
:401EC000FA7F114913465B0013449B000B4406337A8B1A80FA7F0C4913465B0013449B000B4408331B889AB27B8B13447B83FB7F0133FB77FB7F082BE2D9FFF7DBFD00BFE5
:401F00002037BD4680BD00BFB881FF1F90B585B000AF8F4B1B78DBB2002B00F015818C4B1B78DBB2013BDBB2184600F01DF978607B6808337B607B681B78FB707B685B68A4
:401F4000BB60844B1B78BB700023FB73F7E0BB681B78BA789A4240F0EC80BB787E4AD35CDAB2BB685B789A4240F0E380BB689B7803F07F037B70BB68DB7803F003033B7026
:401F80007A78764913465B0013449B000B44033300221A707A78BB689878704913465B0013449B000B44043302461A707A78BB68D8786A4913465B0013449B000B44024668
:401FC0001A707A78BB689888644913465B0013449B000B44083302461A80BB689B785BB2002B1ADA7A783B78012B01D1072000E00D205A4913465B0013449B000B4405335A
:4020000002461A707A78554913465B0013449B000B44013301221A7019E07A783B78012B01D1052000E009204C4913465B0013449B000B44053302461A707A78474913462F
:402040005B0013449B000B44013300221A70444A7B781B011344023301221A70404879787A783E4C13465B0013449B00234408331B889BB21B0A9BB2DAB20B0103441A7006
:40208000374879787A78354C13465B0013449B00234408331B889BB2DAB20B01034401331A70304879787A782C4C13465B0013449B00234406331B889BB2DAB20B01034480
:4020C00006331A70274879787A78244C13465B0013449B00234406331B889BB21B0A9BB2DAB20B01034407331A701E4879787A781A4C13465B0013449B00234406331B8878
:402100009BB2DAB20B01034404331A70154879787A78124C13465B0013449B00234406331B889BB21B0A9BB2DAB20B01034405331A70BB680833BB60FB7B0133FB73FA7BC5
:40214000FB789A42FFF403AF00BF1437BD4690BDB081FF1FB581FF1F9881FF1FB881FF1FFC5F00407060004080B485B000AF0346FB710F4B1B78DBB20E4ADB0013445B68A1
:40218000FB60FB681033FB60FB681B78FA799A4202D30023FB6005E0FB79DB00FA6813445B68FB60FB6818461437BD4680BC7047A081FF1F0047000080B400AF054B1B78D2
:4021C000DBB2054ADB0013445B681846BD4680BC704700BFA081FF1F0047000080B584B000AF104B1B78DBB2013BDBB21846FFF7BBFFB860BB68002B0DD0BB685B681B794E
:40220000FB71FB790233DB00BA681344BB60BB685B68FB6001E00023FB60FB6818461037BD4680BDB081FF1F80B582B000AF0023FB71344B1B79DBB203F07F03BB71BB79C9
:40224000002B5AD0BB79082B57D8BA79B9792E480B465B000B449B00034402331B78DBB243F00103D8B2284913465B0013449B000B44023302461A70BA79234913465B00E5
:4022800013449B000B44033300221A70BA79B9791D480B465B000B449B00034401331B78DBB243F00203D8B2174913465B0013449B000B44013302461A70BA7912491346FC
:4022C0005B0013449B000B4404331B78DBB25BB2002B07DA0D4ABB791B01134402338D221A7006E0094ABB791B011344023389221A70FEF71BFF0346FB71FB791846083747
:40230000BD4680BD00600040B881FF1FFC5F004080B582B000AF0023FB71504B1B79DBB203F07F03BB71BB79002B00F09280BB79082B00F28E80BA79B97949480B465B005F
:402340000B449B00034402331B78DBB223F00103D8B2434913465B0013449B000B44023302461A70BA793E4913465B0013449B000B44033300221A703A49BB793948BA79B2
:40238000120102441278D2B202F07F02D2B21B010B441A70BA79B97931480B465B000B449B00034401331B78DBB223F00203D8B22B4913465B0013449B000B440133024634
:4023C0001A70BA79264913465B0013449B000B4404331B78DBB25BB2002B1BDABA79204913465B0013449B000B4401331B78DBB2012B07D11B4ABB791B01134402330C22E0
:402400001A7022E0174ABB791B01134402330D221A701AE0BA79124913465B0013449B000B4401331B78DBB2012B07D10D4ABB791B011344023308221A7006E0094ABB79F1
:402440001B011344023309221A70FEF76FFE0346FB71FB7918460837BD4680BD00600040B881FF1FFC5F004080B584B000AF0023FB73154B1B79BB73144B1B78DBB2013B7F
:40248000DBB21846FFF770FEB860BB685B681B79FB71BA7BFB799A4202D9BB7B012B0ED8BB7BBA7B0A498A5CD1B20A4AD154BB7B054A9278D1B2064AD1540123FB73FB7BF8
:4024C00018461037BD4680BD00600040B081FF1F9881FF1FB481FF1F80B483B000AF0023FB71094B1B78DBB25BB2002B06DA064B5B78DBB2012B00D000E000BFFB7918462F
:402500000C37BD4680BC70470060004080B400AF054B1B78DBB203F040039B09DBB21846BD4680BC704700BF8F45004080B483B000AF134B7F221A70124B80221A707F2317
:40254000FB710CE0FB79DB0003F1804303F5F043FA79013AD2B21A70FB79013BFB71FB79002BEFD1FB79DB0003F1804303F5F04300221A7000BF0C37BD4680BC704700BF07
:40258000D580FF1FD480FF1F80B485B000AF03460A46FB711346BB710123FB60FB79172B2FD8BB79002B0ED0FB791A01184B1344FA791101164A0A441278D2B242F020023D
:4025C000D2B21A700DE0FB791A01114B1344FA7911010F4A0A441278D2B222F02002D2B21A70FB791A010A4B1344FA791101084A0A441278D2B242F00102D2B21A7000234E
:40260000FB60FB6818461437BD4680BC704700BF1070004080B485B000AF0346FB710123FB60FB79172B1DD8FB791A01104B1344FA7911010E4A0A441279D2B242F0040214
:40264000D2B21A71FB791A01094B1344FA791101074A0A441278D2B242F00102D2B21A700023FB60FB6818461437BD4680BC70471070004080B485B000AF03460A46FB713F
:402680001346BB710123FB60FB79172B1BD8FB791A01104B13441B78DBB223F00E03FB72FB791A010B4B1344BA795200D2B252B202F00E0251B297F90B200A4352B2D2B29D
:4026C0001A700023FB60FB6818461437BD4680BC704700BF1070004080B485B000AF0346FB710B46BB8013467B800123FB60BB8841F6FF72934202D14FF40053BB807B88BE
:4027000041F6FF72934202D14FF400537B80FB79172B17D8FB79DB0003F1804303F5EC430433BB60BB68BA881A80FB79DB0003F1804303F5EC430633BB60BB687A881A8055
:402740000023FB60FB6818461437BD4680BC704780B485B000AF03460A46FB711346BB710123FB60FB79172B07D8FB791A01064B1344BA795A720023FB60FB681846143763
:40278000BD4680BC704700BF1070004090B484B000AF0446084611461A462346FB710346BB710B467B7113463B710123FB60FB79172B34D8FB79DB0003F1804303F5EC4334
:4027C000BA7902F07F02D1B27A79D201D2B20A43D2B21A70FB79DB0003F1804303F5EC433A7E1201D1B23A7902F00F02D2B20A43D2B25A70FB79DB0003F1804303F5EC438E
:402800003A7F02F00F02D2B29A70FB79DB0003F1804303F5EC430022DA700023FB60FB6818461037BD4690BC704700BF80B582B000AFFF23FB7100F0AEFC0346BB71104B5C
:402840001B78182B12D90F4B1B78FB710C4B1B78013BDAB20A4B1A70FB79DB0003F1804303F5F0431B78DAB2064B1A70BB79184600F095FCFB7918460837BD4680BD00BF5F
:40288000D480FF1FD580FF1F90B484B000AF0446084611461A462346FB710346BB800B46BB711346FB700123FB6097F90730002B23DBBB8823F47F6323F00F039BB2002BDB
:4028C0001BD1FB79DB0003F1804303F5F043BB60BB68BA881A80FB79DB0003F1804303F5F043BA799A70FB79DB0003F1804303F5F043FA78DA700023FB60FB6818461037C0
:40290000BD4690BC704700BF80B485B000AF0346FB710B46BB8013467B800123FB6097F90730002B17DBFB79DB0003F1804303F5F0430433BB60BB68BA881A80FB79DB00F1
:4029400003F1804303F5F0430633BB60BB687A881A800023FB60FB6818461437BD4680BC704700BF80B483B000AF0346FB7101BE00BF0C37BD4680BC704700BF80B582B07B
:4029800000AF786008E00C4B1B68184600F0E4FB7B68A3F500437B607B68B3F5004FF2D8064B1B687A6802FB03F3184600F0D4FB00BF0837BD4680BDE880FF1FE080FF1F5C
:4029C00080B582B000AF0346FB80FB88054A127802FB03F3184600F0BFFB00BF0837BD4680BD00BFE480FF1F80B584B000AF03463960FB710F4B1B68FB60FB791F2B02D9F0
:402A00000020FFF7AFFFFB7903F01F0310339B00FA6813441B68BB60FB7903F01F0310339B00FA6813443A681A60BB6818461037BD4680BD08ED00E080B582B000AF03469C
:402A40000A46FB711346BB71BB79072B02D90020FFF788FFFB791F2B02D90020FFF782FFFB7903F01F0303F1604303F56443BA795201D2B21A7000BF0837BD4680BD00BFB7
:402A800080B400AF054B1B78DBB203F004039B08DBB21846BD4680BC704700BF3151004080B500AF41F6FF734FF480420121022000F0AEFA03461A460A4B1A7041F6FF7325
:402AC00041F6FF720121042000F0D4FA03461A46054B1A70054800F0FFFA002000F00EFB00BF80BD8081FF1F8181FF1FC12C000080B582B000AF414B1B781846FFF78AFD20
:402B00003F4B1B781846FFF785FD3E4B1B78FF2B05D1FFF78BFE03461A463A4B1A70394B1878384B1A7806230421FFF7ADFE354B1B78354A92B245F6A2311846FFF7E4FE1D
:402B40002E4B1A782F4B1B7819461046FFF700FE2E4B1B78FF2B05D1FFF768FE03461A462A4B1A70294B1878284B1A7807230421FFF78AFE254B1B78234A91B2244A92B249
:402B80001846FFF7C1FE1E4B1A78204B1B7819461046FFF7DDFD194B1B7801211846FFF7F3FC174B1B7801211846FFF7EDFC00F0F2FA0346FB71174A164B1B78DBB243F02E
:402BC0002003DBB21370FB79184600F0E8FA124A114B1B78DBB243F00103DBB213700E4A0D4B1B78DBB243F00203DBB213700B4B01221A6000BF0837BD4680BD8081FF1F77
:402C00008181FF1FEC80FF1F8481FF1FED80FF1F3882FF1F926400407564004080E200E080B500AF084B1B68002B04D1FFF738FF054B01221A6000F0E7F8FFF759FF034B94
:402C40001B7800BF80BD00BF7C81FF1F6465004080B500AF00F08CF900BF80BD80B485B000AF0346FB71074B1B78FB73FB7B002B02D1FB79002BF6D0FB7B18461437BD4672
:402C800080BC70476465004080B483B000AF0346FB80FB88C3F10103074A32F913309AB2064B1B881BB29BB2D31A9BB21BB218460C37BD4680BC70473882FF1F3E82FF1F96
:402CC00080B400AF00BFBD4680BC704780B500AF064B1B78002B04D100F00AF8034B01221A7000F025F800BF80BD00BF8881FF1F80B400AF094B72221A70094B20221A7023
:402D0000084B06221A70084B47221A70074B00221A7000BFBD4680BC704700BF876500408764004029650040396500408364004080B582B000AF00F02EFA0346FB71114A6E
:402D4000104B1B78DBB243F02003DBB213700E4A0D4B1B78DBB243F01003DBB213700B4A0A4B1B78DBB243F01003DBB2137000F0D7F9FB79184600F012FA00BF0837BD469D
:402D800080BD00BF97650040976400409364004080B483B000AF0346FB7100BF074B1B78DBB203F00403002BF8D1054AFB79137000BF0C37BD4680BC704700BF636400407B
:402DC0004464004080B584B000AF78600023FB810C4B1B78002B10D009E0FB897A6813441B781846FFF7D4FFFB890133FB81FB897A6813441B78002BEFD100BF1037BD468F
:402E000080BD00BF8881FF1F80B500AF064B1B78002B04D100F00AF8034B01221A7000F01BF800BF80BD00BF8A81FF1F80B500AF074A074B1B78DBB243F00603DBB21370E0
:402E4000082000F06BF8034B00221A8000BF80BD095900404482FF1F80B582B000AF00F09AF90346FB71254A244B1B78DBB243F00203DBB21370224A214B1B78DBB243F08C
:402E80000203DBB213701F4B1B78BB71BB7943F00203BB71BB7943F00103BB71194ABB791370194B04221A70184A184B1B78DBB243F04003DBB21370144A144B1B78DBB22F
:402EC00023F00303DBB21370114BC8221A70114B02221A70104A104B1B78DBB243F00803DBB213700A20FFF76BFDFB79184600F056F900BF0837BD4680BD00BFAB430040E8
:402F0000BB4300400B5900400E5900400D59004008590040164600402F5B004080B584B000AF0346FB71FB790A2B07D00C2B02D0082B06D008E0C423FB730BE08423FB73BF
:402F400008E04423FB7305E0C423FB730020FFF709FD00BF054AFB7B1370FB79184600F017F800BF1037BD4680BD00BF0A59004080B400AF054A054B1B78DBB243F00103E5
:402F8000DBB2137000BFBD4680BC70470859004080B584B000AF0346FB71FB790A2B08D00C2B02D0082B08D00BE04FF48053FB600DE04FF48063FB6009E04FF48073FB6005
:402FC00005E00023FB600020FFF7CCFC00BF0C4B00221A80FB6842F2107202FB03F303F6BE23084A82FB0312D212DB17D31A064A1360064B00221A8000BF1037BD4680BD1B
:403000003C82FF1F2939535F4082FF1F3E82FF1F90B585B002AF0446084611461A462346FB710346BB710B46BB8013467B80104B01221A700E4B1878BA79F97900230193F1
:40304000002300930123FFF7A1FB094B1B787A88B9881846FFF740FB054B1B7802211846FFF708FB024B1B7818460C37BD4690BDEE80FF1F90B585B002AF04460846114657
:403080001A462346FB710346BB710B46BB8013467B80104B00221A700E4B1878BA79F97900230193002300930023FFF76FFB094B1B787A88B9881846FFF70EFB054B1B7897
:4030C00002211846FFF7D6FA024B1B7818460C37BD4690BDEF80FF1F80B485B000AF7860054B1B68FB60FB6840337A681A6000BF1437BD4680BC704708ED00E080B483B09F
:4031000000AF0346FB71054AFB795B01DBB2137000BF0C37BD4680BC704700BF00E400E080B400AF094A094B1B78DBB243F00203DBB21370064A064B1B78DBB243F0020396
:40314000DBB2137000BFBD4680BC7047A2430040B243004000000000142816D902B4012114381049097811F0C001890904B40E4A515C04BC00BF00BF00BF8841FDD500BF9F
:4031800000BF02BC704700BF00BF70F10400FCD570470B050709EFF3108072B6704780F310887047004800409231000080B582B000AF0023BB711B4B1B78DBB203F003030E
:4031C000012B02D0022B04D012E0164B1B79FB7111E0144B1B79DBB203F07F02124913465B0013449B000B440A331B78FB7102E00023FB7100BFFB79012B0ED80B4B1A687E
:40320000FB7913441B78032B04D1FEF73BF80346BB7102E00023BB7100BFBB7918460837BD4680BD00600040B881FF1F9C81FF1F80F0004002E000BF81F0004142001FBF3A
:403240005FEA410392EA030F7FEA226C7FEA236C6AD04FEA1262D2EB1363C1BFD218414048404140B8BF5B42192B88BF704710F0004F40F4000020F07F4018BF404211F034
:40328000004F41F4000121F07F4118BF494292EA030F3FD0A2F1010241FA03FC10EB0C00C3F1200301FA03F100F0004302D5494260EB4000B0F5000F13D3B0F1807F06D3E9
:4032C00040084FEA310102F10102FE2A51D2B1F1004F40EBC25008BF20F0010040EA03007047490040EB000010F4000FA2F10102EDD1B0FA80FCACF1080CB2EB0C0200FA99
:403300000CF0AABF00EBC25052421843BCBFD0401843704792F0000F81F4000106BF80F400000132013BB5E74FEA41037FEA226C18BF7FEA236C21D092EA030F04D092F03C
:40334000000F08BF0846704790EA010F1CBF0020704712F07F4F04D1400028BF40F00040704712F100723CBF00F50000704700F0004343F0FE4040F4000070477FEA2262AB
:4033800016BF08467FEA23630146420206BF5FEA412390EA010F40F4800070474FF0000304E000BF10F0004348BF40425FEA000C08BF704743F0964301464FF000001CE0F7
:4033C00050EA010208BF70474FF000030AE000BF50EA010208BF704711F0004302D5404261EB41015FEA010C02BF84460146002043F0B64308BFA3F18053A3F50003BCFA4E
:403400008CF2083AA3EBC25310DB01FA02FC634400FA02FCC2F12002BCF1004F20FA02F243EB020008BF20F00100704702F1200201FA02FCC2F1200250EA4C0021FA02F290
:4034400043EB020008BF20EADC7070474FEA4002B2F1FE4F0FD34FF09E03B3EB12620DD94FEA002343F0004310F0004F23FA02F018BF404270474FF00000704712F1610F7A
:4034800001D1420205D110F0004008BF6FF0004070474FF000007047014B1868704700BF5081FF1F0E4B70B51E460E4C0025E41AA410A54204D056F8253098470135F8E737
:4034C00001F03EF9084B094C1E46E41AA4100025A54204D056F8253098470135F8E770BD4C4700004C4700004C4700005447000010B5431E0A44914204D011F8014B03F883
:40350000014FF8E710BD03460244934202D003F8011BFAE7704700000EB400B54FF402719CB0ADF814106FF00041049107914FF6FF711DAB02900690084853F8042BADF887
:403540001610006802A9019300F064F8029B00221A701CB05DF804EB03B070475081FF1F2DE9F0478E6882469E420C46914698463ED88A8912F4906F3AD025680969022332
:403580006F1A656905EB450595FBF3F57B1C43449D4238BF1D4653050FD5294600F040FB064698B13A462169FFF7A2FFA38923F4906343F08003A38113E02A4600F08EFBB3
:4035C000064670B92169504600F0DEFA0C23CAF80030A3894FF0FF3043F04003A381BDE8F08726613E44266046466561ED1BA560464528BF464649463246206800F0A8FAF0
:40360000A36800209B1BA36023681E442660BDE8F08700002DE9F04F9DB003938B8980461C060D4616460DD50B695BB9402100F0F7FA2860286118B90C23C8F80030CDE0DA
:4036400040236B610023099320238DF82930DFF89CB130238DF82A3037463C4614F8013B1BB9B7EB060910D003E0252BF9D02746F3E74B46324629464046FFF771FF013061
:4036800000F0A780099B4B4409933B78002B00F0A08000234FF0FF3204930793059206938DF853301A930126052221784E4800F041FA671C049B38B14B4A3C46801A06FA29
:4036C00000F018430490EFE7D90644BF20228DF853201A0744BF2B228DF8532022782A2A03D0079A00210A200BE0039A111D12680391002A10DA524243F002000792049015
:403700000BE027463B780134303B092B03D800FB02320121F5E701B107923B782E2B1ED17B782A2B0AD1039B02371A1D1B680392002BB8BF4FF0FF33059310E000231946F6
:403740000593781C0A2407463A780130303A092A03D804FB01210123F5E703B1059103223978224800F0E6F940B14023CBEB000003FA00F0049B0137184304903978062237
:403780001B487E1C8DF8281000F0D4F988B1194B33B9039B073323F007030833039314E003AB00932A46144B04A94046AFF3008007E003AB00932A460F4B04A9404600F0D5
:4037C00093F8B0F1FF3F824603D0099B5344099342E7AB895B0601D4099801E04FF0FF301DB0BDE8F08F00BF0A470000104700001447000000000000613500002DE9F047D4
:4038000091461F460A698B6806469342B8BF1346C9F8003091F843200C46DDF8208012B10133C9F800302368990642BFD9F800300233C9F80030256815F0060510D104F1A4
:40384000190A07E00123524639463046C04701301AD00135E368D9F800209B1A9D42F1DB94F843302268003318BF012392060FD5E118302081F843005A1C94F845102244A4
:40388000023382F8431003E04FF0FF30BDE8F08704F1430239463046C0470130F4D02268D9F80050E36802F00602042A08BF5D1B2269A3680CBF25EAE57500259342C4BFCA
:4038C0009B1AED184FF000091A344D4509D00123224639463046C0470130D5D009F10109F3E70020BDE8F0872DE9F04317460A7E85B06E2A984606460C460C9B01F1430E34
:4039000000F0AE8011D8632A22D009D8002A00F0BB80582A40F0CA8081F84520834955E0642A1ED0692A1CD0C0E0732A00F0B08009D86F2A2ED0702A40F0B8800A6842F07A
:4039400020020A603EE0752A24D0782A3AD0ADE01A6801F14205111D1960136884F84230A8E021681A6811F0800F02D0111D196008E011F0400F02F10401196002D0B2F944
:40398000003000E01368002B3CDA2D225B4284F8432037E021681A6811F0800F02D0111D196007E011F0400F02F10401196001D0138800E01368227E5C496F2A14BF0A22F9
:4039C00008221BE078225A4984F845202268186812F0800F00F104051D6003D1550601D5038800E00368D00744BF42F0200222601BB9226822F0200222601022002084F805
:403A0000430001E049490A226568002DA56008DB206820F0040020602BB9002D7DD175460CE0002B79D07546B3FBF2F002FB1033CB5C05F8013D03460028F5D1082A0BD1FA
:403A40002368DA0708D5236962689A42DEBF302305F8013C05F1FF35C5EB0E0323612EE008681A6810F0800F496903D0101D1860136808E010F0400F02F1040018601368DD
:403A800001D0198000E0196000232361754616E01A68111D1960156800216268284600F049F808B1401B6060636804E004F1420584F8422001232361002384F84330CDF89F
:403AC00000803B4603AA21463046FFF797FE013002D14FF0FF3026E023692A4639463046C0470130F5D023689B0710D5002504F1190907E001234A4639463046C047013034
:403B0000E7D00135E368039A9B1A9D42F2DBE068039B9842B8BF184605E00B7804F1420584F842308AE705B0BDE8F0831B4700002C47000010B5C9B202449042034605D09F
:403B40001C7801308C42F8D1184610BD002010BD884210B501EB020301D8421E0BE09842FBD28118D21AD34204D013F8014D01F8014DF8E710BD994204D011F8014B02F8CE
:403B8000014FF8E710BD000038B50546002944D051F8043C0C1F002BB8BFE41800F0D4F81E4A1368114613B96360146030E0A3420DD92268A018834201BF18685B6812183A
:403BC000226063600C6023E0A24203D813465A68002AF9D118681918A1420BD12168014458188242196013D110685268014419605A600DE002D90C232B6009E0216860185E
:403C0000824201BF106852680918216062605C602846BDE8384000F098B838BD9081FF1F70B5CD1C25F0030508350C2D38BF0C25002D064601DBA94202D90C23336046E0F3
:403C400000F082F8234B1C681A462146A1B10B685B1B0ED40B2B03D90B60CC18CD501EE08C420BBF63684B681360636018BF0C4615E00C464968E9E7174C23681BB9304613
:403C800000F052F820602946304600F04DF8431C18D0C41C24F00304A0420DD12560304600F053F804F10B00231D20F00700C31A0ED05A42E25070BD211A304600F034F81E
:403CC0000130EBD10C233360304600F03EF8002070BD00BF9081FF1F8C81FF1FF8B5074615460E4621B91146BDE8F840FFF798BF1AB9FFF749FF2846F8BD00F027F8854205
:403D00000ED929463846FFF78BFF044650B131462A46FFF7EDFB31463846FFF735FF01E03046F8BD2046F8BD38B5064C0023054608462360FCF74CFC431C02D1236803B1AF
:403D40002B6038BD5082FF1F7047704751F8040C0028BEBF091851F8043CC01804387047000000004F70656E000000004D6F757365313A20256909205652583A2025690924
:403D8000205652593A2025690A00000020510040100040510040300000000140001000140140000800400140000A004C014000020050014020000000014500400452004099
:403DC000015B004003640040016500400E00014020010140120201403203014047040140460501402D060140420701403A0801404A090140090B0140030D0140020F014039
:403E00001614014030150140311601403F1701404518014049190140021B0140094001400641014002420140064301400845014001460140064701400548014007490140EF
:403E4000074C0140084D01400A500140025101407E0218011C0461807C402F848201830F873887725608580459045B045D905F0184019801B601B880BE40D804D904DF01AC
:403E800000440210030804D80820098A0A040D800E9816181F402A082E102F08318233083420364038943C163E405BA063058F01C0E7C2FFC460CA22CC3BCEFED60CD80C3D
:403EC0005602573D580459045B0C5F0180029E01B202B401BE04D401D804D904DB04DC01DD10DF01028004140B010D800E94168019242A082E062F083102330836403894FE
:403F00003A023C143E40581259045B805E206002628067806D526E026F1077067F0284049385949C96449E08A401A58AA640A708AF20B380B604C068C2F1C410CAE2CC13D1
:403F4000CE7FD62FD880DE1002010303150122022E04300432023302340135014062410445EB46C0480B49FF4AFF4BFF4EF04F44500C5804590C5A045D015F0166C06A4007
:403F80006B028008810485108648872089208A818B108D808F409001910294049501980299089E049F01A202A308A610A702AA20AB04AD40AF80B080B21FB420B5FFB640C1
:403FC000B808BB80BE04BF10D203D302D804D904DB04DC10DF010240040107140E96114215101640170A18A019021A541B1C1C971D8E1E801F4420082120220427092ECEA0
:404000002F4832043640375639023C043D5240804110480849084A8052206C046E206F027B028004822088018C108D0291509305949C965499209B169E8A9F80A101A20189
:40404000A405A58AA6F0A70AAC10AE20C078C2F0C479CAF0CCF2CEF1D005D204DE08E004E401580459045F0187028B048F01970499019F08A708B103B508B704BF50C02375
:40408000C104C206C405C6C0C70EC818C9FFCAFFCBFFCC62CDA0CEF0CF41D00CD418D804D904DA04DB04DC90DD11DF01E640E702E910EA30EB10ED10EE10EF120084010293
:4040C000030804140502068209080A040B800F281740210122A023402A042E842F483120324C350438203B443C84411443014A0A50105204590162A0808083808408890280
:404100008F8090149204938D950299269A029B419C809F80A040A128A31EA408AD18B410B508B640C0FFC26EC480CAF2CC4ECE5ED007D20CD601D80CE20AE607EA02EC085D
:40414000011405100604070C0A0C0C200D090F10111C121813021614174018011A021B201C031F0322082402260127402803290C2B112C182D102E043160321C340336204A
:40418000371F3A083E403F01580459045C115F0181018601880189019201940195019D01A601A701A901AD01B001B301BE01D804D904DF01001202200302041006100701DC
:4041C0000840091C0A800D480E040F4010221101121814041680174418801C101E051F28231025022640270128022A242B022E802F293040320836413724382139013C800F
:404200003D083F4240204220801083208508871088018A018C409021928098409A249B06A002A110A208A311A420AC20AF01B510B624B702C0EFC2FFC4FFCA7ECCFACED598
:40424000E080E612E810EC5080128240831088408C018E089B04E080E4509B04EA40EE208F04E41001010201040105010A010C0111011801190128012C01310136013F01E3
:404280005401580459045B0C5F01D804D904DF010014010B0251041407C008100C100F28120413801642194022012A572B102E022F0433693508374038123B043D013F28B9
:4042C0005A407B02854090169240930C960299029A029B41A33EAC08AD04AF41C07FC262C493CAAFCC5FCEE7D608DE08E810EA08580459045F0180408102841C853386E20D
:40430000870C890C8A048C1C8EE18F13913F92E39418950398E799049A189C849D08A010A101A408A8FFA91CAB23ACC0AD0FAF30B0C0B31CB41FB50FB638B720B980BAA085
:40434000BB20D602D713D804D904DB04DC11DD10DF0101A003A00414050206010B950F2810A91602180219911B2021102244230429902B802D022F0830A03108330135043F
:4043800037403B953C043E023F20460147405A0269406B2870A07310840185088B088D408F309014924093099528968899269A029B419D01A39EA920AA40AE02C0FFC26F57
:4043C000C48FCAADCC5FCEEFD601E202EA02EE020010040A052006240710082309010A040B0E0F0C1110136014031540160417101810190C1B031C101D70217022082440F5
:4044000026052703282329012A0C2B062F083060320F33703410350F38023A083B20580459045C115F01840288039403A601B403B820BE10C002C740C9FFCA07CBFFCC40D7
:40444000CD20CEF0CF05D008D804D904DA04DD01DF01E040E1A8E240E3200011022004180640086A09080D400E080F201022120813021408169018041C801D281F082408A5
:4044800026202720284029042A202CA02F09300232083620378538013A043C903E844004502052105301872188848A408C028D448E048F80901192049580970298609A2486
:4044C0009B069C069F20A002A208A310A460A508A620AD02B621B740C07EC2EFC47FCAF7CCF3CE73D004E050E490EE02AD20E810130416803220364039043E80C430CC3047
:40450000CE6086209504A660AF04E640E8409504A640850486409504A640E210E64020409440A420B020B440C802EA02EE04A4200B4084048B10A420C208E40124089A4093
:40454000AE40C820EE405280564086809A40B404D460E6101C0834029310A424AF40C601CC01102073109310A420B402C408DC01E80800030101080309010A030B010C031A
:4045800010031A031C03000B100A00000001000000000000000004008000408080008000000000004000000000000000C0000000000B0B0000000000040000040000000321
:4045C000030000001201000200000008B40411E0000001020001000009022200010100800A0904000001030000000921110100012232000705810308000A000004030904DD
:404600002C0343007900700072006500730073002000530065006D00690063006F006E0064007500630074006F0072001A0353007100750061007200650020004D006F0079
:404640007500730065000000320005010902A1010901A1000509190129031500250195037501810295017505810305010930093115802580750895028106C0C000000000DB
:40468000040000004C82FF1F4882FF1F000000008046000000000000000000000000000000000000010000004846000001000000EA450000010000008C4600000000810346
:4046C000080003000300000001000000D845000001000000BC46000001000000B446000000000000C446000001000000C4450000000000000000000001000000C84600006D
:4047000001000000E84600004300232D302B2000686C4C00656667454647003031323334353637383941424344454600303132333435363738396162636465660000000014
:40474000F8B500BFF8BC08BC9E4670474D000000B9060000F8B500BFF8BC08BC9E4670472900000078470000C880FF1F90000000000100000000000000000000050000004B
:404780005882FF1F807F000003000000006CDC0280BB0000300000000000C05DFFFFFFFF000000000000000000000000000000000000000000000000000000000000000031
:4047C000084700000000000000000000000000000000000000000000000000000000000000000000000000000000000000000000000000000000000000000000000000006A
:40480000F080FF1F000000000000000000000000000000000000000000000000000000000000000000000000000000000000000000000000000000000000000000000000EA
:404840000000000000000000000000000000000000000000000000000000000000000000000000000000000000000000000000000000000000000000000000000000000038
:4048800000000000000000000000000000000000000000000000000000000000000000000000000000000000000000000000000000000000000000000000000000000000F8
:4048C00000000000000000000000000000000000000000000000000000000000000000000000000000000000000000000000000000000000000000000000000000000000B8
:404900000000000000000000000000000000000000000000000000000000000000000000000000000000000000000000000000000000000000000000000000000000000077
:0200000480007A
:0200000490006A
:0400000000004005B7
:0200000490105A
:04000000BC90ACAF55
:0200000490303A
:02000000825923
:0200000490402A
:4000000000000000000000000000000000000000000000000000000000000000000000000000000000000000000000000000000000000000000000000000000000000000C0
:400040000000000000000000000000000000000000000000000000000000000000000000000000000000000000000000000000000000000000000000000000000000000080
:400080000000000000000000000000000000000000000000000000000000000000000000000000000000000000000000000000000000000000000000000000000000000040
:4000C0000000000000000000000000000000000000000000000000000000000000000000000000000000000000000000000000000000000000000000000000000000000000
:0200000490501A
:0C00000000012E16106900012E3092C283
:00000001FF