:400000000080002011000000CD050000CD05000080B500AF024A034B1B68136000F008FBBC760040FA46004010B5054C237833B9044B13B10448AFF300800123237010BD70
:400040005881FF1F0000000050260000084B10B51BB108490848AFF300800848036803B910BD074B002BFBD0BDE81040184700BF000000005C81FF1F50260000C880FF1FF6
:40008000000000000000000098B500AF00F0DCFC002000F0DFFC002000F0F2FC0346184601F0B2FB1AA3D3E9002301F03DFD03460C46184621464FF00002194B01F00AFC8B
:4000C00003460C461846214613A3D3E9002301F04DFA03460C46134AC2E90034124B1B68184601F081FB0F4B18CB1A46234601F03FFA03460C461846214601F025FE034664
:400100009BB2184601F07CF900BF98BDAFF300800000000000C05F400000000000F8914000B08D407881FF1FCC80FF1F90B59BB000AF62B601F0CAF800F06EFC00F00EFBF5
:400140000C4800F087FB0C4801F092F90B4B18CB1846214601F0D0FD02463B1D0849184601F052FE3B1D184600F074FB012001F077F8EBE754260000890000007881FF1F1B
:400180006026000080B582B000AF786039603A680021786801F02FFE00BF0837BD4680BD80B584B000AFF860B9607A607A68B968F86801F015FE00BF1037BD4680BD00BF64
:4001C00080B584B000AFF860B9607A607A68B968F86801F005FE00BF1037BD4680BD00BF80B483B000AF0346FB71FEE780B487B000AF7860396000233B6100237B6127E040
:400200007B699B007A6813441B68BB60BB68FB73BB6823F0FF03BB6014E03B695B003A6813441B781A46BB68134419463B695B003A6813445B780B703B6901333B61FB7B9C
:40024000013BFB73FB7B002BE7D17B6901337B617B69222BD4D900BF1C37BD4680BC704780B582B000AF3A4B19221A80394B1C221A70394B17221A80384B19221A70384BC3
:4002800019221A80374B19221A70374B40F604521A80364B1B221A70354B06221A70354B52221A70344B354A1278D2B21A70344B4FF4E2621A80334B41F251221A8000236B
:4002C000FB7019237B6014E0FB785B00DAB22E4B1B78DBB203F00103DBB21343DBB203F00303FB704FF4F07001F012F97B68013B7B607B68002B02D0FB78032BE4D17B6818
:40030000002B02D10320FFF76BFF204B4FF480721A801E4B07221A701D4B00221A701D4B48221A70194B00221A701B4B00221A701A4B02221A701A4A194B1B78DBB243F026
:400340000F03DBB2137000BF0837BD4680BD00BF80400040824000408440004086400040884000408A4000408C4000408E4000400043004000420040A14600400F010049A1
:400380002242004020420040254200400440004006400040084000400940004001400040A243004080B582B000AF1F4B1B78FB711E4B1B78BB711E4B1B787B711D4AFB7925
:4003C00003F00703DBB213701B4AFB791B09DBB21370164ABB7943F00303DBB21370144A7B7943F00303DBB21370144B03221A70134B40221A70134B40221A70124B30221A
:400400001A70124B20221A700A2000F04BFF084A7B791370054ABB7913700D4B44221A7000BF0837BD4680BDCF010049F8460040F94600406E5800406F5800403D5100405F
:40044000095900400B590040285B00402B5B00407658004080B582B000AF72B6424A424B1B78DBB243F00403DBB213700023FB7113E0FA7913465B0013445B003B4A1344A7
:400480003B603B681A683B689B889BB219461046FFF778FEFB790133FB71FB79062BE8D933493448FFF7A2FE04213348FFF76AFE042232493248FFF783FE324A314B1B7825
:4004C000DBB243F00203DBB213702F4A2E4B1B78DBB243F00203DBB213702C4A2B4B1B78DBB243F04003DBB21370294A284B1B78DBB243F01003DBB21370082225492648D9
:40050000FFF75EFE0A2225492548FFF759FE082224492548FFF754FE082224492448FFF74FFE0A2223492448FFF74AFE234A234B1B78DBB243F00803DBB21370204B60220B
:400540001A70FFF78DFE1E4BC0221A701D4B01221A70FFF727FF0E220C491B48FFF720FE00BF0837BD4680BDE84600406C260000242700009826000000760040142F00002E
:40058000087600400350014013500140A0430040C2430040182F000002510040202F0000C05100402C2F0000F2510040342F0000125100403C2F00003051004022430040AE
:4005C0000048004004000840B043004080B500AF01F0DAFB03461B680C2B00D1FEE7FEE780B584B000AF78600F4B1A687B6813441A460E4BD31A802B09DC0B4B1B68FB603C
:40060000094B1A687B681344074A136007E001F0BBFB02460C2313604FF0FF33FB60FB6818461037BD4680BDD080FF1FB081FF1F80B586B000AF224B7B61224B3B61204BC6
:400640007B6135E03B691B68FB603B695B68BB603B699B683B6000237B600CE0FB681A68BB681A60BB680433BB60FB680433FB607B6804337B607A683B689A42EED13B69B4
:40068000DB683B6000237B6008E0BB6800221A60BB680433BB607B6804337B607A683B689A42F2D13B6910333B617B69013B7B617B69002BC6D101F06DFBFFF737FDFEE79C
:4006C00001000000A02F000080B582B000AF194B194A1A60194A194B1B6843F40073136000237B600FE07B68032B04D8144A7B6852F8233000E0134B13497A6841F82230AD
:400700007B6801337B607B682F2BECD90F4B1B78DAB20F4B1A700F4B0B4A1A60FFF79AFE00F076FB0C4B00221A6000BF0837BD4680BD00BF0CED00E00004FA0514ED00E0A3
:4007400000000000CD0500000080FF1FBC760040C480FF1F08ED00E0C080FF1F80B500AF064B1B78002B04D100F00AF8034B01221A7000F025F800BF80BD00BF8081FF1F66
:4007800080B400AF094B72221A70094B20221A70084B06221A70084B47221A70074B00221A7000BFBD4680BC704700BF8B64004088640040286400403864004088650040D7
:4007C00080B582B000AF00F0C2FE0346FB71114A104B1B78DBB243F02003DBB213700E4A0D4B1B78DBB243F01003DBB213700B4A0A4B1B78DBB243F01003DBB2137000F00C
:4008000061F9FB79184600F0A6FE00BF0837BD4680BD00BF9B640040986400409865004080B483B000AF0346FB7100BF074B1B78DBB203F00403002BF8D1054AFB79137013
:4008400000BF0C37BD4680BC704700BF686500404865004080B584B000AF78600023FB810C4B1B78002B10D009E0FB897A6813441B781846FFF7D4FFFB890133FB81FB892B
:400880007A6813441B78002BEFD100BF1037BD4680BD00BF8081FF1F80B500AF41F6FF734FF480420121022000F02AFA03461A460A4B1A7041F6FF7341F6FF720121042054
:4008C00000F050FA03461A46054B1A70054800F07BFA012000F08AFA00BF80BD8881FF1F8981FF1FB90A000080B582B000AF414B1B78184600F000FB3F4B1B78184600F0FD
:40090000FBFA3E4B1B78FF2B05D100F001FC03461A463A4B1A70394B1878384B1A780623042100F023FC354B1B78354A92B245F6A231184600F05AFC2E4B1A782F4B1B78DB
:400940001946104600F076FB2E4B1B78FF2B05D100F0DEFB03461A462A4B1A70294B1878284B1A780723042100F000FC254B1B78234A91B2244A92B2184600F037FC1E4B51
:400980001A78204B1B781946104600F053FB194B1B780121184600F069FA174B1B780121184600F063FA00F0D2FD0346FB71174A164B1B78DBB243F02003DBB21370FB79F8
:4009C000184600F0C8FD124A114B1B78DBB243F00103DBB213700E4A0D4B1B78DBB243F00203DBB213700B4B02221A6000BF0837BD4680BD8881FF1F8981FF1FD480FF1FBA
:400A00008C81FF1FD580FF1F9C81FF1F956400407665004080E200E080B500AF084B1B68002B04D1FFF738FF054B01221A6000F063F8FFF759FF034B1B7800BF80BD00BF3E
:400A40008481FF1F6765004080B500AF00F008F900BF80BD80B485B000AF0346FB71074B1B78FB73FB7B002B02D1FB79002BF6D0FB7B18461437BD4680BC7047676500405C
:400A800080B483B000AF0346FB80FB88C3F10103074A32F913309AB2064B1B881BB29BB2D31A9BB21BB218460C37BD4680BC70479C81FF1FA281FF1F80B400AF00BFBD4649
:400AC00080BC704780B400AF094A094B1B78DBB243F00403DBB21370064A064B1B78DBB243F00403DBB2137000BFBD4680BC7047A2430040B243004080B500AF064B1B782D
:400B0000002B04D100F00AF8034B01221A7000F01BF800BF80BD00BF9081FF1F80B500AF074A074B1B78DBB243F00603DBB21370082000F06BF8034B00221A8000BF80BD67
:400B400009590040A881FF1F80B582B000AF00F0FEFC0346FB71254A244B1B78DBB243F00203DBB21370224A214B1B78DBB243F00203DBB213701F4B1B78BB71BB7943F0C1
:400B80000203BB71BB7943F00103BB71194ABB791370194B04221A70184A184B1B78DBB243F04003DBB21370144A144B1B78DBB223F00303DBB21370114BC8221A70114BA2
:400BC00002221A70104A104B1B78DBB243F00803DBB213700A2000F065FBFB79184600F0BAFC00BF0837BD4680BD00BFAB430040BB4300400B5900400E5900400D590040D8
:400C000008590040164600402F5B004080B584B000AF0346FB71FB790A2B07D00C2B02D0082B06D008E0C423FB730BE08423FB7308E04423FB7305E0C423FB73002000F00A
:400C400003FB00BF054AFB7B1370FB79184600F017F800BF1037BD4680BD00BF0A59004080B400AF054A054B1B78DBB243F00103DBB2137000BFBD4680BC704708590040B7
:400C800080B584B000AF0346FB71FB790A2B08D00C2B02D0082B08D00BE04FF48053FB600DE04FF48063FB6009E04FF48073FB6005E00023FB60002000F0C6FA00BF0C4B45
:400CC00000221A80FB6842F2107202FB03F303F6BE23084A82FB0312D212DB17D31A064A1360064B00221A8000BF1037BD4680BDA081FF1F2939535FA481FF1FA281FF1FBE
:400D000090B585B002AF0446084611461A462346FB710346BB710B46BB8013467B80104B01221A700E4B1878BA79F9790023019300230093012300F09BF9094B1B787A887B
:400D4000B988184600F03AF9054B1B780221184600F002F9024B1B7818460C37BD4690BDD680FF1F90B585B002AF0446084611461A462346FB710346BB710B46BB80134674
:400D80007B80104B00221A700E4B1878BA79F9790023019300230093002300F069F9094B1B787A88B988184600F008F9054B1B780221184600F0D0F8024B1B7818460C37AB
:400DC000BD4690BDD780FF1F80B485B000AF7860054B1B68FB60FB6844337A681A6000BF1437BD4680BC704708ED00E080B483B000AF0346FB71054AFB795B01DBB213700B
:400E000000BF0C37BD4680BC704700BF01E400E080B483B000AF134B7F221A70124B80221A707F23FB710CE0FB79DB0003F1804303F5F043FA79013AD2B21A70FB79013B77
:400E4000FB71FB79002BEFD1FB79DB0003F1804303F5F04300221A7000BF0C37BD4680BC704700BFD980FF1FD880FF1F80B485B000AF03460A46FB711346BB710123FB6005
:400E8000FB79172B2FD8BB79002B0ED0FB791A01184B1344FA791101164A0A441278D2B242F02002D2B21A700DE0FB791A01114B1344FA7911010F4A0A441278D2B222F0D1
:400EC0002002D2B21A70FB791A010A4B1344FA791101084A0A441278D2B242F00102D2B21A700023FB60FB6818461437BD4680BC704700BF1070004080B485B000AF0346B1
:400F0000FB710123FB60FB79172B1DD8FB791A01104B1344FA7911010E4A0A441279D2B242F00402D2B21A71FB791A01094B1344FA791101074A0A441278D2B242F00102B8
:400F4000D2B21A700023FB60FB6818461437BD4680BC70471070004080B485B000AF03460A46FB711346BB710123FB60FB79172B1BD8FB791A01104B13441B78DBB223F0E5
:400F80000E03FB72FB791A010B4B1344BA795200D2B252B202F00E0251B297F90B200A4352B2D2B21A700023FB60FB6818461437BD4680BC704700BF1070004080B485B0E3
:400FC00000AF0346FB710B46BB8013467B800123FB60BB8841F6FF72934202D14FF40053BB807B8841F6FF72934202D14FF400537B80FB79172B17D8FB79DB0003F180433B
:4010000003F5EC430433BB60BB68BA881A80FB79DB0003F1804303F5EC430633BB60BB687A881A800023FB60FB6818461437BD4680BC704780B485B000AF03460A46FB715B
:401040001346BB710123FB60FB79172B07D8FB791A01064B1344BA795A720023FB60FB6818461437BD4680BC704700BF1070004090B484B000AF0446084611461A462346C3
:40108000FB710346BB710B467B7113463B710123FB60FB79172B34D8FB79DB0003F1804303F5EC43BA7902F07F02D1B27A79D201D2B20A43D2B21A70FB79DB0003F18043CB
:4010C00003F5EC433A7E1201D1B23A7902F00F02D2B20A43D2B25A70FB79DB0003F1804303F5EC433A7F02F00F02D2B29A70FB79DB0003F1804303F5EC430022DA70002373
:40110000FB60FB6818461037BD4690BC704700BF80B582B000AFFF23FB7100F018FA0346BB71104B1B78182B12D90F4B1B78FB710C4B1B78013BDAB20A4B1A70FB79DB0017
:4011400003F1804303F5F0431B78DAB2064B1A70BB79184600F0FFF9FB7918460837BD4680BD00BFD880FF1FD980FF1F90B484B000AF0446084611461A462346FB71034688
:40118000BB800B46BB711346FB700123FB6097F90730002B23DBBB8823F47F6323F00F039BB2002B1BD1FB79DB0003F1804303F5F043BB60BB68BA881A80FB79DB0003F1F1
:4011C000804303F5F043BA799A70FB79DB0003F1804303F5F043FA78DA700023FB60FB6818461037BD4690BC704700BF80B485B000AF0346FB710B46BB8013467B800123BB
:40120000FB6097F90730002B17DBFB79DB0003F1804303F5F0430433BB60BB68BA881A80FB79DB0003F1804303F5F0430633BB60BB687A881A800023FB60FB68184614371F
:40124000BD4680BC704700BF80B483B000AF0346FB7101BE00BF0C37BD4680BC704700BF80B582B000AF786008E00C4B1B68184600F04EF97B68A3F500437B607B68B3F50F
:40128000004FF2D8064B1B687A6802FB03F3184600F03EF900BF0837BD4680BDEC80FF1FE480FF1F80B582B000AF0346FB80FB88054A127802FB03F3184600F029F900BF45
:4012C0000837BD4680BD00BFE880FF1F80B500AF064B1B78002B04D100F00AF8034B01221A7000F04FF800BF80BD00BF9181FF1F80B582B000AF204B1B78DBB223F03F035D
:40130000FB711D4AFB7943F00B03DBB213701B4A1A4B1B78DBB243F00103DBB21370184A174B1B78DBB243F00103DBB2137044F6206000F037F844F6206000F051F844F2B7
:40134000506000F05DF8002000F06AF800F0FFF80346BB710A4A0A4B1B78DBB243F01003DBB21370BB79184600F0F5F800F02AF800BF0837BD4680BD7B6500409A6500406D
:401380009B65004080B400AF054A054B1B78DBB263F07F03DBB2137000BFBD4680BC70477B65004080B483B000AF0346FB80044AFB88138000BF0C37BD4680BC704700BF9C
:4013C000146A004080B500AF01E000F045F800F037F8034603F01003002BF6D100BF80BD80B483B000AF0346FB80044AFB88138000BF0C37BD4680BC704700BF946A0040AE
:4014000080B483B000AF0346FB80044AFB88138000BF0C37BD4680BC704700BF546A004080B483B000AF0346FB71044AFB79137000BF0C37BD4680BC704700BF8B650040C2
:4014400080B400AF034B1B78DBB21846BD4680BC704700BF6B65004080B400AF034B1B889BB21846BD4680BC704700BFB46A004080B582B000AF786000F03CF8786800F084
:4014800009F8072000F018F800F028F800BF0837BD4680BD80B485B000AF7860054B1B68FB60FB6840337A681A6000BF1437BD4680BC704708ED00E080B483B000AF034632
:4014C000FB71054AFB795B01DBB2137000BF0C37BD4680BC704700BF00E400E080B400AF034B01221A6000BFBD4680BC704700BF00E100E080B400AF034B01221A6000BF46
:40150000BD4680BC704700BF80E100E000000000142816D902B4012114381049097811F0C001890904B40E4A515C04BC00BF00BF00BF8841FDD500BF00BF02BC704700BF31
:4015400000BF70F10400FCD570470B050709EFF3108072B6704780F310887047004800404A15000081F0004102E000BF83F0004330B54FEA41044FEA430594EA050F08BF5F
:4015800090EA020F1FBF54EA000C55EA020C7FEA645C7FEA655C00F0E2804FEA5454D4EB5555B8BF6D420CDD2C4480EA020281EA030382EA000083EA010180EA020281EA2A
:4015C0000303362D88BF30BD11F0004F4FEA01314FF4801C4CEA113102D0404261EB410113F0004F4FEA03334CEA133302D0524263EB430394EA050F00F0A780A4F10104E0
:40160000D5F1200E0DDB02FA0EFC22FA05F2801841F1000103FA0EF2801843FA05F359410EE0A5F120050EF1200E012A03FA0EFC28BF4CF0020C43FA05F3C01851EBE371B0
:4016400001F0004507D54FF0000EDCF1000C7EEB00006EEB0101B1F5801F1BD3B1F5001F0CD349085FEA30004FEA3C0C04F101044FEA445212F5800F80F09A80BCF1004F67
:4016800008BF5FEA500C50F1000041EB045141EA050130BD5FEA4C0C404141EB010111F4801FA4F10104E9D191F0000F04BF01460020B1FA81F308BF2033A3F10B03B3F15D
:4016C00020020CDA0C3208DD02F1140CC2F10C0201FA0CF021FA02F10CE002F11402D8BFC2F1200C01FA02F120FA0CFCDCBF41EA0C019040E41AA2BF01EB0451294330BDCF
:401700006FEA04041F3C1CDA0C340EDC04F11404C4F1200220FA04F001FA02F340EA030021FA04F345EA030130BDC4F10C04C4F1200220FA02F001FA04F340EA0300294656
:4017400030BD21FA04F0294630BD94F0000F83F4801306BF81F480110134013D4EE77FEA645C18BF7FEA655C29D094EA050F08BF90EA020F05D054EA000C04BF1946104663
:4017800030BD91EA030F1EBF0021002030BD5FEA545C05D14000494128BF41F0004130BD14F580043CBF01F5801130BD01F0004545F0FE4141F470014FF0000030BD7FEAE4
:4017C000645C1ABF194610467FEA655C1CBF0B46024650EA013406BF52EA033591EA030F41F4002130BD00BF90F0000F04BF0021704730B54FF4806404F132044FF0000521
:401800004FF0000150E700BF90F0000F04BF0021704730B54FF4806404F1320410F0004548BF40424FF000013EE700BF42004FEAE2014FEA31014FEA02701FBF12F07F4309
:4018400093F07F4F81F06051704792F0000F14BF93F07F4F704730B54FF4607401F0004521F0004120E700BF50EA010208BF704730B54FF000050AE050EA010208BF7047FF
:4018800030B511F0004502D5404261EB41014FF4806404F132045FEA915C3FF4DCAE4FF003025FEADC0C18BF03325FEADC0C18BF033202EBDC02C2F1200300FA03FC20FA5F
:4018C00002F001FA03FE40EA0E0021FA02F11444C1E600BF70B54FF0FF0C4CF4E06C1CEA11541DBF1CEA135594EA0C0F95EA0C0F00F0DEF82C4481EA030621EA4C5123EAB4
:401900004C5350EA013518BF52EA033541F4801143F4801338D0A0FB02CE4FF00005E1FB02E506F00042E0FB03E54FF00006E1FB03569CF0000F18BF4EF0010EA4F1FF0477
:40194000B6F5007F64F5407404D25FEA4E0E6D4146EB060642EAC62141EA55514FEAC52040EA5E504FEACE2EB4F1FD0C88BFBCF5E06F1ED8BEF1004F08BF5FEA500E50F123
:40198000000041EB045170BD06F0004646EA010140EA020081EA0301B4EB5C04C2BFD4EB0C0541EA045170BD41F480114FF0000E013C00F3AB8014F1360FDEBF002001F00D
:4019C000004170BDC4F10004203C35DA0C341BDC04F11404C4F1200500FA05F320FA04F001FA05F240EA020001F0004221F0004110EBD37021FA04F642EB06015EEA430E74
:401A000008BF20EAD37070BDC4F10C04C4F1200500FA04F320FA05F001FA04F240EA020001F0004110EBD37041F100015EEA430E08BF20EAD37070BDC4F1200500FA05F261
:401A40004EEA020E20FA04F301FA05F243EA020321FA04F001F0004121FA04F220EA020000EBD3705EEA430E08BF20EAD37070BD94F0000F0FD101F00046400041EB01016B
:401A800011F4801F08BF013CF7D041EA060195F0000F18BF704703F00046520043EB030313F4801F08BF013DF7D043EA0603704794EA0C0F0CEA135518BF95EA0C0F0CD001
:401AC00050EA410618BF52EA4306D1D181EA030101F000414FF0000070BD50EA410606BF1046194652EA430619D094EA0C0F02D150EA013613D195EA0C0F05D152EA03364B
:401B00001CBF104619460AD181EA030101F0004141F0FE4141F470014FF0000070BD41F0FE4141F4780170BD70B54FF0FF0C4CF4E06C1CEA11541DBF1CEA135594EA0C0F83
:401B400095EA0C0F00F0A7F8A4EB050481EA030E52EA03354FEA013100F088804FEA03334FF0805545EA131343EA12634FEA022245EA111545EA10654FEA00260EF00041E3
:401B80009D4208BF964244F1FD0404F5407402D25B084FEA3202B61A65EB03055B084FEA32024FF480104FF4002CB6EB020E75EB030E22BFB61A754640EA0C005B084FEA86
:401BC0003202B6EB020E75EB030E22BFB61A754640EA5C005B084FEA3202B6EB020E75EB030E22BFB61A754640EA9C005B084FEA3202B6EB020E75EB030E22BFB61A75461B
:401C000040EADC0055EA060E18D04FEA051545EA16754FEA06164FEAC30343EA52734FEAC2025FEA1C1CC0D111F4801F0BD141EA00014FF000004FF0004CB6E711F4801F4A
:401C400004BF01430020B4F1FD0C88BFBCF5E06F3FF6AFAEB5EB030C04BFB6EB020C5FEA500C50F1000041EB045170BD0EF0004E4EEA113114EB5C04C2BFD4EB0C0541EA60
:401C8000045170BD41F480114FF0000E013C90E645EA060E8DE60CEA135594EA0C0F08BF95EA0C0F3FF43BAF94EA0C0F0AD150EA01347FF434AF95EA0C0F7FF425AF104641
:401CC00019462CE795EA0C0F06D152EA03353FF4FDAE1046194622E750EA410618BF52EA43067FF4C5AE50EA41047FF40DAF52EA43057FF4EBAE12E74FEA410212F5001262
:401D000015D211D56FF47873B3EB625212D94FEAC12343F0004343EA505311F0004F23FA02F018BF404270474FF00000704750EA013005D111F0004008BF6FF000407047E4
:401D40004FF00000704700BF4A0011D212F5001211D20DD56FF47873B3EB62520ED44FEAC12343F0004343EA505323FA02F070474FF00000704750EA013002D14FF0FF3056
:401D800070474FF000007047014B1868704700BF5081FF1F0E4B70B51E460E4C0025E41AA410A54204D056F8253098470135F8E701F0E4F8084B094C1E46E41AA410002530
:401DC000A54204D056F8253098470135F8E770BD882F0000882F0000882F0000902F000010B5431E0A44914204D011F8014B03F8014FF8E710BD03460244934202D003F8E8
:401E0000011BFAE7704700000EB400B54FF402719CB0ADF814106FF00041049107914FF6FF711DAB02900690084853F8042BADF81610006802A9019300F064F8029B0022F3
:401E40001A701CB05DF804EB03B070475081FF1F2DE9F0478E6882469E420C46914698463ED88A8912F4906F3AD02568096902236F1A656905EB450595FBF3F57B1C4344FA
:401E80009D4238BF1D4653050FD5294600F040FB064698B13A462169FFF7A2FFA38923F4906343F08003A38113E02A4600F08EFB064670B92169504600F0DEFA0C23CAF8A3
:401EC0000030A3894FF0FF3043F04003A381BDE8F08726613E44266046466561ED1BA560464528BF464649463246206800F0A8FAA36800209B1BA36023681E442660BDE859
:401F0000F08700002DE9F04F9DB003938B8980461C060D4616460DD50B695BB9402100F0F7FA2860286118B90C23C8F80030CDE040236B610023099320238DF82930DFF807
:401F40009CB130238DF82A3037463C4614F8013B1BB9B7EB060910D003E0252BF9D02746F3E74B46324629464046FFF771FF013000F0A780099B4B4409933B78002B00F0AA
:401F8000A08000234FF0FF3204930793059206938DF853301A930126052221784E4800F041FA671C049B38B14B4A3C46801A06FA00F018430490EFE7D90644BF20228DF896
:401FC00053201A0744BF2B228DF8532022782A2A03D0079A00210A200BE0039A111D12680391002A10DA524243F00200079204900BE027463B780134303B092B03D800FBD5
:4020000002320121F5E701B107923B782E2B1ED17B782A2B0AD1039B02371A1D1B680392002BB8BF4FF0FF33059310E0002319460593781C0A2407463A780130303A092A9B
:4020400003D804FB01210123F5E703B1059103223978224800F0E6F940B14023CBEB000003FA00F0049B013718430490397806221B487E1C8DF8281000F0D4F988B1194B61
:4020800033B9039B073323F007030833039314E003AB00932A46144B04A94046AFF3008007E003AB00932A460F4B04A9404600F093F8B0F1FF3F824603D0099B5344099324
:4020C00042E7AB895B0601D4099801E04FF0FF301DB0BDE8F08F00BF482F00004E2F0000522F000000000000511E00002DE9F04791461F460A698B6806469342B8BF1346E9
:40210000C9F8003091F843200C46DDF8208012B10133C9F800302368990642BFD9F800300233C9F80030256815F0060510D104F1190A07E00123524639463046C04701305B
:402140001AD00135E368D9F800209B1A9D42F1DB94F843302268003318BF012392060FD5E118302081F843005A1C94F845102244023382F8431003E04FF0FF30BDE8F0873F
:4021800004F1430239463046C0470130F4D02268D9F80050E36802F00602042A08BF5D1B2269A3680CBF25EAE57500259342C4BF9B1AED184FF000091A344D4509D0012371
:4021C000224639463046C0470130D5D009F10109F3E70020BDE8F0872DE9F04317460A7E85B06E2A984606460C460C9B01F1430E00F0AE8011D8632A22D009D8002A00F0A9
:40220000BB80582A40F0CA8081F84520834955E0642A1ED0692A1CD0C0E0732A00F0B08009D86F2A2ED0702A40F0B8800A6842F020020A603EE0752A24D0782A3AD0ADE09C
:402240001A6801F14205111D1960136884F84230A8E021681A6811F0800F02D0111D196008E011F0400F02F10401196002D0B2F9003000E01368002B3CDA2D225B4284F89D
:40228000432037E021681A6811F0800F02D0111D196007E011F0400F02F10401196001D0138800E01368227E5C496F2A14BF0A2208221BE078225A4984F8452022681868F7
:4022C00012F0800F00F104051D6003D1550601D5038800E00368D00744BF42F0200222601BB9226822F0200222601022002084F8430001E049490A226568002DA56008DBA5
:40230000206820F0040020602BB9002D7DD175460CE0002B79D07546B3FBF2F002FB1033CB5C05F8013D03460028F5D1082A0BD12368DA0708D5236962689A42DEBF30236A
:4023400005F8013C05F1FF35C5EB0E0323612EE008681A6810F0800F496903D0101D1860136808E010F0400F02F104001860136801D0198000E0196000232361754616E044
:402380001A68111D1960156800216268284600F049F808B1401B6060636804E004F1420584F8422001232361002384F84330CDF800803B4603AA21463046FFF797FE01308A
:4023C00002D14FF0FF3026E023692A4639463046C0470130F5D023689B0710D5002504F1190907E001234A4639463046C0470130E7D00135E368039A9B1A9D42F2DBE06814
:40240000039B9842B8BF184605E00B7804F1420584F842308AE705B0BDE8F083592F00006A2F000010B5C9B202449042034605D01C7801308C42F8D1184610BD002010BD74
:40244000884210B501EB020301D8421E0BE09842FBD28118D21AD34204D013F8014D01F8014DF8E710BD994204D011F8014B02F8014FF8E710BD000038B50546002944D0E8
:4024800051F8043C0C1F002BB8BFE41800F0D4F81E4A1368114613B96360146030E0A3420DD92268A018834201BF18685B681218226063600C6023E0A24203D813465A6834
:4024C000002AF9D118681918A1420BD12168014458188242196013D110685268014419605A600DE002D90C232B6009E021686018824201BF106852680918216062605C602D
:402500002846BDE8384000F098B838BD9881FF1F70B5CD1C25F0030508350C2D38BF0C25002D064601DBA94202D90C23336046E000F082F8234B1C681A462146A1B10B68F0
:402540005B1B0ED40B2B03D90B60CC18CD501EE08C420BBF63684B681360636018BF0C4615E00C464968E9E7174C23681BB9304600F052F820602946304600F04DF8431CDF
:4025800018D0C41C24F00304A0420DD12560304600F053F804F10B00231D20F00700C31A0ED05A42E25070BD211A304600F034F80130EBD10C233360304600F03EF80020FD
:4025C00070BD00BF9881FF1F9481FF1FF8B5074615460E4621B91146BDE8F840FFF798BF1AB9FFF749FF2846F8BD00F027F885420ED929463846FFF78BFF044650B1314661
:402600002A46FFF7EDFB31463846FFF735FF01E03046F8BD2046F8BD38B5064C0023054608462360FDF7DCFF431C02D1236803B12B6038BDAC81FF1F7047704751F8040CB6
:402640000028BEBF091851F8043CC018043870470000000055415254204F70656E0A000074656D703A25690A00000000205100401000405100403000000001400010001499
:402680000140000800400140000A004C01400002005001402000000006520040015B0040036400400265004001010140060201401D0301403C040140410501403206014016
:4026C0004A070140350801404E090140310A0140370B0140191401403115014015160140351701403E1801403E1901404E1A01403B1B01400B40014003410140034201403F
:40270000034301400245014002460140074801400E490140064C01400A4D01400B50014002510140180219011C046080618078012F84850188388B72880F8B0D87045804E4
:4027400059045F01D804D904DF0100800328050509010A020BC00E280F40101013801481289129042C012F2831013328348035043B803C803D029704C037C279C495CA7B9B
:40278000CC57CE9801200D3F150A171119011B061D3F26012D142F093120331835073601580459045C205F0181028404850189208A048B108C208D808F4091049410970145
:4027C000980899089D409E119F80A110A240A320A620A702AA02AB04AE88AF08B07CB201B480B602B7FFB802BB20BE01BF40D602D735D804D904DB0CDC20DF010584060815
:402800000E2A110415141602170219801A021C801D011E2C1FE8210222142404270A28022C012D802F6830803214348035043601379039813D203E4A5F2065206D346E420F
:402840006F11760A7F0280808140850189028A108B408D808E10960297849C819D059F80A002A440A614A728B002C0E0C2E0C4F4CAF8CCFECEF9D620D820DE10E20D0A0180
:40288000130131013201580459045F01820187088B0897029B01A304A904AF02B108B303B401B504BF05C014C102C203C406C5E0C70CC812C9FFCAFFCBFFCC62CDA0CEF0DA
:4028C000CF41D00CD608D80CD90CDA04DB04DD92DF01E640E702E910EA30EB10ED10EE10EF120102058506080E241501178019101D04210122082304250127C02802291277
:402900002D812F8832143504378138283C803E044004410242224A084B01500458406002794081018202830188038D049024922C9704980199819A289B019C029D249FA0AB
:40294000A042A102A210A388A702A810AA20AF08B204B501B604C0F8C260C490CABDCCD6CE56D00FD204D608D808DE08E001E401E604E808EA04022004010503060E082020
:4029800009030E0C121016081A101C0C1E031F0120202102240126062A032E20302031033210360F380239023A803E043F014001464049FF4A074BFF4C404D204EF04F05FE
:4029C00050085418580459045A045B045C025D225F01604061A862406320D804D904DF01024003010404055109010A200C200E410F20104012211408158116201E411F444A
:402A0000274029202A402D402F683080322435A03688370139403A013C243E203F8047404E8057105E0264026708802081108220830889018B118C048D2191C1922894081B
:402A400095029720984099119A41A080A209A360A501A620AB10AD01AF10B108B540B611B740C0F9C2FCC4FDCAFCCCFECE79D010D680D830E030E420E8C0EC4058045904EF
:402A80005F0181108450870488F989188A068C048D3C8F0290CE911C9231932194FF950898F099279B189C0E9EF1A0A0A13FA402A504A740A806AEF1AF23B007B208B33873
:402AC000B4C6B540B630B71FBA22BB80BE04D602D711D804D904DB04DC22DD20DF0105180602084009010A200DC00E480F10108012291401150217281D111E62240425C0CB
:402B0000271028402C012D012F103080322835113708380839403A013C043D803E225E206C0A6D087622772880088104840288418A4C8B208C808E04C0E0C2FDC4FFCAD1A4
:402B4000CCEECEFBD620E0C0E4E0EE80130115011F012101250129012D0131015608580459045B045D905F018F01910195019D01A101A501A901B501D804D904DF01008410
:402B800003480404050508210A040C010E0412011480162017402102270428A12A212B882E042F88310533403401350437403C805A806240850288408F049284980199053B
:402BC0009B409C409E40A040A388C03FC25AC4B1CAEFCCDBCE10D608D808E612E810EE0452035302580459045B045F0182029201A401A804AC04B003B404B820BE10D401A7
:402C0000D804D904DB0CDC09DF01024005850A400C100E04100A132414801620174019221A40289029802A202B882D802E042F8831053340350437403C805B806C086D40DF
:402C40006F0279408784928493049540980199859B409C409D229F20A042A388A702B101B640C0B8C248C4B7CAFFCC5BCE10D608DE08E810004001DC020503220403051463
:402C80000604082309100A040B401423150C160C17711B031C0A1E242109220823D02480281029102BAC2F203010320F331F348035E0366038803A083B203E1140354102D5
:402CC000450E46C0470B481949FF4AFF4BFF4EF04F44500C5401580459045A045B045C225D225F0166C06A406B02D804D904DF01026106A0072809010A280D080E0110809A
:402D0000150517101C201D491E081F482404252027182A402D812E802F48308032243718380839403A013E093F2045284D84562857205C025E885F208D01900891409229A3
:402D4000940499809A419D40A080A101A2A0A310A410B002B408B680C07DC2AEC478CAB8CC6ECEEBD060D210D6F0E82010011601280136014030410249FF4AFF4BFF4DA09A
:402D80004F045018580459045A045C015D015F01604062C06440654066C068C06AC06CC06EC08302850189028A02950296029C049F02A101A702A804AD01AE01B101B201FE
:402DC000B402B604B702BE10BF40C030C102C5D0C620C710C83AC9FFCAFFCBFFCDAFCE0FCF04D018D280D405D804D904DA04DB04DC11DD11DF01E040E2C0E440E540E6C05A
:402E0000E8C0EAC0ECC0EEC0041009090F221008160817401A021C101D081E081F40244026402A402F623080322436803708380839403A013C203E094010412045284D014D
:402E400054085521560857135C405D015E08774086019008914092099A419B08A090A2A0A320A640AC02AD04C040C2ACC4C2CAD8CC5ECEEBD066D6D0E280E810EE0412204B
:402E80001680338037203B023E808720C430CC30CE60E2409702A220A7809702A220A7809702A220A7802020C802B010EE01240857089702A780B620C820D4401B80561033
:402EC0005B20861087088F20A788AB01B404C640D4C0E240E640EE201F8034028C02C601CC01E402104074028840A002AB80B402C408DE04E201E8080005010108010A0572
:402F00000B010C05100711011A011B011C07000F100A00000001000000000000000004008000408080008000000000000001010001000000000B0B00000000000400000462
:402F40000000000303004300232D302B2000686C4C00656667454647003031323334353637383941424344454600303132333435363738396162636465660000F8B500BFA9
:402F8000F8BC08BC9E4670474D000000C9060000F8B500BFF8BC08BC9E46704729000000B02F0000C880FF1F90000000580000000000000044480000B081FF1FFFFFFFFF36
:402FC000807F000003000000006CDC0280BB0000300000000000C05D0000000000000000000000000000000000000000000000000000000000000000462F00000000000088
:403000000000000000000000000000000000000000000000000000000000000000000000000000000000000000000000000000000000000000000000F080FF1F0000000002
:403040000000000000000000000000000000000000000000000000000000000000000000000000000000000000000000000000000000000000000000000000000000000050
:403080000000000000000000000000000000000000000000000000000000000000000000000000000000000000000000000000000000000000000000000000000000000010
:4030C00000000000000000000000000000000000000000000000000000000000000000000000000000000000000000000000000000000000000000000000000000000000D0
:40310000000000000000000000000000000000000000000000000000000000000000000000000000000000000000000000000000000000000000000000000000000000008F
:0200000480007A
:0200000490006A
:0400000000004005B7
:0200000490105A
:04000000BC90ACAF55
:0200000490303A
:02000000DC4DD5
:0200000490402A
:4000000000000000000000000000000000000000000000000000000000000000000000000000000000000000000000000000000000000000000000000000000000000000C0
:400040000000000000000000000000000000000000000000000000000000000000000000000000000000000000000000000000000000000000000000000000000000000080
:400080000000000000000000000000000000000000000000000000000000000000000000000000000000000000000000000000000000000000000000000000000000000040
:4000C0000000000000000000000000000000000000000000000000000000000000000000000000000000000000000000000000000000000000000000000000000000000000
:0200000490501A
:0C00000000012E16106900012E27ECB63E
:00000001FF