:020000041008E2
:4000000000780408EB0208100D00000051030810510308105103081051030810000000000000000000000000000000004D0308104D030810000000004D0308104D030810DA
:400040004D0308104D0308104D0308104D0308104D0308104D0308104D0308104D0308104D0308104D0308104D0308104D0308104D0308104D0308104D0308104D03081000
:400080004D0308104D0308104D0308104D0308104D0308104D0308104D0308104D0308104D0308104D0308104D0308104D0308104D0308104D0308104D0308104D030810C0
:4000C0004D0308104D0308104D0308104D0308104D0308104D0308104D0308104D0308104D0308104D0308104D0308104D0308104D0308104D0308104D0308104D03081080
:400100004D0308104D0308104D0308104D0308104D0308104D0308104D0308104D0308104D0308104D0308104D0308104D0308104D0308104D0308104D0308104D0308103F
:400140004D0308104D0308104D0308104D0308104D0308104D0308104D0308104D0308104D0308104D0308104D0308104D0308104D0308104D0308104D0308104D030810FF
:400180004D0308104D0308104D0308104D0308104D0308104D0308104D0308104D0308104D0308104D0308104D0308104D0308104D0308104D0308104D0308104D030810BF
:4001C0004D0308104D0308104D0308104D0308104D0308104D0308104D0308104D0308104D0308104D0308104D0308104D0308104D0308104D0308104D0308104D0308107F
:400200004D0308104D0308104D0308104D0308104D0308104D0308104D0308104D0308104D0308104D0308104D0308104D0308104D0308104D0308104D0308104D0308103E
:400240004D0308104D0308104D0308104D0308104D0308104D0308104D0308104D0308104D0308104D0308104D0308104D0308104D0308104D0308104D0308104D030810FE
:400280004D0308104D0308104D03081010B5054C237833B9044B13B10448AFF300800123237010BD4C490208000000007C350810084B10B51BB108490848AFF30080084805
:4002C000036803B910BD074B002BFBD0BDE81040184700BF00000000504902087C35081018430208000000007047FFF7FDFF72B6104C114DAC4209DA21686268A368043BE5
:40030000A2BFC858D050FAE70C34F3E70B490C4A00209142BCBF41F8040BFAE709480A490860BFF34F8F00F0BBF900F095F900F01DF8FEE780350810983508104C490208E7
:40034000104C02080040020808ED00E0FEE7FEE700B504207146084202D0EFF3098001E0EFF30880043002F007F8FEE72DE9F0419EB062B600F032FA02F072F802F032F980
:4003800002F0A0F8012000F0F3F900F0DFF9322677E0304602F0CCF80A246AE0C4F30B033E4AC2F80431012001F0B2FF00F0CEF9012000F0EDF93A4B1B6803EB83039A00D8
:4003C000384B1A44536823B94FF47C71364801F0C3FF0021354801F029FB0546304B1B6803EB83039A002F4B1A445368012B04D84FF47C712C4801F0AFFF01212B4801F0B6
:4004000015FB0746264B1B6803EB83039A00254B1A445368022B04D84FF47C71224801F09BFF0221214801F001FB80461C4B1B6803EB83039A001B4B1A445368032B04D8E6
:400440004FF47C71184801F087FF0321174801F0EDFA039402960190CDF800803B462A46134905A802F0D4F805A9124801F058FB283440F6FE739C4290D9012001F048FF6E
:400480000136452E85D90020044BC3F8040102F04FF84FF4FA5001F03BFF78E700001441E84A0208043008104C2F081000001D416C2F08100000664008B5012001F0CCF8FB
:4004C00008BD00BF704700BF5C4AD2F8803303F00F0303F1D00152F8212002F00702032A04D0042A05D092B9554914E0554A116811E003F1C002514951F8222002F01F02B7
:40050000112A06D0132A04D04FF4FA4103E04E4901E04FF400418BBB484BD3F8902502F00100D3F88825C2F30172D3F8883513F0405F07D0414BD3F88835C3F30173012BE5
:4005400002D102E0012300E0002303B108B9032A46D13A48D0F88025C2F31103D0F88425C2F30C02D0F88005C0F300600130B1FBF2F202FB03F2B2FBF0F131E0012B2FD11C
:400580002E4BD3F8402602F00100D3F80026C2F30172D3F8003613F0405F07D0274BD3F80036C3F30173012B02D102E0012300E0002303B108B9032A12D12048D0F800268B
:4005C00002F07F02D0F80036C3F30423D0F80006C0F3044002FB01F2B2FBF3F2B2FBF0F1164BD3F88033C3F3011321FA03F215494A601648D0F89030C3F3072301330069B4
:40060000000E0130B2FBF0F08860B2FBF3F3CB600B6103F5742202F23F220D48A0FB0202C2F387420A7503F2E7330A4AA2FB03239B098B61DB03CB61704700BF000026406C
:4006400000127A008C42020800366E010000214083DE1B43D34D621008B50D4801F0F0FEFFF730FFFFF730FF00221146042000F0BBFD084800F04EFE074B1B6893F85130D2
:4006800013B1064800F0B6FE00F0F8FC08BD00BF0834081068490208D04B0208842F081008B501F0C6FE074AD2F8883043F47003C2F88830BFF34F8FBFF36F8F01F0BDFED0
:4006C00008BD00BF00ED00E038B504461D4B1A68916892F8703003F0010343F08043C1F800340369FF2B0AD89168B2F874200A44516821F47F411B029BB20B435360114B39
:400700001A68906892F87310032303FA01F592F8703092F8721003FA01F1294303F001030B4343F00043C0F800349368D3F80034054D0021284601F0A5F8A168284600F011
:40074000A1FF38BDD04B020800001D4108B5074B5B6813F4802F04D00121044801F0DAF808BD0021014801F0D5F808BD00001D41012805D1054A536843F480235360704777
:40078000024A536823F480235360704700001D4108B50146034801F0D3F808B1002008BD012008BD00001D4108B5084B1B7963B90749084801F072FD044B5B792BB90122D9
:4007C000024B5A710448FFF77FFF08BDE84A020809080810B82F08100430081008B5084B1B7913F0010F06D1FFF7DEFF044A137943F001031371034801F07CF808BD00BF82
:40080000E84A020800001D4110B5094BD3F81042072C04D940F23161064801F09DFD044BC3F81042D3F81022D3F8103210BD00BF00001D41C82F081070B50E4614460546BE
:4008400020B94FF489715C4801F086FD24B940F21311594801F080FD002D00F0A780002C00F0A680731EDBB2022B04D94FF48F71514801F071FD23683BB1B3F1804F04D061
:4008800040F21F114C4801F067FD2379032B04D94FF49071484801F05FFD637943B1082B06D0102B04D040F22111434801F054FDE3883BB1B3F5006F04D04FF491713E48FF
:4008C00001F04AFD23896BB1B3F5807F0AD0B3F5007F07D0B3F5407F04D040F22311364801F03AFDA37A33B1802B04D04FF49271314801F031FDE37A33B1402B04D040F222
:4009000025112D4801F028FD237B33B1202B04D04FF49371284801F01FFD23682B60227961790A43E3881A4323891A43A37A1A43E37A1A43237B134311B94FF4805200E001
:4009400000221343012E01D0032E14D16B606279082A01D1032200E00122C5F8082FAA6A617B09B1012100E000210A43AA622A6A42F001022A62023EF6B2012E1AD8AB6094
:400980006379082B01D1032300E00123C5F8143FAB6A627B0AB1022200E000221343AB622B6A43F002032B62002070BD034870BD024870BD002070BD9030081001002E00FC
:4009C000002800F0E081F0B5032840F0D980032921D809B9072A0AD9012901D10F2A06D9022901D1032A02D9032914D19AB9BA4B1D68AE6895F8710001FA00F7032404FAF8
:400A000000F307EA030095F870301340034343F08043C6F80034B04B1B6893F83F0037281ED903291CD809B9072A0AD9012901D10F2A06D9022901D1032A02D903290FD168
:400A400072B99D6893F8710001FA00F6032404FA00F0304093F8703013400343C5F8DC3C012922D871B9072A56D89B4B18688468B0F87430234453F8220020F47F4043F80E
:400A8000220049E0012947D10F2A45D8924B1B689868B3F87630184450F8223023F47F0323F47F4340F8223036E002291BD1032A32D8894C23689868B3F87830184450F8F5
:400AC000223023F47F0323F47F4340F8223020688468B0F87830234453F8220020F0F80043F8220018E0032916D1AAB97A4C20688568B0F87A302B4453F82200C0B243F827
:400B0000220020688468B0F87A30234453F8220020F0F80043F82200032900F2338109B9072A0DD9012901D10F2A09D9022901D1032A05D9032940F02581002A40F02281CB
:400B4000654B1D68AC6895F87360032000FA06F795F8703095F8726003FA06F63E4395F87170B940B840014031431A4041EA020343F00043C4F80034AB68D3F80034F0BDE9
:400B8000032921D809B9072A0AD9012901D10F2A06D9022901D1032A02D9032914D19AB94D480668B76896F8714001FA04FE032505FA04F00EEA000496F870001040204397
:400BC00040F08040C7F800044348006890F83F40372C1ED903291CD809B9072A0AD9012901D10F2A06D9022901D1032A02D903290FD172B9866890F8714001FA04F7032563
:400C000005FA04F43C4090F8700010402043C6F8DC0C012932D8A9B9072A00F28480FF2B00F281802C480468A568B4F87400284450F8224024F47F441B029BB2234340F810
:400C4000223070E001296ED10F2A6CD8B3F5803F69D2214800688468B0F87600044454F8220020F47F0020F47F401B0223F07F4323F0FF03034344F8223054E002292DD11B
:400C8000032A50D8B3F5803F4DD205981F284AD8114D28688468B0F87800044454F8220020F47F0020F47F401B0223F07F4323F0FF03034344F822302B689868B3F878307C
:400CC000184450F8223023F0F804059BDB00DBB2234340F8223026E0D04B0208032922D10ABBB3F1807F1ED205981F281BD8264D28688468B0F87A00044454F82200C0B245
:400D000040EA032344F822302B689868B3F87A30184450F8223023F0F804059BDB00DBB2234340F8223003292CD809B9072A0AD9012901D10F2A06D9022901D1032A02D9D1
:400D400003291FD1F2B9104B1D68A86895F87360032404FA06F795F8703095F8726003FA06F63E4395F87170B940BC40214031431A4041EA020343F00043C0F80034AB68FD
:400D8000D3F80034F0BD7047D04B020870B582B00C46054618B94921544801F0DDFA1CB94A21524801F0D8FA002D00F09A80002C00F099802378012B03D958214B4801F06F
:400DC000CBFA636833B1B3F1807F03D05921474801F0C2FA237A042B03D95A21434801F0BBFA638963B1B3F5807F09D0B3F5007F06D0B3F5407F03D05B213C4801F0ACFAB1
:400E0000E3687BB1B3F5800F0CD0B3F5400F09D0B3F1006F06D0B3F1086F03D05C21334801F09AFA237C012B03D95D212F4801F093FA636933B1B3F1804F03D05E212B4802
:400E400001F08AFAA3693F2B03D95F21274801F083FAA36903F03F0263891343217A8A1ED2B2022A01D843F08053042901D143F000536268134362691A43E66816432378EB
:400E8000012B02D10023012201E001230022217C012902D142F4807201E043F4807394F82410A9620121A962C5F8B020C5F8B430E369C3F30B03C5F80031236AC3F30B0384
:400EC000C5F8043194F8253043B1E36AA26A94F82610207A246B0094FFF772FD2E60002002E0034800E0024802B070BDCC300810010066001F4B98422DD00CD840282ED004
:400F000003D8E8B1102828D02FE0802829D0B0F5807F28D029E0184B984228D006D8B0F1204F0DD0154B984212D01EE0144B98420AD00133984209D0023B984215D101E0C6
:400F4000002070470F4870470F4870470F4870474FF4A0007047074870470D4870470D4870470D487047034870470C4870474FF4A400704706005200010000F0090000A00F
:400F8000040000F0010052000200520003005200010050000200500005005200FF00520038B5124B1B6893F83130012B04D840F2C3110F4801F0D0F90C4B1D682A6AB5F801
:400FC000B03013442C46D5F8B420D358002B0BDB084B1868FFF78EFF6B6801229A6063689B68002BFBD138BD034838BDD04B02080C310810F04A0208020050001A4B18613D
:4010000028B102230370FF23437000234380174B1B6893F850202AB300B583B0B3F93830ADF80030002301931149684601F036F9BDF90030002B08DB590903F01F03012289
:4010400002FA03F30B4A42F82130084B1B6893F8513023B102220849012000F077FA03B05DF804FB704700BFF04A0208D04B02088943020800E100E04144020808B50248DE
:40108000FFF7BCFF08BD00BF044B020838B50B4B1B68D3F8B4301B58002B0DDA0D4604460B0C1B0423B140F2D521054801F054F9A9B26160002038BD024838BDD04B0208B9
:4010C0004C31081001008A0038B50368002B01DA002300E0094B73B90D460446C2600B0C1B0423B140F2BB21054801F035F9A9B2A160002038BD014838BD00BF01008A00B3
:401100004C31081038B504460D4619B99921084801F022F9074B1B68D3F8B4301B59002B03DAE3682B60002038BD034838BD00BF8C310810D04B020801008A00254B1B6846
:4011400093F8313083423AD900293AD00B6813F01F0F38D170B50D4604461E4B1B6893F83130984204D340F2C3111B4801F0F4F8184B1B68186AB3F8B03004FB0304174EDC
:4011800034602A68D2080021686801F039FA00212046FFF77BFF346825B940F293310E4801F0DAF82A4600212046FFF78DFF60B900210A4B1868FFF769FF40B970BD08483E
:4011C00070470748704706487047064870BD054870BD00BFD04B02084C310810084B020803018A0001018A0010B504461346B2B9A9B9124B1B6893F83130984204D340F264
:40120000C3110F4801F0A8F80C4B1B681A6AB3F8B03004FB03240B4B1C60002010BD43B149B1084A51609360111D2046FFF786FF10BD054810BD044810BD00BFD04B02084D
:401240004C310810084B020803018A002DE9F0411B4B1B68DC68236883422CD90D464609A0EB4610012303FA00F819B901F0E1F8074600E00027124B18680368002B01DA4B
:40128000002300E00F4B83B9626852F8263018EA030F05D023EA080342F82630002400E0094C0021FFF7F2FE00E0084C25B9384601F0C3F800E0064C2046BDE8F08100BF91
:4012C000084B020801008A00020188000301880004018A000B4B1B68DB681A6882420CD94109A0EB4110012202FA00F05B6853F82130184203D00448704704487047044806
:40130000704700BF084B02080101880004018A0000018800024B1B680BB9014B18607047144B02082DE9F8430446884691461D46089F2C4B1B681BB9B5212B4801F00CF86A
:40134000284B1B682C2000FB04F01C18EEB21E50C5F3072363602D0CA560244B1B6893F831309E4204D340F2C311214800F0F4FF1E4B1B68196AB3F8B02006FB02162661A6
:40138000666893F832309E4204D340F2DF11184800F0E2FF154B1B681D6A803605EB46156561A668330C1B0423B14FF4FF71104800F0D2FF330C1B0423B140F2FF110C4863
:4013C00000F0CAFFB3B243EA0646AE60C4F81C90C4F820800023A36117B1B7F90030A381BDE8F883144B0208CC310810D04B02084C310810F0B58FB0044618B95221274858
:4014000000F0AAFFA369072B03D95621234800F0A3FFE36A1BB95821204800F09DFF236B1BB959211D4800F097FF07AD04F114060FCE0FC537682F6002AD26460FCE0FC5C2
:4014400033682B60164B1B68B3F93620079B1344ADF83030089B0D93A26AE16A0CAD00953B460A98FFF75EFF00210091069B0A460598FFF757FF216B284600F00FFFBDF9CA
:401480003030002B08DB590903F01F03012202FA03F3044A42F821300FB0F0BDCC310810D04B020800E100E0F8B506460F461D4614461AB9FD211F4800F04EFF1E4B1B6866
:4014C0001BB9FE211B4800F047FF1B4B1B682C2101FB063001FB07314B68012202FA03F31B04466802FA06F60269EAB18F69EFB91268002A01DA002200E0104AC2B9228891
:40150000134323600369DC6001238B614D620469330C1B0423B140F2BB21094800F01CFFB2B2A2600020F8BD0648F8BD0648F8BD0548F8BDCC310810144B020801008A0016
:401540004C31081004028A0007028A00F8B505460F4616460E4B1B6823B94FF4AF710D4800F0FAFE0A4B1B682C2404FB0534236A23B94FF4B171074800F0EEFEE369B34218
:4015800004D9236A43F826700020F8BD0248F8BD144B0208CC3108100A028A0070B582B000230193044620B940F2D111284800F0D3FE236923B94FF4E971254800F0CCFE66
:4015C000636923B940F2D311214800F0C5FE236A23B94FF4EA711E4800F0BEFE6369DD682A0C20D012041A601B682069194B1B68D3F8B430C358002B15DA01A9FFF782FD3B
:4016000060B9019803681E0CDBB2E269934206D2226A52F8233013B1984700E0002631462069FFF733FDADB275B16369ADB21D601B68636A1BB198470023636202E0A36AE7
:4016400003B198470023A36163691B6802B070BDCC310810D04B020810B50446074B1B6823B940F2B111064800F076FE034B1B682C2000FB0430FFF791FF10BD144B0208DA
:40168000CC3108102DE9F8430E46074618B93A21754800F061FE1EB93B21734800F05CFE002F00F0DA80002E00F0DA8032686F4B13401BB14A216C4800F04EFE72686C4B63
:4016C00013401BB14B21684800F046FEB36813F0FC2F03D04C21644800F03EFEF36813F0FC2F03D04D21604800F036FE337D032B03D94E215C4800F02FFEB369B3F5803F17
:4017000003D34F21584800F027FEF36D072B03D95021554800F020FE336EB3F5803F03D35121514800F018FE736EB3F5803F03D352214D4800F010FE736843F000437B60E5
:40174000B3683B61F3687B613369BB61337D9B07FB61B3693B62336803F46068736803F00409002435E02546A31D06EB83035A68404B13401BB163213B4800F0EDFDAB1D37
:4017800006EB8303596805F1200247F822105B6813F0012F0BD1B8F5606F08D1B9F1000F05D04FF47842344B23F8152003E00022314B23F81520726F02F11C7303F5803308
:4017C000520093FBF2F31BB22C4A42F825300134E4B20F2CC7D9F36DC7F81832F36DC7F81032336EC7F82832336EC7F82032736EC7F83832736EC7F8303296F87030DBB1B0
:40180000B36EB3F1804F03D38221174800F0A4FDF36E23F44F0323F0FF031BB18321124800F09AFD6FF04043C7F80433B36EC7F80033F36EC7F84433D7F8003F3F2B02D0AF
:40184000D7F8003F13B90B23C7F8003F336843F400133B600020BDE8F8830948BDE8F8830748BDE8F88300BF0C3208100811DF0001FE302088CA887E704B0208904B020864
:401880000100060038B50D46044618B9B521174800F062FD2CB30023236063604FF0031222616261A361E361236206E003F12002002144F822100133DBB20F2BF6D900231B
:4018C000C4F81832C4F82832C4F838325DB16FF04043C4F804330020C4F84003C4F8440338BD034838BD002038BD00BF0C3208100100060008B50368002B0ADBD0F8A03269
:40190000002BFBDB036843F000430360022000F017FD08BD38B505460C46012904D940F27111064800F018FD012C04D16B6843F480336B6038BD01236B6238BD0C32081024
:4019400038B504460D46012904D94FF4F071114800F002FDD4F8103203F00103012D06D00AE0D4F8103203F00103013A00E00A4A1BB9002AF5D100E0074A33B10123C4F8CA
:401980001032D4F81032002038BD0AB9034838BD034838BD0C32081055555501020006000300060038B505460C460F2904D94FF41571084800F0D0FC0F2C07D8203455F8E9
:4019C000243013F0012F03D0002038BD002038BD012038BD0C32081038B505460C460F2904D940F22221104800F0B6FC0F2C14D821462846FFF7D6FF80F0010010F0FF0FA3
:401A000005D06B6813F0080F09D1002038BD6B6813F0040F05D1002038BD002038BD012038BD012038BD00BF0C32081070B506460D460F2904D94FF428710A4800F08CFC4C
:401A40000F2D05D805F1600356F82340A4B200E0002429463046FFF7BFFF08B120B270BD204670BD0C32081010B4D0F8003303F00F03072B06D900230DE0D0F84043CC545F
:401A8000013300E000239342F7D306E0D0F8404321F8134001339342F8D35DF8044B704710B51446D0F80833C3F308039A4200D31C462246FFF7D8FF204610BD10B4D0F89C
:401AC000003203F00F03072B06D900230DE0CC5CC0F84042013300E000239342F7D306E031F81340C0F8404201339342F8D35DF8044B704710B51446036813F4006F01D0BA
:401B0000802200E04022D0F80832C3F30803D31AA34200D81C462246FFF7D0FF204610BD30B4036813F4006F01D0802200E04022002408E0D0F80832C3F308039A42F9D0A4
:401B4000C0F8405201340D5D002DF3D130BC70472DE9F84305460C46036813F4006F02D04FF0800801E04FF04008D5F8007207F00F07A26A012A19D9D4F82490E262561E6B
:401B8000B9F1000F00D026B940F27351254800F0E3FB324649462846FFF7ACFFA36A1B1AA362072F00D9400048446062D5F80832C3F30803984533D0A36A012B30D100238D
:401BC000A362072F02D8636A1E7801E0636A1E8800F02FFCC5F840624FF40073C5F8803FD5F8803F00F029FCD5F8883F23F4007222F0010242F4007623F4EE6323F003036D
:401C000023B140F23641084800F0A6FBC5F8886F236843F002032360236B0BB101209847BDE8F88348320810883208102DE9F04105460C46036813F4006F01D0802600E062
:401C400040267608A769D4F81C8017B1B8F1000F04D14FF49961314800F07EFB424639462846FFF71DFF236A03442362E3691B1AE36173BBA368FBB1E3689E4201D8013EC7
:401C800000E05E1E2B6813F4006F01D0802300E040239E4204D34FF42371214800F05CFBD5F8043323F0FF03F6B21E43C5F804630123C5F8C83F02E00023C5F8C83F636808
:401CC00023F001036360236B33B304209847BDE8F081A169D5F8002302F00F02072A00D940000844A0619E4216D95C1E2B6813F4006F01D0802300E040239C4204D34FF4E8
:401D00002371074800F028FBD5F8043323F0FF02E3B21343C5F80433BDE8F0814832081088320810002800F0A48170B50546002900F0A18116460C460B78022B03D93F21BA
:401D4000A24800F009FB637B023BDBB2062B03D940219E4800F000FBA37B3BB1022B05D0032B03D04121994800F0F6FA94F82130012B03D94221954800F0EEFA94F828308D
:401D8000012B03D94321914800F0E6FA2378012B06D86368083B082B94BF0023012307E0A37F2BB16368013B062B94BF002301231BB14521854800F0CFFAA368053B042BA5
:401DC00003D94621814800F0C7FA6369FF2B03D947217E4800F0C0FAA369FF2B03D948217A4800F0B9FAA37C6BB1237833B9A368092B05D1A37B2BB1012304E0012302E0BD
:401E0000012300E000231BB14A21704800F0A4FA636B23F4366323F00D031BB14C216B4800F09AFAE36B23F4EE6323F003031BB14D21664800F090FA2378022B01D1A37F00
:401E400013B16268013A00E00022237F13B14FF4803100E00021A368082B02D84FF4006300E000230B4302F00F02134343F000732B60226B2B6813F4006F01D0802300E0B9
:401E800040239A4203D36221504800F065FAA26B2B6813F4006F01D0802300E040239A4203D36321494800F057FA626A2B6813F4006F01D0802300E040239A4203D364210B
:401EC000424800F049FA23781B0603F040732B64637F0BB1402200E00022A37C13B14FF4806300E000231343227C12B14FF4807200E000221343627C12B14FF4007200E0AC
:401F000000221A43E36A013B1B0403F470231343627B013A02F007021343A27B120102F030021343AB64237B13B14FF4807200E00022E37B23B92378022B03D1012302E003
:401F4000012300E0002313B14FF4007300E000231A43A368013B03F00F031343C5F80033227DA3691B0403F47F031343C5F81033E26AD5F8003303F00F0303339A4201D3FE
:401F8000102A03D97A21114800F0E6F9E37F23B12378012B03D0002302E0002300E0012313B14FF4807200E00022637B013B03F007031A43A37B1B0103F0300313436B6458
:401FC000237B2BB14FF4807203E000BFCC3208100022A368013B03F00F0313432278012A02D14FF4803200E000221343C5F8003294F83030C5F8043394F8203013B14FF023
:40200000007200E0002294F82130012B02D14FF0807300E00023134394F82820012A02D14FF4803200E00022134394F8242013432B6594F83830C5F80432636B23F492632F
:4020400023F002031B051B0DC5F8C83FE36B23F08C035B055B0DC5F8883F76B1002070603060B060F0603062F0623063044B736370BD04487047034870BD002070BD00BFA9
:40208000EFCDAB000160AA000B694A69934202D34869181A7047CA684869101A184470472DE9F04107460D46036813F4006F02D04FF0800801E04FF040084FEA5808D7F8F2
:4020C0000863C6F308062C6926E00134EB689C4200D100246B699C420FD12B6B0BB1082098476B699C4208D10023C7F8C83F0CB1013C13E0EC68013C10E0D7F84023D7F8EA
:40210000003303F00F03072B02D8AB681A5502E0AB6823F81420013E002ED6D12C61EC6829463846FFF7B0FF201A804519D908B1441E00E000243B6813F4006F01D0802371
:4021400000E040239C4204D34FF42371064800F003F9D7F8040320F0FF03E0B21843C7F80403BDE8F08100BF8832081038B504460D46D0F8003E13F0080F35D0D0F8CC3F92
:4021800013F448730AD04A681A434A60C0F8C03FD0F8C03F0B6B0BB110209847D4F8CC3F13F4006F09D06B6843F400636B604FF40063C4F8C03FD4F8C03FD4F8CC3F13F0A7
:4021C000010F11D0EB6923B129462046FFF72EFD05E0AB681BB129462046FFF761FF0123C4F8C03FD4F8C03FD4F8003E13F0040F2ED0D4F88C3F13F4A0630AD02A681A43AF
:402200002A60C4F8803FD4F8803F2B6B0BB120209847D4F88C3F13F0010F08D029462046FFF796FC0123C4F8803FD4F8803FD4F88C3F13F4007F0BD00022C4F8882F2B6874
:4022400023F001032B60EA622B6B0BB10220984738BD00BF38B50D4B9A680D4B9A420FD10D46044621B940F237110A4800F074F804F11003064A52F8230042F8235038BD08
:402280001030054B53F8200038BD00BF00ED00E0004002080C3308100000081048B338B504460D464368072B03D93221134800F053F8B4F900306268002B08DB5201D2B236
:4022C00003F1604303F5614383F8002305E003F00F035201D2B20A49CA540A4B9A680A4B9A4208D12946B4F90000FFF7B3FF002038BD06487047002038BD00BF0C33081071
:4023000014ED00E000ED00E0004002080100560010B5044605E0084B186800F081F8A4F50044B4F5004FF6D8044B186800FB04F000F076F810BD00BFA8420208A4420208EF
:4023400008B5034B1B7800FB03F000F069F808BDA042020801BEFEE738B50D46044C18220146204600F078F9A5610020FFF7F2FFB8480208FEE700BF08B50268254BDA61C6
:4023800042681A6282685A62C2689A620269DA6242691A6382695A63C2699A631E4A916AD963D16A1964516A5964516B9964926BDA64F1EE103A13F0900F27D0026A154B3B
:4023C0001A65426A5A65826A9A65C26ADA65026B1A66426B5A66826B9A66C26BDA66026C1A67426C5A67826C9A67C26CDA67026DC3F88020426DC3F88420826DC3F8882003
:40240000C26DC3F88C20026EC3F89020FFF7B2FF08BD00BFB848020800ED00E0000000000230800803D001300238FCD100BF00BF7047EFF3108072B6704780F3108870471C
:40244000014B1860704700BFD04B020808B502490248FFF78BFE08BDD44B02080000664008B5114B1B785BB9104A11491148FFF759FC11491148FFF711FF01220A4B1A70C5
:402480000E4BB3F90030002B08DB590903F01F03012202FA03F30A4A42F82130054A136843F00043136008BD544B0208D44B0208C0340810000066404D240810C02F0810E2
:4024C00000E100E010B50E4B1B786BB90D4C21460D48FEF75BFC04F1340201210B48FEF7ABF90122064B1A70074A136843F000431360A2F58022136843F00043136010BD8F
:40250000584B020800350810000014410000104108B5FFF78EFF054A136843F0004343F480531360C0B2FFF788FF08BD0000364010B50446FFF77DFF064AD2F8003423F0F2
:402540007F0304F07F041C43C2F80044C0B2FFF774FF10BD0000364010B50446FFF769FF074AD2F8003423F44073240204F440741C43C2F80044C0B2FFF75FFF10BD00BFE0
:402580000000364010B50446FFF753FF064AD2F8003423F0707343EA8453C2F80034C0B2FFF74BFF10BD00BF0000364008B5FFF740FF0B4AD2F8003423F43C1323F0800323
:4025C000C2F80034C0B2FFF738FF0020FFF7B0FF0020FFF7C1FF0D20FFF7D4FF08BD00BF0000364008B5054B1B6823B9FFF7DEFF0122024B1A60FFF78BFF08BD604B0208A0
:4026000002440346934202D003F8011BFAE770470EB400B59CB04FF402711DABADF81410029006906FF000410A48049107914FF6FF7153F8042BADF816100068019302A9C3
:4026400000F076F8029B00221A701CB05DF804EB03B070470C43020810B5034642B111F8014B03F8014B013A002CF7D11A4400E010BD934202D003F8014BFAE710BD2DE957
:40268000F0478E689E4282460C46914698463ED88A8912F4906F3AD0256809696F1A6569022305EB450595FBF3F57B1C43449D4238BF1D4653050FD5294600F08DFB064613
:4026C00098B13A46216900F013FBA38923F4906343F08003A38113E02A4600F0DBFB064670B92169504600F029FB0C23CAF80030A38943F04003A3814FF0FF30BDE8F08736
:40270000266165613E44ED1B2660A5604646464528BF464632464946206800F0F4FAA3689B1BA36023681E4426600020BDE8F0872DE9F04F9DB0804603938B891C060D4646
:4027400016460DD50B695BB9402100F045FB2860286118B90C23C8F80030CDE040236B610023099320238DF82930DFF89CB130238DF82A3037463C4614F8013B1BB9B7EB32
:40278000060910D003E0252BF9D02746F3E74B46324629464046FFF772FF013000F0A780099B4B4409933B78002B00F0A08000234FF0FF3204930793059206938DF8533081
:4027C0001A930126052221784E4800F041FA671C049B38B14B4A801A06FA00F0184304903C46EFE7D90644BF20228DF853201A0744BF2B228DF8532022782A2A03D0079A2C
:4028000000210A200BE0039A111D12680391002A10DA524243F00200079204900BE0274601343B78303B092B03D800FB02320121F5E701B107923B782E2B1ED17B782A2B0A
:402840000AD1039B1A1D1B680392002BB8BF4FF0FF330237059310E000230593781C19460A24074601303A78303A092A03D804FB01210123F5E703B105910322397822488D
:4028800000F0E6F940B14023CBEB000003FA00F0049B18430490013739781C488DF8281006227E1C00F0D4F988B1194B33B9039B073323F007030833039314E003AB0093B7
:4028C0002A46144B04A94046AFF3008007E003AB00932A460F4B04A9404600F093F8B0F1FF3F824603D0099B5344099342E7AB895B0601D4099801E04FF0FF301DB0BDE8CE
:40290000F08F00BF463508104C35081050350810000000007F2608102DE9F04791461F460A698B68DDF820809342B8BF1346C9F8003091F8432006460C4612B10133C9F897
:4029400000302368990642BFD9F800300233C9F80030256815F0060510D104F1190A07E00123524639463046C04701301AD00135E368D9F800209B1A9D42F1DB94F84330B4
:402980002268003318BF012392060FD5E1185A1C302081F84300224494F8451082F84310023303E04FF0FF30BDE8F08704F1430239463046C0470130F4D02268D9F80050DC
:4029C000E36802F00602042A08BF5D1B2269A3680CBF25EAE57500259342C4BF9B1AED184FF000091A344D4509D00123224639463046C0470130D5D009F10109F3E70020C7
:402A0000BDE8F0872DE9F04317460A7E85B06E2A984606460C460C9B01F1430E00F0AE8011D8632A22D009D8002A00F0BB80582A40F0CA8081F84520834955E0642A1ED006
:402A4000692A1CD0C0E0732A00F0B08009D86F2A2ED0702A40F0B8800A6842F020020A603EE0752A24D0782A3AD0ADE01A6801F14205111D1960136884F84230A8E021680A
:402A80001A6811F0800F02D0111D196008E011F0400F02F10401196002D0B2F9003000E01368002B3CDA2D225B4284F8432037E021681A6811F0800F02D0111D196007E0BC
:402AC00011F0400F02F10401196001D0138800E01368227E5C496F2A14BF0A2208221BE078225A4984F845202268186812F0800F00F104051D6003D1550601D5038800E0AC
:402B00000368D00744BF42F0200222601BB9226822F0200222601022002084F8430001E049490A226568A560002D08DB206820F0040020602BB9002D7DD175460CE0002B87
:402B400079D07546B3FBF2F002FB1033CB5C05F8013D03460028F5D1082A0BD12368DA0708D5236962689A42DEBF302305F8013C05F1FF35C5EB0E0323612EE008681A68C6
:402B8000496910F0800F03D0101D1860136808E010F0400F02F104001860136801D0198000E0196000232361754616E01A68111D1960156862680021284600F049F808B1BC
:402BC000401B6060636804E004F1420584F8422001232361002384F84330CDF800803B4603AA21463046FFF797FE013002D14FF0FF3026E023692A4639463046C0470130BB
:402C0000F5D023689B0710D5002504F1190907E001234A4639463046C0470130E7D00135E368039A9B1A9D42F2DBE068039B9842B8BF184605E00B7884F8423004F142055C
:402C40008AE705B0BDE8F083573508106835081001F0FF01102A2BDB10F0070F08D010F8013B013A8B422DD010F0070F42B3F6D1F0B441EA012141EA014122F007047FF099
:402C800000070023F0E80256083C85EA010586EA010685FA47F5A3FA87F586FA47F6A5FA87F68EB9EED1F0BC01F0FF0102F0070232B110F8013B013A83EA010313B1F8D1DF
:402CC0000020704701387047002D06BF35460338073815F0010F07D1013015F4807F02BF013015F4C03F0130F0BC0138704700BF10B5431E0A44914204D011F8014B03F80F
:402D0000014FF8E710BD884210B501EB020301D8421E0BE09842FBD28118D21AD34204D013F8014D01F8014DF8E710BD994204D011F8014B02F8014FF8E710BD38B5054660
:402D4000002946D051F8043C0C1F002BB8BFE41800F0D6F81F4A1368114613B96360146032E0A3420ED92268A018834204BF18685B68636004BF121822600C6024E0A24255
:402D800003D813465A68002AF9D118681918A1420BD12168014458188242196014D1106852685A60014419600EE002D90C232B600AE021686018824204BF106852686260C6
:402DC00004BF091821605C602846BDE8384000F098B838BD684B020870B5CD1C25F0030508350C2D38BF0C25002D064601DBA94202D90C23336046E000F082F8234B1C680D
:402E00001A462146A1B10B685B1B0ED40B2B03D90B60CC18CD501EE08C420DBF63684B686360136018BF0C4615E00C464968E9E7174C23681BB9304600F052F82060294692
:402E4000304600F04DF8431C18D0C41C24F00304A0420DD12560304600F053F804F10B00231D20F00700C31A0ED05A42E25070BD211A304600F034F80130EBD10C233360E6
:402E8000304600F03EF8002070BD00BF684B0208644B0208F8B5074615460E4621B91146BDE8F840FFF798BF1AB9FFF747FF2846F8BD00F027F885420ED929463846FFF71E
:402EC0008BFF044650B131462A46FFF711FF31463846FFF733FF01E03046F8BD2046F8BD38B5064C002305460846236000F014F8431C02D1236803B12B6038BD0C4C0208FF
:402F00007047704751F8040C0028BEBF091851F8043CC01804387047044A05491368002B08BF0B4618441060184670476C4B0208104C0208F8B500BFF8BC08BC9E467047CF
:402F4000F8B500BFF8BC08BC9E46704747656E6572617465645F536F757263655C50536F43362F4144432E6800000000257509202575092025750920257509202575092030
:402F800025750A000300000001000000010000000000000005036000040000000100000000000000010000000604600008000000C84A0208B90408108A0000000700000006
:402FC0002E0000000700000047656E6572617465645F536F757263655C50536F43365C70646C5C647269766572732F7065726970686572616C2F7361722F63795F736172DF
:403000002E6800000000000004000000183008100100000002000000E3EE2013B800049063000400020002001000FF0F030000000F00000000000000011000000310000084
:40304000021000000000000000000000000000000000000000000000000000000000000000000000000000000000000000000000000000000100000000000000000000003D
:403080000000000000000000000000007206000047656E6572617465645F536F757263655C50536F43365C70646C5C647269766572735C7065726970686572616C5C6374A0
:4030C000625C63795F6374622E63000047656E6572617465645F536F757263655C50536F43365C70646C5C647269766572735C7065726970686572616C5C63746461635C91
:4031000063795F63746461632E63000047656E6572617465645F536F757263655C50536F43365C70646C5C647269766572732F7065726970686572616C2F6970632F6379B6
:403140005F6970635F6472762E68000047656E6572617465645F536F757263655C50536F43365C70646C5C647269766572735C7065726970686572616C5C6970635C6379DE
:403180005F6970635F6472762E68000047656E6572617465645F536F757263655C50536F43365C70646C5C647269766572735C7065726970686572616C5C6970635C63799E
:4031C0005F6970635F6472762E63000047656E6572617465645F536F757263655C50536F43365C70646C5C647269766572735C7065726970686572616C5C6970635C637963
:403200005F6970635F706970652E630047656E6572617465645F536F757263655C50536F43365C70646C5C647269766572735C7065726970686572616C5C7361725C6379B6
:403240005F7361722E63000047656E6572617465645F536F757263655C50536F43365C70646C5C647269766572735C7065726970686572616C5C7363625C63795F736362F0
:403280005F756172742E680047656E6572617465645F536F757263655C50536F43365C70646C5C647269766572735C7065726970686572616C5C7363625C63795F73636235
:4032C0005F636F6D6D6F6E2E6800000047656E6572617465645F536F757263655C50536F43365C70646C5C647269766572735C7065726970686572616C5C7363625C6379BF
:403300005F7363625F756172742E630047656E6572617465645F536F757263655C50536F43365C70646C5C647269766572735C7065726970686572616C5C737973696E747F
:403340005C63795F737973696E742E63000000000000204000002440000000400000000000002340000030400000314000009F400000224000001040020202020202020292
:403380000210101D800017007500FF030602063604102000000000007FC0000000040000000000000019324B647D00804000080B100000000000FF012002001F00800004E6
:4033C000FF081018001000140018001C4044484C50000000081000000800000004000000041000000012000004210000002100000016000040114002C41300138013A01375
:40340000200000001C0000000000214000002540000001400000344000002440000031400000324000001F41000023400000114001010101010101010110101080001900A8
:403440005500F0000501053B04101C01010000000FC000000004000001010101011D3A57789600082000101208000000001F00000010000F002000023F06080E00080009DD
:40348000000A000B24282C3034000000100000009000000088000000080000008000000004F0000000F00000400200002005A000D00100018001A00120000000100000005C
:4034C000000000000C0000000800000000020000000000000000000000000000000000000000000000000000000000000B00000000000000000000000000000000000000AB
:403500000100000000000000010000020000400000000000000000002200000000000000000000000100000000000000000000000000000000000000030800080000000011
:40354000000000004300232D302B2000686C4C0065666745464700303132333435363738394142434445460030313233343536373839616263646566000000000000000015
:4035800000000810004002088C020000A03508108C4202082C0600004C490208C40200000048E80100127A0000093D0000127A0000127A0008000000401F00000000A00F8E
:4035C000000000000000000000000000000000000000000000000000000000000000000044350810000000000000000000000000000000000000000000000000000000003A
:403600000000000000000000000000000000000000000000000000000000000000000000AC420208B10208108D0208100000000080B2C10050B3164B1B681A6AB3F8B03037
:40364000C3EBC303D358002BF5DA3E22114B1A6041F61E7204331A60A3F584730622C3F8182521F07F41C3F81C15D3F81C35084B1A68116AB2F8B030C3EBC3030B440022BC
:403680005A60054BD3F81C35002BFADA704700BFD04B02080401264000002640F8B5274B1B6893F83130052B04D840F2C311244800F07CFA214F3A68166AB2F8B03003EBFD
:4036C00083031E4452684FF26003D458A4B200F075FA05463B681968D3F890208A58013C032C27D8032A0CD1164A127812F0FF0F07D10822B2601968D3F890208A58032A49
:40370000F9D01968D3F884208B588858C0F307221B0E581C02FB00000B4B03FB00F00B4B1B680B4AA2FB03239B09B0FBF3F08230FFF77EFF284600F009FAF8BDD04B0208D0
:403740000C3108100B00001640420F0090420208D34D62104378FF2B23D110B500F02EFA0446104B1B6893F83130042B04D840F2C3110D4800F01AFA0A4B1A68136AB2F8A2
:40378000B02003EB8203DB685A68136843F001031360136813F0010FFBD1204600F0D6F910BD7047D04B02080C3108102DE9F04707468846554B1B6893F83130012B04D8A0
:4037C00040F2C311524800F0F1F9504B1B681C6AB3F8B0201444D3F8B420161993F85030002B79D04B4B1B7813F0FF0F02D04FF0000901E04FF00109B9F1000F38D0434BBE
:403800001B6893F83130052B04D840F2C311404800F0CCF93D4B1A68116AB2F8B03003EB83030B44D2F8B420D358002B22DB002000F0ACF9384B98421ED00023374A1269E8
:403840000121184600F0AAF918B1354D17E0013500E00025002000F099F92F4B984202D0304B9D42F3D92F4B9D4207D92C4D06E0002504E02A4D02E0294D00E00025002D28
:4038800041D100F09BF98246274BD3F81C35002B10DA224A0121204600F060F960B94046FFF7C6FE57B13368002BFCDB00F05EF9054604E01A4D02E0194D00E01B4DB9F1B5
:4038C000000F05D00121002000F058F90028F9D1504600F03BF916E000F070F980460F4A0121204600F03AF938B947B13368002BFCDB00F03BF9054602E0094D00E00B4D37
:40390000404600F023F92846BDE8F087D04B02080C3108100B00001601018800F04A020805005200EF4902000000264001005000F0B47F4B1A6855684FF0B0535B7813F0F5
:40394000FF0F04D04FF0B0535B78DBB200E02123212B55D1116AB2F8B030C3EBC303CC18CB58002BF6DAE36843F00103E360146AB2F8B030C3EBC3031C44E36813F0020FB2
:403980002DD0E3689EB21368D2F884105958090A090401F47F01D2F88870DB591B0A41EA03633343E3601168D2F884208B5823F47F4343F410638B505D4A13681C68D3F852
:4039C0008810635823F47F4343F41063635013681A68D3F884105158D3F88830D358544B1A68116AB2F8B030C3EBC3030B4400215960116AB2F8B030C3EBC3030B445B683D
:403A00004B4B19680C68D1F894301C44494A136943F004031361012801D030BF07E020BF454B1B7803B120BF0122434B1A70236803F00303022BE9D00A6AB1F8B030C3EB9C
:403A4000C303D018D358002BF6DA4FF0B0535B7813F0FF0F04D04FF0B0535B78DBB200E02123212B30D1C36813F0020F1FD00C68D1F88410635823F47F42C3681B0C1B0264
:403A800003F47F4313436350294B19680C68D1F88800235823F47F420D6AB1F8B030C3EBC3032B44DB681B0E42EA03232350204B1A68136AB2F8B020C2EBC2021344DA6835
:403AC00022F00102DA6026E0D5F80C311BBB1B490E681B4BD3F818451A4A106841F61E770F600621C3F818153E2111604422C3F81C25134BD3F81C35002BFADA4FF0AA333C
:403B0000C5F80C310D4B1E60A3F58473C3F8184503F582731860064B1A68116AB2F8B030C3EBC3030B4400225A60F0BC704700BFD04B020800ED00E0184B02080801264042
:403B400000002640040126400000000001B40248844601BC604700BF3B24081001B40248844601BC604700BFC910081001B40248844601BC604700BFA10F081001B4024881
:403B8000844601BC604700BF4D12081001B40248844601BC604700BFD512081001B40248844601BC604700BFA914081001B40248844601BC604700BF5923081001B4024876
:403BC000844601BC604700BF332408100000000000000000000000000000000000000000000000000000000000000000000000000000000000000000000000000000000069
:0200000490303A
:020000000A00F4
:0200000490501A
:0C0000000005E2F021002101E3052B00C7
:00000001FF